{
  "_format": "hh-sol-artifact-1",
  "contractName": "RewardsPool",
  "sourceName": "contracts/RewardsPool.sol",
  "abi": [
    {
      "inputs": [
        {
          "internalType": "address",
          "name": "_protocolContract",
          "type": "address"
        }
      ],
      "stateMutability": "nonpayable",
      "type": "constructor"
    },
    {
      "anonymous": false,
      "inputs": [
        {
          "indexed": true,
          "internalType": "address",
          "name": "previousOwner",
          "type": "address"
        },
        {
          "indexed": true,
          "internalType": "address",
          "name": "newOwner",
          "type": "address"
        }
      ],
      "name": "OwnershipTransferred",
      "type": "event"
    },
    {
      "anonymous": false,
      "inputs": [
        {
          "indexed": true,
          "internalType": "uint256",
          "name": "week",
          "type": "uint256"
        },
        {
          "indexed": false,
          "internalType": "uint256",
          "name": "totalUsdValue",
          "type": "uint256"
        },
        {
          "indexed": false,
          "internalType": "address[]",
          "name": "tokens",
          "type": "address[]"
        }
      ],
      "name": "PoolDistributed",
      "type": "event"
    },
    {
      "anonymous": false,
      "inputs": [
        {
          "indexed": true,
          "internalType": "address",
          "name": "token",
          "type": "address"
        },
        {
          "indexed": false,
          "internalType": "uint256",
          "name": "amount",
          "type": "uint256"
        },
        {
          "indexed": false,
          "internalType": "uint256",
          "name": "week",
          "type": "uint256"
        },
        {
          "indexed": false,
          "internalType": "uint256",
          "name": "poolShare",
          "type": "uint256"
        }
      ],
      "name": "RevenueDeposited",
      "type": "event"
    },
    {
      "anonymous": false,
      "inputs": [
        {
          "indexed": true,
          "internalType": "uint256",
          "name": "week",
          "type": "uint256"
        },
        {
          "indexed": true,
          "internalType": "address",
          "name": "stakingContract",
          "type": "address"
        },
        {
          "indexed": false,
          "internalType": "uint256",
          "name": "amount",
          "type": "uint256"
        }
      ],
      "name": "RewardsClaimedByStaking",
      "type": "event"
    },
    {
      "anonymous": false,
      "inputs": [
        {
          "indexed": true,
          "internalType": "address",
          "name": "token",
          "type": "address"
        },
        {
          "indexed": false,
          "internalType": "uint256",
          "name": "rate",
          "type": "uint256"
        }
      ],
      "name": "TokenUsdRateUpdated",
      "type": "event"
    },
    {
      "inputs": [],
      "name": "WEEK_DURATION",
      "outputs": [
        {
          "internalType": "uint256",
          "name": "",
          "type": "uint256"
        }
      ],
      "stateMutability": "view",
      "type": "function"
    },
    {
      "inputs": [
        {
          "internalType": "address",
          "name": "token",
          "type": "address"
        },
        {
          "internalType": "uint256",
          "name": "usdRate",
          "type": "uint256"
        }
      ],
      "name": "addSupportedToken",
      "outputs": [],
      "stateMutability": "nonpayable",
      "type": "function"
    },
    {
      "inputs": [
        {
          "internalType": "address",
          "name": "token",
          "type": "address"
        },
        {
          "internalType": "uint256",
          "name": "amount",
          "type": "uint256"
        }
      ],
      "name": "adminDeposit",
      "outputs": [],
      "stateMutability": "nonpayable",
      "type": "function"
    },
    {
      "inputs": [
        {
          "internalType": "uint256",
          "name": "week",
          "type": "uint256"
        },
        {
          "internalType": "uint256",
          "name": "tierWeight",
          "type": "uint256"
        },
        {
          "internalType": "uint256",
          "name": "totalTierWeight",
          "type": "uint256"
        }
      ],
      "name": "calculateTierShare",
      "outputs": [
        {
          "internalType": "uint256",
          "name": "",
          "type": "uint256"
        }
      ],
      "stateMutability": "view",
      "type": "function"
    },
    {
      "inputs": [
        {
          "internalType": "address",
          "name": "token",
          "type": "address"
        },
        {
          "internalType": "uint256",
          "name": "amount",
          "type": "uint256"
        }
      ],
      "name": "claimRewardsForStakers",
      "outputs": [],
      "stateMutability": "nonpayable",
      "type": "function"
    },
    {
      "inputs": [],
      "name": "currentWeek",
      "outputs": [
        {
          "internalType": "uint256",
          "name": "",
          "type": "uint256"
        }
      ],
      "stateMutability": "view",
      "type": "function"
    },
    {
      "inputs": [
        {
          "internalType": "address",
          "name": "token",
          "type": "address"
        },
        {
          "internalType": "uint256",
          "name": "amount",
          "type": "uint256"
        }
      ],
      "name": "depositRevenue",
      "outputs": [],
      "stateMutability": "nonpayable",
      "type": "function"
    },
    {
      "inputs": [
        {
          "internalType": "uint256",
          "name": "week",
          "type": "uint256"
        }
      ],
      "name": "distributeWeeklyPool",
      "outputs": [],
      "stateMutability": "nonpayable",
      "type": "function"
    },
    {
      "inputs": [
        {
          "internalType": "address",
          "name": "token",
          "type": "address"
        },
        {
          "internalType": "uint256",
          "name": "amount",
          "type": "uint256"
        }
      ],
      "name": "emergencyWithdraw",
      "outputs": [],
      "stateMutability": "nonpayable",
      "type": "function"
    },
    {
      "inputs": [],
      "name": "getCurrentWeekPool",
      "outputs": [
        {
          "internalType": "uint256",
          "name": "week",
          "type": "uint256"
        },
        {
          "internalType": "uint256",
          "name": "startTime",
          "type": "uint256"
        },
        {
          "internalType": "uint256",
          "name": "endTime",
          "type": "uint256"
        },
        {
          "internalType": "uint256",
          "name": "totalUsdValue",
          "type": "uint256"
        },
        {
          "internalType": "bool",
          "name": "isActive",
          "type": "bool"
        },
        {
          "internalType": "bool",
          "name": "distributed",
          "type": "bool"
        }
      ],
      "stateMutability": "view",
      "type": "function"
    },
    {
      "inputs": [
        {
          "internalType": "address",
          "name": "token",
          "type": "address"
        }
      ],
      "name": "getTokenBalance",
      "outputs": [
        {
          "internalType": "uint256",
          "name": "",
          "type": "uint256"
        }
      ],
      "stateMutability": "view",
      "type": "function"
    },
    {
      "inputs": [
        {
          "internalType": "uint256",
          "name": "week",
          "type": "uint256"
        }
      ],
      "name": "getWeekPool",
      "outputs": [
        {
          "internalType": "uint256",
          "name": "startTime",
          "type": "uint256"
        },
        {
          "internalType": "uint256",
          "name": "endTime",
          "type": "uint256"
        },
        {
          "internalType": "uint256",
          "name": "totalUsdValue",
          "type": "uint256"
        },
        {
          "internalType": "bool",
          "name": "distributed",
          "type": "bool"
        }
      ],
      "stateMutability": "view",
      "type": "function"
    },
    {
      "inputs": [
        {
          "internalType": "uint256",
          "name": "week",
          "type": "uint256"
        },
        {
          "internalType": "address",
          "name": "token",
          "type": "address"
        }
      ],
      "name": "getWeekTokenAmount",
      "outputs": [
        {
          "internalType": "uint256",
          "name": "",
          "type": "uint256"
        }
      ],
      "stateMutability": "view",
      "type": "function"
    },
    {
      "inputs": [],
      "name": "owner",
      "outputs": [
        {
          "internalType": "address",
          "name": "",
          "type": "address"
        }
      ],
      "stateMutability": "view",
      "type": "function"
    },
    {
      "inputs": [],
      "name": "protocolContract",
      "outputs": [
        {
          "internalType": "address",
          "name": "",
          "type": "address"
        }
      ],
      "stateMutability": "view",
      "type": "function"
    },
    {
      "inputs": [
        {
          "internalType": "address",
          "name": "token",
          "type": "address"
        }
      ],
      "name": "removeSupportedToken",
      "outputs": [],
      "stateMutability": "nonpayable",
      "type": "function"
    },
    {
      "inputs": [],
      "name": "renounceOwnership",
      "outputs": [],
      "stateMutability": "nonpayable",
      "type": "function"
    },
    {
      "inputs": [
        {
          "internalType": "address",
          "name": "_protocol",
          "type": "address"
        }
      ],
      "name": "setProtocolContract",
      "outputs": [],
      "stateMutability": "nonpayable",
      "type": "function"
    },
    {
      "inputs": [
        {
          "internalType": "address",
          "name": "_staking",
          "type": "address"
        }
      ],
      "name": "setStakingContract",
      "outputs": [],
      "stateMutability": "nonpayable",
      "type": "function"
    },
    {
      "inputs": [],
      "name": "stakingContract",
      "outputs": [
        {
          "internalType": "address",
          "name": "",
          "type": "address"
        }
      ],
      "stateMutability": "view",
      "type": "function"
    },
    {
      "inputs": [
        {
          "internalType": "uint256",
          "name": "",
          "type": "uint256"
        }
      ],
      "name": "supportedTokenList",
      "outputs": [
        {
          "internalType": "address",
          "name": "",
          "type": "address"
        }
      ],
      "stateMutability": "view",
      "type": "function"
    },
    {
      "inputs": [
        {
          "internalType": "address",
          "name": "",
          "type": "address"
        }
      ],
      "name": "supportedTokens",
      "outputs": [
        {
          "internalType": "bool",
          "name": "",
          "type": "bool"
        }
      ],
      "stateMutability": "view",
      "type": "function"
    },
    {
      "inputs": [
        {
          "internalType": "address",
          "name": "",
          "type": "address"
        }
      ],
      "name": "tokenPools",
      "outputs": [
        {
          "internalType": "uint256",
          "name": "",
          "type": "uint256"
        }
      ],
      "stateMutability": "view",
      "type": "function"
    },
    {
      "inputs": [
        {
          "internalType": "address",
          "name": "",
          "type": "address"
        }
      ],
      "name": "tokenUsdRates",
      "outputs": [
        {
          "internalType": "uint256",
          "name": "",
          "type": "uint256"
        }
      ],
      "stateMutability": "view",
      "type": "function"
    },
    {
      "inputs": [
        {
          "internalType": "address",
          "name": "newOwner",
          "type": "address"
        }
      ],
      "name": "transferOwnership",
      "outputs": [],
      "stateMutability": "nonpayable",
      "type": "function"
    },
    {
      "inputs": [
        {
          "internalType": "address",
          "name": "token",
          "type": "address"
        },
        {
          "internalType": "uint256",
          "name": "rate",
          "type": "uint256"
        }
      ],
      "name": "updateTokenUsdRate",
      "outputs": [],
      "stateMutability": "nonpayable",
      "type": "function"
    },
    {
      "inputs": [],
      "name": "weekStartDay",
      "outputs": [
        {
          "internalType": "uint256",
          "name": "",
          "type": "uint256"
        }
      ],
      "stateMutability": "view",
      "type": "function"
    },
    {
      "inputs": [
        {
          "internalType": "uint256",
          "name": "",
          "type": "uint256"
        }
      ],
      "name": "weeklyPools",
      "outputs": [
        {
          "internalType": "uint256",
          "name": "startTime",
          "type": "uint256"
        },
        {
          "internalType": "uint256",
          "name": "endTime",
          "type": "uint256"
        },
        {
          "internalType": "uint256",
          "name": "totalUsdValue",
          "type": "uint256"
        },
        {
          "internalType": "bool",
          "name": "distributed",
          "type": "bool"
        }
      ],
      "stateMutability": "view",
      "type": "function"
    }
  ],
  "bytecode": "0x608060405260046007553480156200001657600080fd5b5060405162001a2338038062001a238339810160408190526200003991620001bb565b620000443362000113565b600180556001600160a01b038116620000a35760405162461bcd60e51b815260206004820152601860248201527f496e76616c69642070726f746f636f6c20616464726573730000000000000000604482015260640160405180910390fd5b600a80546001600160a01b0319166001600160a01b03831617905560016006556000620000d04262000163565b60065460009081526005602052604090208190559050620000f562093a808262000203565b60065460009081526005602052604090206001015550620002939050565b600080546001600160a01b038381166001600160a01b0319831681178455604051919092169283917f8be0079c531659141344cd1fd0a4f28419497f9722a3daafe3b4186f6b6457e09190a35050565b60008062000175620151808462000235565b9050600060076200018883600462000203565b6200019491906200024c565b905080620001a6816201518062000263565b620001b290866200027d565b95945050505050565b600060208284031215620001ce57600080fd5b81516001600160a01b0381168114620001e657600080fd5b9392505050565b634e487b7160e01b600052601160045260246000fd5b80820180821115620002195762000219620001ed565b92915050565b634e487b7160e01b600052601260045260246000fd5b6000826200024757620002476200021f565b500490565b6000826200025e576200025e6200021f565b500690565b8082028115828204841417620002195762000219620001ed565b81810381811115620002195762000219620001ed565b61178080620002a36000396000f3fe608060405234801561001057600080fd5b50600436106101c45760003560e01c806395ccea67116100f9578063da96e03d11610097578063ec174d3311610071578063ec174d331461043b578063ee99205c14610474578063f2fde38b14610487578063f8b038c21461049a57600080fd5b8063da96e03d146103ff578063dab3fce91461041f578063daea01131461043257600080fd5b8063a76a2fcb116100d3578063a76a2fcb146103a6578063a8e9efd9146103b9578063aa38434a146103cc578063c3d2c3c1146103df57600080fd5b806395ccea6714610347578063971c68071461035a5780639dd373b91461039357600080fd5b80635b48f256116101665780637631919011610140578063763191901461030657806376f5f70014610319578063855bde3e146103235780638da5cb5b1461033657600080fd5b80635b48f2561461027157806368c4ac26146102cb578063715018a6146102fe57600080fd5b80633aecd0e3116101a25780633aecd0e3146102235780634d8e3d3b1461023657806352aa9df31461024b5780635323ed381461025e57600080fd5b806306575c89146101c95780631c3cd726146101e55780632b60c822146101f8575b600080fd5b6101d260065481565b6040519081526020015b60405180910390f35b6101d26101f33660046114d4565b6104ad565b61020b610206366004611500565b6104da565b6040516001600160a01b0390911681526020016101dc565b6101d2610231366004611519565b610504565b610249610244366004611534565b61056f565b005b610249610259366004611519565b610696565b61024961026c366004611534565b610716565b6102a961027f366004611500565b60056020526000908152604090208054600182015460038301546004909301549192909160ff1684565b60408051948552602085019390935291830152151560608201526080016101dc565b6102ee6102d9366004611519565b60026020526000908152604090205460ff1681565b60405190151581526020016101dc565b6102496108c8565b610249610314366004611519565b6108dc565b6101d262093a8081565b610249610331366004611534565b610905565b6000546001600160a01b031661020b565b610249610355366004611534565b610958565b6102a9610368366004611500565b6000908152600560205260409020805460018201546003830154600490930154919390929160ff1690565b6102496103a1366004611519565b6109ef565b600a5461020b906001600160a01b031681565b6101d26103c736600461155e565b610a6f565b6102496103da366004611500565b610ac1565b6101d26103ed366004611519565b60046020526000908152604090205481565b6101d261040d366004611519565b60086020526000908152604090205481565b61024961042d366004611534565b610c0c565b6101d260075481565b610443610ca5565b60408051968752602087019590955293850192909252606084015215156080830152151560a082015260c0016101dc565b60095461020b906001600160a01b031681565b610249610495366004611519565b610d00565b6102496104a8366004611534565b610d76565b60008281526005602090815260408083206001600160a01b03851684526002019091529020545b92915050565b600381815481106104ea57600080fd5b6000918252602090912001546001600160a01b0316905081565b6040516370a0823160e01b81523060048201526000906001600160a01b038316906370a0823190602401602060405180830381865afa15801561054b573d6000803e3d6000fd5b505050506040513d601f19601f820116820180604052508101906104d4919061158a565b610577610f4f565b6001600160a01b0382166105c25760405162461bcd60e51b815260206004820152600d60248201526c24b73b30b634b2103a37b5b2b760991b60448201526064015b60405180910390fd5b6001600160a01b03821660009081526002602052604090205460ff161561061f5760405162461bcd60e51b8152602060048201526011602482015270105b1c9958591e481cdd5c1c1bdc9d1959607a1b60448201526064016105b9565b6001600160a01b039091166000818152600260209081526040808320805460ff19166001908117909155600890925282209390935560038054938401815590527fc2575a0e9e593c00f959f8c92f12db2869c3395a3b0502d05e2516446f71f85b90910180546001600160a01b0319169091179055565b61069e610f4f565b6001600160a01b0381166106f45760405162461bcd60e51b815260206004820152601860248201527f496e76616c69642070726f746f636f6c2061646472657373000000000000000060448201526064016105b9565b600a80546001600160a01b0319166001600160a01b0392909216919091179055565b61071e610f4f565b610726610fa9565b6001600160a01b03821660009081526002602052604090205460ff1661075e5760405162461bcd60e51b81526004016105b9906115a3565b600081116107a35760405162461bcd60e51b81526020600482015260126024820152710416d6f756e74206d757374206265203e20360741b60448201526064016105b9565b6107b86001600160a01b038316333084611002565b6107c0611073565b60065460009081526005602090815260408083206001600160a01b03861684526002810190925282208054919284926107fa9084906115e6565b90915550506001600160a01b038316600090815260046020526040812080548492906108279084906115e6565b90915550506001600160a01b03831660009081526008602052604081205461084f90846115f9565b90508082600301600082825461086591906115e6565b909155505060065460408051858152602081019290925281018290526001600160a01b038516907f84cebdc46bbe388296f17f1e4a75ba2639d2c34ace16952c6d19393c23f72fdd9060600160405180910390a250506108c460018055565b5050565b6108d0610f4f565b6108da600061116a565b565b6108e4610f4f565b6001600160a01b03166000908152600260205260409020805460ff19169055565b600a546001600160a01b0316331461071e5760405162461bcd60e51b815260206004820152601660248201527513db9b1e481c1c9bdd1bd8dbdb0818dbdb9d1c9858dd60521b60448201526064016105b9565b610960610f4f565b6001600160a01b03821660009081526002602052604090205460ff16156109c95760405162461bcd60e51b815260206004820152601d60248201527f43616e6e6f742077697468647261772072657761726420746f6b656e7300000060448201526064016105b9565b6108c46109de6000546001600160a01b031690565b6001600160a01b03841690836111ba565b6109f7610f4f565b6001600160a01b038116610a4d5760405162461bcd60e51b815260206004820152601760248201527f496e76616c6964207374616b696e67206164647265737300000000000000000060448201526064016105b9565b600980546001600160a01b0319166001600160a01b0392909216919091179055565b600083815260056020526040812060038101541580610a8c575082155b15610a9b576000915050610aba565b82848260030154610aac91906115f9565b610ab69190611610565b9150505b9392505050565b610ac9610fa9565b6000818152600560205260409020600481015460ff1615610b225760405162461bcd60e51b8152602060048201526013602482015272105b1c9958591e48191a5cdd1c9a589d5d1959606a1b60448201526064016105b9565b8060010154421015610b675760405162461bcd60e51b815260206004820152600e60248201526d15d9595ac81b9bdd08195b99195960921b60448201526064016105b9565b6000816003015411610ba85760405162461bcd60e51b815260206004820152600a602482015269115b5c1d1e481c1bdbdb60b21b60448201526064016105b9565b60048101805460ff19166001179055600381015482907f7ece06d22ca44db3fd05847211cd5a2175a588ffce0d387e96bf5cf137edeb1490610be9836111ef565b604051610bf7929190611632565b60405180910390a250610c0960018055565b50565b610c14610f4f565b6001600160a01b03821660009081526002602052604090205460ff16610c4c5760405162461bcd60e51b81526004016105b9906115a3565b6001600160a01b03821660008181526008602052604090819020839055517fe68ac40ed8b5c72450fbe8236d3df05478fd265acd206f36a07b86e2ca7bba3b90610c999084815260200190565b60405180910390a25050565b60065460008181526005602052604081208054600182015460038301549394859485948594859485949293428311801590610ce35750846001015442105b60049590950154939b929a50909850965091945060ff1692509050565b610d08610f4f565b6001600160a01b038116610d6d5760405162461bcd60e51b815260206004820152602660248201527f4f776e61626c653a206e6577206f776e657220697320746865207a65726f206160448201526564647265737360d01b60648201526084016105b9565b610c098161116a565b6009546001600160a01b03163314610dc85760405162461bcd60e51b815260206004820152601560248201527413db9b1e481cdd185ada5b99c818dbdb9d1c9858dd605a1b60448201526064016105b9565b610dd0610fa9565b6009546001600160a01b0316610e1a5760405162461bcd60e51b815260206004820152600f60248201526e14dd185ada5b99c81b9bdd081cd95d608a1b60448201526064016105b9565b6001600160a01b03821660009081526002602052604090205460ff16610e525760405162461bcd60e51b81526004016105b9906115a3565b6001600160a01b038216600090815260046020526040902054811115610eba5760405162461bcd60e51b815260206004820152601960248201527f496e73756666696369656e7420706f6f6c2062616c616e63650000000000000060448201526064016105b9565b6001600160a01b03821660009081526004602052604081208054839290610ee2908490611689565b9091555050600954610f01906001600160a01b038481169116836111ba565b6009546006546040518381526001600160a01b03909216917fe555d93c5f62fcda9523cebd62ebb6950f0fdb97d0730bd4814849069034f1579060200160405180910390a36108c460018055565b6000546001600160a01b031633146108da5760405162461bcd60e51b815260206004820181905260248201527f4f776e61626c653a2063616c6c6572206973206e6f7420746865206f776e657260448201526064016105b9565b600260015403610ffb5760405162461bcd60e51b815260206004820152601f60248201527f5265656e7472616e637947756172643a207265656e7472616e742063616c6c0060448201526064016105b9565b6002600155565b6040516001600160a01b038085166024830152831660448201526064810182905261106d9085906323b872dd60e01b906084015b60408051601f198184030181529190526020810180516001600160e01b03166001600160e01b031990931692909217909152611253565b50505050565b60065460009081526005602052604090205b80600101544210610c0957600481015460ff161580156110a9575060008160030154115b156111075760048101805460ff1916600117905560065460038201547f7ece06d22ca44db3fd05847211cd5a2175a588ffce0d387e96bf5cf137edeb14906110f0836111ef565b6040516110fe929190611632565b60405180910390a25b600680549060006111178361169c565b90915550506001810154600654600090815260056020526040902081905561114262093a80826115e6565b6006805460009081526005602052604080822060010193909355905481522091506110859050565b600080546001600160a01b038381166001600160a01b0319831681178455604051919092169283917f8be0079c531659141344cd1fd0a4f28419497f9722a3daafe3b4186f6b6457e09190a35050565b6040516001600160a01b0383166024820152604481018290526111ea90849063a9059cbb60e01b90606401611036565b505050565b6060600380548060200260200160405190810160405280929190818152602001828054801561124757602002820191906000526020600020905b81546001600160a01b03168152600190910190602001808311611229575b50505050509050919050565b60006112a8826040518060400160405280602081526020017f5361666545524332303a206c6f772d6c6576656c2063616c6c206661696c6564815250856001600160a01b03166113289092919063ffffffff16565b90508051600014806112c95750808060200190518101906112c991906116b5565b6111ea5760405162461bcd60e51b815260206004820152602a60248201527f5361666545524332303a204552433230206f7065726174696f6e20646964206e6044820152691bdd081cdd58d8d9595960b21b60648201526084016105b9565b6060611337848460008561133f565b949350505050565b6060824710156113a05760405162461bcd60e51b815260206004820152602660248201527f416464726573733a20696e73756666696369656e742062616c616e636520666f6044820152651c8818d85b1b60d21b60648201526084016105b9565b600080866001600160a01b031685876040516113bc91906116fb565b60006040518083038185875af1925050503d80600081146113f9576040519150601f19603f3d011682016040523d82523d6000602084013e6113fe565b606091505b509150915061140f8783838761141a565b979650505050505050565b60608315611489578251600003611482576001600160a01b0385163b6114825760405162461bcd60e51b815260206004820152601d60248201527f416464726573733a2063616c6c20746f206e6f6e2d636f6e747261637400000060448201526064016105b9565b5081611337565b611337838381511561149e5781518083602001fd5b8060405162461bcd60e51b81526004016105b99190611717565b80356001600160a01b03811681146114cf57600080fd5b919050565b600080604083850312156114e757600080fd5b823591506114f7602084016114b8565b90509250929050565b60006020828403121561151257600080fd5b5035919050565b60006020828403121561152b57600080fd5b610aba826114b8565b6000806040838503121561154757600080fd5b611550836114b8565b946020939093013593505050565b60008060006060848603121561157357600080fd5b505081359360208301359350604090920135919050565b60006020828403121561159c57600080fd5b5051919050565b602080825260139082015272151bdad95b881b9bdd081cdd5c1c1bdc9d1959606a1b604082015260600190565b634e487b7160e01b600052601160045260246000fd5b808201808211156104d4576104d46115d0565b80820281158282048414176104d4576104d46115d0565b60008261162d57634e487b7160e01b600052601260045260246000fd5b500490565b6000604082018483526020604081850152818551808452606086019150828701935060005b8181101561167c5784516001600160a01b031683529383019391830191600101611657565b5090979650505050505050565b818103818111156104d4576104d46115d0565b6000600182016116ae576116ae6115d0565b5060010190565b6000602082840312156116c757600080fd5b81518015158114610aba57600080fd5b60005b838110156116f25781810151838201526020016116da565b50506000910152565b6000825161170d8184602087016116d7565b9190910192915050565b60208152600082518060208401526117368160408501602087016116d7565b601f01601f1916919091016040019291505056fea26469706673582212202de196f8646bd2818cdde3a339882c7bd7714abd3e5fd1b760e30da520664b8b64736f6c63430008130033",
  "linkReferences": {},
  "deployedLinkReferences": {}
}