{
  "_format": "hh-sol-artifact-1",
  "contractName": "TCGVaultProtocol",
  "sourceName": "contracts/TCGVaultProtocol.sol",
  "abi": [
    {
      "inputs": [
        {
          "internalType": "address",
          "name": "_treasury",
          "type": "address"
        },
        {
          "internalType": "address",
          "name": "_operations",
          "type": "address"
        },
        {
          "internalType": "address",
          "name": "_tokenLiquidity",
          "type": "address"
        },
        {
          "internalType": "address",
          "name": "_investment",
          "type": "address"
        }
      ],
      "stateMutability": "nonpayable",
      "type": "constructor"
    },
    {
      "anonymous": false,
      "inputs": [
        {
          "indexed": true,
          "internalType": "address",
          "name": "buyer",
          "type": "address"
        },
        {
          "indexed": true,
          "internalType": "uint256",
          "name": "breakId",
          "type": "uint256"
        },
        {
          "indexed": false,
          "internalType": "uint256",
          "name": "quantity",
          "type": "uint256"
        },
        {
          "indexed": false,
          "internalType": "uint256",
          "name": "totalPaid",
          "type": "uint256"
        },
        {
          "indexed": false,
          "internalType": "uint256",
          "name": "packCostAmount",
          "type": "uint256"
        },
        {
          "indexed": false,
          "internalType": "uint256",
          "name": "profitAmount",
          "type": "uint256"
        }
      ],
      "name": "BreakPurchase",
      "type": "event"
    },
    {
      "anonymous": false,
      "inputs": [
        {
          "indexed": true,
          "internalType": "uint256",
          "name": "breakId",
          "type": "uint256"
        },
        {
          "indexed": false,
          "internalType": "string",
          "name": "name",
          "type": "string"
        },
        {
          "indexed": false,
          "internalType": "uint256",
          "name": "packCost",
          "type": "uint256"
        },
        {
          "indexed": false,
          "internalType": "uint256",
          "name": "packPrice",
          "type": "uint256"
        }
      ],
      "name": "BreakTypeAdded",
      "type": "event"
    },
    {
      "anonymous": false,
      "inputs": [
        {
          "indexed": true,
          "internalType": "uint256",
          "name": "breakId",
          "type": "uint256"
        },
        {
          "indexed": false,
          "internalType": "uint256",
          "name": "packCost",
          "type": "uint256"
        },
        {
          "indexed": false,
          "internalType": "uint256",
          "name": "packPrice",
          "type": "uint256"
        },
        {
          "indexed": false,
          "internalType": "bool",
          "name": "active",
          "type": "bool"
        }
      ],
      "name": "BreakTypeUpdated",
      "type": "event"
    },
    {
      "anonymous": false,
      "inputs": [
        {
          "indexed": true,
          "internalType": "uint256",
          "name": "cardId",
          "type": "uint256"
        },
        {
          "indexed": false,
          "internalType": "uint256",
          "name": "totalPayout",
          "type": "uint256"
        },
        {
          "indexed": false,
          "internalType": "uint256",
          "name": "platformFee",
          "type": "uint256"
        }
      ],
      "name": "BuyoutExecuted",
      "type": "event"
    },
    {
      "anonymous": false,
      "inputs": [
        {
          "indexed": true,
          "internalType": "uint256",
          "name": "cardId",
          "type": "uint256"
        },
        {
          "indexed": false,
          "internalType": "uint256",
          "name": "offerValue",
          "type": "uint256"
        },
        {
          "indexed": false,
          "internalType": "uint256",
          "name": "deadline",
          "type": "uint256"
        }
      ],
      "name": "BuyoutProposed",
      "type": "event"
    },
    {
      "anonymous": false,
      "inputs": [
        {
          "indexed": true,
          "internalType": "uint256",
          "name": "cardId",
          "type": "uint256"
        },
        {
          "indexed": true,
          "internalType": "address",
          "name": "voter",
          "type": "address"
        },
        {
          "indexed": false,
          "internalType": "bool",
          "name": "approved",
          "type": "bool"
        },
        {
          "indexed": false,
          "internalType": "uint256",
          "name": "votingPower",
          "type": "uint256"
        }
      ],
      "name": "BuyoutVoted",
      "type": "event"
    },
    {
      "anonymous": false,
      "inputs": [
        {
          "indexed": true,
          "internalType": "address",
          "name": "buyer",
          "type": "address"
        },
        {
          "indexed": true,
          "internalType": "uint256",
          "name": "cardId",
          "type": "uint256"
        },
        {
          "indexed": false,
          "internalType": "uint256",
          "name": "shares",
          "type": "uint256"
        },
        {
          "indexed": false,
          "internalType": "uint256",
          "name": "cost",
          "type": "uint256"
        }
      ],
      "name": "FractionsPurchased",
      "type": "event"
    },
    {
      "anonymous": false,
      "inputs": [
        {
          "indexed": true,
          "internalType": "uint256",
          "name": "preSaleId",
          "type": "uint256"
        },
        {
          "indexed": false,
          "internalType": "uint256",
          "name": "amountPaid",
          "type": "uint256"
        },
        {
          "indexed": false,
          "internalType": "uint256",
          "name": "remainingFunds",
          "type": "uint256"
        }
      ],
      "name": "InventoryAcquired",
      "type": "event"
    },
    {
      "anonymous": false,
      "inputs": [
        {
          "indexed": true,
          "internalType": "uint256",
          "name": "orderId",
          "type": "uint256"
        },
        {
          "indexed": true,
          "internalType": "address",
          "name": "buyer",
          "type": "address"
        },
        {
          "indexed": true,
          "internalType": "uint256",
          "name": "breakId",
          "type": "uint256"
        },
        {
          "indexed": false,
          "internalType": "uint256",
          "name": "quantity",
          "type": "uint256"
        },
        {
          "indexed": false,
          "internalType": "uint256",
          "name": "totalPaid",
          "type": "uint256"
        },
        {
          "indexed": false,
          "internalType": "uint256",
          "name": "timestamp",
          "type": "uint256"
        }
      ],
      "name": "OrderCreated",
      "type": "event"
    },
    {
      "anonymous": false,
      "inputs": [
        {
          "indexed": true,
          "internalType": "address",
          "name": "previousOwner",
          "type": "address"
        },
        {
          "indexed": true,
          "internalType": "address",
          "name": "newOwner",
          "type": "address"
        }
      ],
      "name": "OwnershipTransferred",
      "type": "event"
    },
    {
      "anonymous": false,
      "inputs": [
        {
          "indexed": false,
          "internalType": "address",
          "name": "account",
          "type": "address"
        }
      ],
      "name": "Paused",
      "type": "event"
    },
    {
      "anonymous": false,
      "inputs": [
        {
          "indexed": true,
          "internalType": "uint256",
          "name": "cardId",
          "type": "uint256"
        },
        {
          "indexed": true,
          "internalType": "address",
          "name": "recipient",
          "type": "address"
        },
        {
          "indexed": false,
          "internalType": "uint256",
          "name": "amount",
          "type": "uint256"
        }
      ],
      "name": "PayoutDistributed",
      "type": "event"
    },
    {
      "anonymous": false,
      "inputs": [
        {
          "indexed": true,
          "internalType": "uint256",
          "name": "preSaleId",
          "type": "uint256"
        },
        {
          "indexed": false,
          "internalType": "string",
          "name": "reason",
          "type": "string"
        }
      ],
      "name": "PreSaleCancelled",
      "type": "event"
    },
    {
      "anonymous": false,
      "inputs": [
        {
          "indexed": true,
          "internalType": "uint256",
          "name": "preSaleId",
          "type": "uint256"
        },
        {
          "indexed": false,
          "internalType": "string",
          "name": "name",
          "type": "string"
        },
        {
          "indexed": false,
          "internalType": "string",
          "name": "productType",
          "type": "string"
        },
        {
          "indexed": false,
          "internalType": "uint256",
          "name": "packsAvailable",
          "type": "uint256"
        },
        {
          "indexed": false,
          "internalType": "uint256",
          "name": "packPrice",
          "type": "uint256"
        },
        {
          "indexed": false,
          "internalType": "uint256",
          "name": "targetInventoryCost",
          "type": "uint256"
        },
        {
          "indexed": false,
          "internalType": "uint256",
          "name": "openDate",
          "type": "uint256"
        }
      ],
      "name": "PreSaleCreated",
      "type": "event"
    },
    {
      "anonymous": false,
      "inputs": [
        {
          "indexed": true,
          "internalType": "uint256",
          "name": "preSaleId",
          "type": "uint256"
        },
        {
          "indexed": false,
          "internalType": "uint256",
          "name": "breakId",
          "type": "uint256"
        }
      ],
      "name": "PreSaleLive",
      "type": "event"
    },
    {
      "anonymous": false,
      "inputs": [
        {
          "indexed": true,
          "internalType": "address",
          "name": "buyer",
          "type": "address"
        },
        {
          "indexed": true,
          "internalType": "uint256",
          "name": "preSaleId",
          "type": "uint256"
        },
        {
          "indexed": false,
          "internalType": "uint256",
          "name": "quantity",
          "type": "uint256"
        },
        {
          "indexed": false,
          "internalType": "uint256",
          "name": "totalPaid",
          "type": "uint256"
        }
      ],
      "name": "PreSalePurchase",
      "type": "event"
    },
    {
      "anonymous": false,
      "inputs": [
        {
          "indexed": true,
          "internalType": "address",
          "name": "buyer",
          "type": "address"
        },
        {
          "indexed": true,
          "internalType": "uint256",
          "name": "preSaleId",
          "type": "uint256"
        },
        {
          "indexed": false,
          "internalType": "uint256",
          "name": "amount",
          "type": "uint256"
        }
      ],
      "name": "RefundClaimed",
      "type": "event"
    },
    {
      "anonymous": false,
      "inputs": [
        {
          "indexed": true,
          "internalType": "uint256",
          "name": "breakId",
          "type": "uint256"
        },
        {
          "indexed": false,
          "internalType": "uint256",
          "name": "treasuryAmount",
          "type": "uint256"
        },
        {
          "indexed": false,
          "internalType": "uint256",
          "name": "operationsAmount",
          "type": "uint256"
        },
        {
          "indexed": false,
          "internalType": "uint256",
          "name": "tokenLiquidityAmount",
          "type": "uint256"
        },
        {
          "indexed": false,
          "internalType": "uint256",
          "name": "investmentAmount",
          "type": "uint256"
        }
      ],
      "name": "RevenueDistributed",
      "type": "event"
    },
    {
      "anonymous": false,
      "inputs": [
        {
          "indexed": false,
          "internalType": "address",
          "name": "account",
          "type": "address"
        }
      ],
      "name": "Unpaused",
      "type": "event"
    },
    {
      "inputs": [],
      "name": "BPS_DENOMINATOR",
      "outputs": [
        {
          "internalType": "uint256",
          "name": "",
          "type": "uint256"
        }
      ],
      "stateMutability": "view",
      "type": "function"
    },
    {
      "inputs": [],
      "name": "BUYOUT_FEE_BPS",
      "outputs": [
        {
          "internalType": "uint256",
          "name": "",
          "type": "uint256"
        }
      ],
      "stateMutability": "view",
      "type": "function"
    },
    {
      "inputs": [],
      "name": "INVESTMENT_SHARE",
      "outputs": [
        {
          "internalType": "uint256",
          "name": "",
          "type": "uint256"
        }
      ],
      "stateMutability": "view",
      "type": "function"
    },
    {
      "inputs": [],
      "name": "MAX_PRE_SALE_DURATION",
      "outputs": [
        {
          "internalType": "uint256",
          "name": "",
          "type": "uint256"
        }
      ],
      "stateMutability": "view",
      "type": "function"
    },
    {
      "inputs": [],
      "name": "OPERATIONS_SHARE",
      "outputs": [
        {
          "internalType": "uint256",
          "name": "",
          "type": "uint256"
        }
      ],
      "stateMutability": "view",
      "type": "function"
    },
    {
      "inputs": [],
      "name": "REFUND_WINDOW",
      "outputs": [
        {
          "internalType": "uint256",
          "name": "",
          "type": "uint256"
        }
      ],
      "stateMutability": "view",
      "type": "function"
    },
    {
      "inputs": [],
      "name": "TOKEN_LIQUIDITY_SHARE",
      "outputs": [
        {
          "internalType": "uint256",
          "name": "",
          "type": "uint256"
        }
      ],
      "stateMutability": "view",
      "type": "function"
    },
    {
      "inputs": [],
      "name": "TREASURY_SHARE",
      "outputs": [
        {
          "internalType": "uint256",
          "name": "",
          "type": "uint256"
        }
      ],
      "stateMutability": "view",
      "type": "function"
    },
    {
      "inputs": [
        {
          "internalType": "uint256",
          "name": "preSaleId",
          "type": "uint256"
        },
        {
          "internalType": "uint256",
          "name": "amountPaid",
          "type": "uint256"
        }
      ],
      "name": "acquireInventory",
      "outputs": [],
      "stateMutability": "nonpayable",
      "type": "function"
    },
    {
      "inputs": [
        {
          "internalType": "uint256",
          "name": "preSaleId",
          "type": "uint256"
        },
        {
          "internalType": "uint256",
          "name": "breakId",
          "type": "uint256"
        }
      ],
      "name": "activatePreSale",
      "outputs": [],
      "stateMutability": "nonpayable",
      "type": "function"
    },
    {
      "inputs": [
        {
          "internalType": "string",
          "name": "name",
          "type": "string"
        },
        {
          "internalType": "uint256",
          "name": "packCost",
          "type": "uint256"
        },
        {
          "internalType": "uint256",
          "name": "packPrice",
          "type": "uint256"
        }
      ],
      "name": "addBreakType",
      "outputs": [],
      "stateMutability": "nonpayable",
      "type": "function"
    },
    {
      "inputs": [
        {
          "internalType": "uint256",
          "name": "cardId",
          "type": "uint256"
        },
        {
          "internalType": "string",
          "name": "name",
          "type": "string"
        },
        {
          "internalType": "string",
          "name": "cardRef",
          "type": "string"
        },
        {
          "internalType": "uint256",
          "name": "vaultValue",
          "type": "uint256"
        },
        {
          "internalType": "uint256",
          "name": "totalShares",
          "type": "uint256"
        },
        {
          "internalType": "uint256",
          "name": "buyoutValue",
          "type": "uint256"
        }
      ],
      "name": "addCard",
      "outputs": [],
      "stateMutability": "nonpayable",
      "type": "function"
    },
    {
      "inputs": [
        {
          "internalType": "address",
          "name": "token",
          "type": "address"
        }
      ],
      "name": "addSupportedToken",
      "outputs": [],
      "stateMutability": "nonpayable",
      "type": "function"
    },
    {
      "inputs": [],
      "name": "breakTypeCount",
      "outputs": [
        {
          "internalType": "uint256",
          "name": "",
          "type": "uint256"
        }
      ],
      "stateMutability": "view",
      "type": "function"
    },
    {
      "inputs": [
        {
          "internalType": "uint256",
          "name": "",
          "type": "uint256"
        }
      ],
      "name": "breakTypes",
      "outputs": [
        {
          "internalType": "string",
          "name": "name",
          "type": "string"
        },
        {
          "internalType": "uint256",
          "name": "packCost",
          "type": "uint256"
        },
        {
          "internalType": "uint256",
          "name": "packPrice",
          "type": "uint256"
        },
        {
          "internalType": "bool",
          "name": "active",
          "type": "bool"
        }
      ],
      "stateMutability": "view",
      "type": "function"
    },
    {
      "inputs": [
        {
          "internalType": "uint256",
          "name": "",
          "type": "uint256"
        }
      ],
      "name": "buyoutProposals",
      "outputs": [
        {
          "internalType": "uint256",
          "name": "cardId",
          "type": "uint256"
        },
        {
          "internalType": "uint256",
          "name": "offerValue",
          "type": "uint256"
        },
        {
          "internalType": "uint256",
          "name": "votesFor",
          "type": "uint256"
        },
        {
          "internalType": "uint256",
          "name": "votesAgainst",
          "type": "uint256"
        },
        {
          "internalType": "uint256",
          "name": "deadline",
          "type": "uint256"
        },
        {
          "internalType": "bool",
          "name": "executed",
          "type": "bool"
        },
        {
          "internalType": "address",
          "name": "paymentToken",
          "type": "address"
        }
      ],
      "stateMutability": "view",
      "type": "function"
    },
    {
      "inputs": [
        {
          "internalType": "uint256",
          "name": "cardId",
          "type": "uint256"
        },
        {
          "internalType": "address",
          "name": "user",
          "type": "address"
        }
      ],
      "name": "calculateBuyoutPayout",
      "outputs": [
        {
          "internalType": "uint256",
          "name": "",
          "type": "uint256"
        }
      ],
      "stateMutability": "view",
      "type": "function"
    },
    {
      "inputs": [
        {
          "internalType": "uint256",
          "name": "preSaleId",
          "type": "uint256"
        },
        {
          "internalType": "string",
          "name": "reason",
          "type": "string"
        }
      ],
      "name": "cancelPreSale",
      "outputs": [],
      "stateMutability": "nonpayable",
      "type": "function"
    },
    {
      "inputs": [
        {
          "internalType": "uint256",
          "name": "",
          "type": "uint256"
        }
      ],
      "name": "cards",
      "outputs": [
        {
          "internalType": "string",
          "name": "name",
          "type": "string"
        },
        {
          "internalType": "string",
          "name": "cardId",
          "type": "string"
        },
        {
          "internalType": "uint256",
          "name": "vaultValue",
          "type": "uint256"
        },
        {
          "internalType": "uint256",
          "name": "totalShares",
          "type": "uint256"
        },
        {
          "internalType": "uint256",
          "name": "availableShares",
          "type": "uint256"
        },
        {
          "internalType": "uint256",
          "name": "buyoutValue",
          "type": "uint256"
        },
        {
          "internalType": "bool",
          "name": "active",
          "type": "bool"
        }
      ],
      "stateMutability": "view",
      "type": "function"
    },
    {
      "inputs": [
        {
          "internalType": "uint256",
          "name": "cardId",
          "type": "uint256"
        }
      ],
      "name": "claimBuyoutPayout",
      "outputs": [],
      "stateMutability": "nonpayable",
      "type": "function"
    },
    {
      "inputs": [
        {
          "internalType": "uint256",
          "name": "preSaleId",
          "type": "uint256"
        }
      ],
      "name": "claimPreSaleRefund",
      "outputs": [],
      "stateMutability": "nonpayable",
      "type": "function"
    },
    {
      "inputs": [
        {
          "internalType": "string",
          "name": "name",
          "type": "string"
        },
        {
          "internalType": "string",
          "name": "productType",
          "type": "string"
        },
        {
          "internalType": "uint256",
          "name": "packsAvailable",
          "type": "uint256"
        },
        {
          "internalType": "uint256",
          "name": "packPrice",
          "type": "uint256"
        },
        {
          "internalType": "uint256",
          "name": "targetInventoryCost",
          "type": "uint256"
        },
        {
          "internalType": "address",
          "name": "paymentToken",
          "type": "address"
        },
        {
          "internalType": "uint256",
          "name": "openDate",
          "type": "uint256"
        }
      ],
      "name": "createPreSale",
      "outputs": [
        {
          "internalType": "uint256",
          "name": "preSaleId",
          "type": "uint256"
        }
      ],
      "stateMutability": "nonpayable",
      "type": "function"
    },
    {
      "inputs": [],
      "name": "defaultPackCost",
      "outputs": [
        {
          "internalType": "uint256",
          "name": "",
          "type": "uint256"
        }
      ],
      "stateMutability": "view",
      "type": "function"
    },
    {
      "inputs": [],
      "name": "eVAULTDiscountBps",
      "outputs": [
        {
          "internalType": "uint256",
          "name": "",
          "type": "uint256"
        }
      ],
      "stateMutability": "view",
      "type": "function"
    },
    {
      "inputs": [],
      "name": "eVAULTToken",
      "outputs": [
        {
          "internalType": "address",
          "name": "",
          "type": "address"
        }
      ],
      "stateMutability": "view",
      "type": "function"
    },
    {
      "inputs": [
        {
          "internalType": "address",
          "name": "token",
          "type": "address"
        },
        {
          "internalType": "uint256",
          "name": "amount",
          "type": "uint256"
        }
      ],
      "name": "emergencyWithdraw",
      "outputs": [],
      "stateMutability": "nonpayable",
      "type": "function"
    },
    {
      "inputs": [
        {
          "internalType": "uint256",
          "name": "cardId",
          "type": "uint256"
        }
      ],
      "name": "getBuyoutProposal",
      "outputs": [
        {
          "internalType": "uint256",
          "name": "offerValue",
          "type": "uint256"
        },
        {
          "internalType": "uint256",
          "name": "votesFor",
          "type": "uint256"
        },
        {
          "internalType": "uint256",
          "name": "votesAgainst",
          "type": "uint256"
        },
        {
          "internalType": "uint256",
          "name": "deadline",
          "type": "uint256"
        },
        {
          "internalType": "bool",
          "name": "executed",
          "type": "bool"
        },
        {
          "internalType": "address",
          "name": "paymentToken",
          "type": "address"
        }
      ],
      "stateMutability": "view",
      "type": "function"
    },
    {
      "inputs": [
        {
          "internalType": "uint256",
          "name": "orderId",
          "type": "uint256"
        }
      ],
      "name": "getOrder",
      "outputs": [
        {
          "internalType": "uint256",
          "name": "id",
          "type": "uint256"
        },
        {
          "internalType": "address",
          "name": "buyer",
          "type": "address"
        },
        {
          "internalType": "uint256",
          "name": "breakId",
          "type": "uint256"
        },
        {
          "internalType": "uint256",
          "name": "quantity",
          "type": "uint256"
        },
        {
          "internalType": "uint256",
          "name": "totalPaid",
          "type": "uint256"
        },
        {
          "internalType": "uint256",
          "name": "timestamp",
          "type": "uint256"
        },
        {
          "internalType": "bool",
          "name": "fulfilled",
          "type": "bool"
        }
      ],
      "stateMutability": "view",
      "type": "function"
    },
    {
      "inputs": [
        {
          "internalType": "uint256",
          "name": "preSaleId",
          "type": "uint256"
        }
      ],
      "name": "getPreSale",
      "outputs": [
        {
          "internalType": "string",
          "name": "name",
          "type": "string"
        },
        {
          "internalType": "string",
          "name": "productType",
          "type": "string"
        },
        {
          "internalType": "uint256",
          "name": "packsAvailable",
          "type": "uint256"
        },
        {
          "internalType": "uint256",
          "name": "packsSold",
          "type": "uint256"
        },
        {
          "internalType": "uint256",
          "name": "packPrice",
          "type": "uint256"
        },
        {
          "internalType": "uint256",
          "name": "targetInventoryCost",
          "type": "uint256"
        },
        {
          "internalType": "uint256",
          "name": "fundsRaised",
          "type": "uint256"
        },
        {
          "internalType": "address",
          "name": "paymentToken",
          "type": "address"
        },
        {
          "internalType": "uint256",
          "name": "openDate",
          "type": "uint256"
        },
        {
          "internalType": "bool",
          "name": "inventoryAcquired",
          "type": "bool"
        },
        {
          "internalType": "bool",
          "name": "isLive",
          "type": "bool"
        },
        {
          "internalType": "bool",
          "name": "cancelled",
          "type": "bool"
        }
      ],
      "stateMutability": "view",
      "type": "function"
    },
    {
      "inputs": [
        {
          "internalType": "uint256",
          "name": "count",
          "type": "uint256"
        }
      ],
      "name": "getRecentOrders",
      "outputs": [
        {
          "internalType": "uint256[]",
          "name": "",
          "type": "uint256[]"
        }
      ],
      "stateMutability": "view",
      "type": "function"
    },
    {
      "inputs": [],
      "name": "getTotalOrders",
      "outputs": [
        {
          "internalType": "uint256",
          "name": "",
          "type": "uint256"
        }
      ],
      "stateMutability": "view",
      "type": "function"
    },
    {
      "inputs": [
        {
          "internalType": "address",
          "name": "user",
          "type": "address"
        }
      ],
      "name": "getUserBreakPurchases",
      "outputs": [
        {
          "internalType": "uint256[]",
          "name": "",
          "type": "uint256[]"
        }
      ],
      "stateMutability": "view",
      "type": "function"
    },
    {
      "inputs": [
        {
          "internalType": "address",
          "name": "user",
          "type": "address"
        }
      ],
      "name": "getUserOrders",
      "outputs": [
        {
          "internalType": "uint256[]",
          "name": "",
          "type": "uint256[]"
        }
      ],
      "stateMutability": "view",
      "type": "function"
    },
    {
      "inputs": [
        {
          "internalType": "uint256",
          "name": "cardId",
          "type": "uint256"
        },
        {
          "internalType": "address",
          "name": "user",
          "type": "address"
        }
      ],
      "name": "getUserOwnershipPercent",
      "outputs": [
        {
          "internalType": "uint256",
          "name": "",
          "type": "uint256"
        }
      ],
      "stateMutability": "view",
      "type": "function"
    },
    {
      "inputs": [
        {
          "internalType": "uint256",
          "name": "preSaleId",
          "type": "uint256"
        },
        {
          "internalType": "address",
          "name": "user",
          "type": "address"
        }
      ],
      "name": "getUserPreSalePurchase",
      "outputs": [
        {
          "internalType": "uint256",
          "name": "",
          "type": "uint256"
        }
      ],
      "stateMutability": "view",
      "type": "function"
    },
    {
      "inputs": [],
      "name": "inventoryFundWallet",
      "outputs": [
        {
          "internalType": "address",
          "name": "",
          "type": "address"
        }
      ],
      "stateMutability": "view",
      "type": "function"
    },
    {
      "inputs": [],
      "name": "investmentWallet",
      "outputs": [
        {
          "internalType": "address",
          "name": "",
          "type": "address"
        }
      ],
      "stateMutability": "view",
      "type": "function"
    },
    {
      "inputs": [],
      "name": "operationsWallet",
      "outputs": [
        {
          "internalType": "address",
          "name": "",
          "type": "address"
        }
      ],
      "stateMutability": "view",
      "type": "function"
    },
    {
      "inputs": [],
      "name": "orderCount",
      "outputs": [
        {
          "internalType": "uint256",
          "name": "",
          "type": "uint256"
        }
      ],
      "stateMutability": "view",
      "type": "function"
    },
    {
      "inputs": [
        {
          "internalType": "uint256",
          "name": "",
          "type": "uint256"
        }
      ],
      "name": "orders",
      "outputs": [
        {
          "internalType": "uint256",
          "name": "orderId",
          "type": "uint256"
        },
        {
          "internalType": "address",
          "name": "buyer",
          "type": "address"
        },
        {
          "internalType": "uint256",
          "name": "breakId",
          "type": "uint256"
        },
        {
          "internalType": "uint256",
          "name": "quantity",
          "type": "uint256"
        },
        {
          "internalType": "uint256",
          "name": "totalPaid",
          "type": "uint256"
        },
        {
          "internalType": "uint256",
          "name": "timestamp",
          "type": "uint256"
        },
        {
          "internalType": "bool",
          "name": "fulfilled",
          "type": "bool"
        }
      ],
      "stateMutability": "view",
      "type": "function"
    },
    {
      "inputs": [],
      "name": "owner",
      "outputs": [
        {
          "internalType": "address",
          "name": "",
          "type": "address"
        }
      ],
      "stateMutability": "view",
      "type": "function"
    },
    {
      "inputs": [],
      "name": "pause",
      "outputs": [],
      "stateMutability": "nonpayable",
      "type": "function"
    },
    {
      "inputs": [],
      "name": "paused",
      "outputs": [
        {
          "internalType": "bool",
          "name": "",
          "type": "bool"
        }
      ],
      "stateMutability": "view",
      "type": "function"
    },
    {
      "inputs": [],
      "name": "preSaleCount",
      "outputs": [
        {
          "internalType": "uint256",
          "name": "",
          "type": "uint256"
        }
      ],
      "stateMutability": "view",
      "type": "function"
    },
    {
      "inputs": [
        {
          "internalType": "uint256",
          "name": "",
          "type": "uint256"
        }
      ],
      "name": "preSales",
      "outputs": [
        {
          "internalType": "string",
          "name": "name",
          "type": "string"
        },
        {
          "internalType": "string",
          "name": "productType",
          "type": "string"
        },
        {
          "internalType": "uint256",
          "name": "packsAvailable",
          "type": "uint256"
        },
        {
          "internalType": "uint256",
          "name": "packsSold",
          "type": "uint256"
        },
        {
          "internalType": "uint256",
          "name": "packPrice",
          "type": "uint256"
        },
        {
          "internalType": "uint256",
          "name": "targetInventoryCost",
          "type": "uint256"
        },
        {
          "internalType": "uint256",
          "name": "fundsRaised",
          "type": "uint256"
        },
        {
          "internalType": "address",
          "name": "paymentToken",
          "type": "address"
        },
        {
          "internalType": "uint256",
          "name": "openDate",
          "type": "uint256"
        },
        {
          "internalType": "bool",
          "name": "inventoryAcquired",
          "type": "bool"
        },
        {
          "internalType": "bool",
          "name": "isLive",
          "type": "bool"
        },
        {
          "internalType": "bool",
          "name": "cancelled",
          "type": "bool"
        }
      ],
      "stateMutability": "view",
      "type": "function"
    },
    {
      "inputs": [
        {
          "internalType": "address",
          "name": "paymentToken",
          "type": "address"
        },
        {
          "internalType": "uint256",
          "name": "cardId",
          "type": "uint256"
        }
      ],
      "name": "proposeBuyout",
      "outputs": [],
      "stateMutability": "nonpayable",
      "type": "function"
    },
    {
      "inputs": [
        {
          "internalType": "address",
          "name": "paymentToken",
          "type": "address"
        },
        {
          "internalType": "uint256",
          "name": "breakId",
          "type": "uint256"
        },
        {
          "internalType": "uint256",
          "name": "quantity",
          "type": "uint256"
        }
      ],
      "name": "purchaseBreakPacks",
      "outputs": [],
      "stateMutability": "nonpayable",
      "type": "function"
    },
    {
      "inputs": [
        {
          "internalType": "uint256",
          "name": "breakId",
          "type": "uint256"
        },
        {
          "internalType": "uint256",
          "name": "quantity",
          "type": "uint256"
        }
      ],
      "name": "purchaseBreakPacksWithEVAULT",
      "outputs": [],
      "stateMutability": "nonpayable",
      "type": "function"
    },
    {
      "inputs": [
        {
          "internalType": "address",
          "name": "paymentToken",
          "type": "address"
        },
        {
          "internalType": "uint256",
          "name": "cardId",
          "type": "uint256"
        },
        {
          "internalType": "uint256",
          "name": "shares",
          "type": "uint256"
        }
      ],
      "name": "purchaseFractions",
      "outputs": [],
      "stateMutability": "nonpayable",
      "type": "function"
    },
    {
      "inputs": [
        {
          "internalType": "uint256",
          "name": "cardId",
          "type": "uint256"
        },
        {
          "internalType": "uint256",
          "name": "shares",
          "type": "uint256"
        }
      ],
      "name": "purchaseFractionsWithEVAULT",
      "outputs": [],
      "stateMutability": "nonpayable",
      "type": "function"
    },
    {
      "inputs": [
        {
          "internalType": "uint256",
          "name": "preSaleId",
          "type": "uint256"
        },
        {
          "internalType": "uint256",
          "name": "quantity",
          "type": "uint256"
        }
      ],
      "name": "purchasePreSale",
      "outputs": [],
      "stateMutability": "nonpayable",
      "type": "function"
    },
    {
      "inputs": [
        {
          "internalType": "address",
          "name": "token",
          "type": "address"
        }
      ],
      "name": "removeSupportedToken",
      "outputs": [],
      "stateMutability": "nonpayable",
      "type": "function"
    },
    {
      "inputs": [],
      "name": "renounceOwnership",
      "outputs": [],
      "stateMutability": "nonpayable",
      "type": "function"
    },
    {
      "inputs": [],
      "name": "rewardsPool",
      "outputs": [
        {
          "internalType": "address",
          "name": "",
          "type": "address"
        }
      ],
      "stateMutability": "view",
      "type": "function"
    },
    {
      "inputs": [
        {
          "internalType": "uint256",
          "name": "discountBps",
          "type": "uint256"
        }
      ],
      "name": "setEVAULTDiscount",
      "outputs": [],
      "stateMutability": "nonpayable",
      "type": "function"
    },
    {
      "inputs": [
        {
          "internalType": "address",
          "name": "_eVAULT",
          "type": "address"
        }
      ],
      "name": "setEVAULTToken",
      "outputs": [],
      "stateMutability": "nonpayable",
      "type": "function"
    },
    {
      "inputs": [
        {
          "internalType": "address",
          "name": "_wallet",
          "type": "address"
        }
      ],
      "name": "setInventoryFundWallet",
      "outputs": [],
      "stateMutability": "nonpayable",
      "type": "function"
    },
    {
      "inputs": [
        {
          "internalType": "uint256",
          "name": "_packCost",
          "type": "uint256"
        }
      ],
      "name": "setPackCost",
      "outputs": [],
      "stateMutability": "nonpayable",
      "type": "function"
    },
    {
      "inputs": [
        {
          "internalType": "address",
          "name": "_rewardsPool",
          "type": "address"
        }
      ],
      "name": "setRewardsPool",
      "outputs": [],
      "stateMutability": "nonpayable",
      "type": "function"
    },
    {
      "inputs": [
        {
          "internalType": "address",
          "name": "",
          "type": "address"
        }
      ],
      "name": "supportedTokens",
      "outputs": [
        {
          "internalType": "bool",
          "name": "",
          "type": "bool"
        }
      ],
      "stateMutability": "view",
      "type": "function"
    },
    {
      "inputs": [],
      "name": "tokenLiquidityWallet",
      "outputs": [
        {
          "internalType": "address",
          "name": "",
          "type": "address"
        }
      ],
      "stateMutability": "view",
      "type": "function"
    },
    {
      "inputs": [
        {
          "internalType": "address",
          "name": "newOwner",
          "type": "address"
        }
      ],
      "name": "transferOwnership",
      "outputs": [],
      "stateMutability": "nonpayable",
      "type": "function"
    },
    {
      "inputs": [],
      "name": "treasuryWallet",
      "outputs": [
        {
          "internalType": "address",
          "name": "",
          "type": "address"
        }
      ],
      "stateMutability": "view",
      "type": "function"
    },
    {
      "inputs": [],
      "name": "unpause",
      "outputs": [],
      "stateMutability": "nonpayable",
      "type": "function"
    },
    {
      "inputs": [
        {
          "internalType": "uint256",
          "name": "breakId",
          "type": "uint256"
        },
        {
          "internalType": "uint256",
          "name": "packCost",
          "type": "uint256"
        },
        {
          "internalType": "uint256",
          "name": "packPrice",
          "type": "uint256"
        },
        {
          "internalType": "bool",
          "name": "active",
          "type": "bool"
        }
      ],
      "name": "updateBreakType",
      "outputs": [],
      "stateMutability": "nonpayable",
      "type": "function"
    },
    {
      "inputs": [
        {
          "internalType": "uint256",
          "name": "cardId",
          "type": "uint256"
        },
        {
          "internalType": "uint256",
          "name": "newAvailableShares",
          "type": "uint256"
        }
      ],
      "name": "updateCardAvailability",
      "outputs": [],
      "stateMutability": "nonpayable",
      "type": "function"
    },
    {
      "inputs": [
        {
          "internalType": "address",
          "name": "_treasury",
          "type": "address"
        },
        {
          "internalType": "address",
          "name": "_operations",
          "type": "address"
        },
        {
          "internalType": "address",
          "name": "_tokenLiquidity",
          "type": "address"
        },
        {
          "internalType": "address",
          "name": "_investment",
          "type": "address"
        }
      ],
      "name": "updateRevenueWallets",
      "outputs": [],
      "stateMutability": "nonpayable",
      "type": "function"
    },
    {
      "inputs": [
        {
          "internalType": "address",
          "name": "",
          "type": "address"
        },
        {
          "internalType": "uint256",
          "name": "",
          "type": "uint256"
        }
      ],
      "name": "userBreakPurchases",
      "outputs": [
        {
          "internalType": "uint256",
          "name": "",
          "type": "uint256"
        }
      ],
      "stateMutability": "view",
      "type": "function"
    },
    {
      "inputs": [
        {
          "internalType": "address",
          "name": "",
          "type": "address"
        },
        {
          "internalType": "uint256",
          "name": "",
          "type": "uint256"
        }
      ],
      "name": "userOrders",
      "outputs": [
        {
          "internalType": "uint256",
          "name": "",
          "type": "uint256"
        }
      ],
      "stateMutability": "view",
      "type": "function"
    },
    {
      "inputs": [
        {
          "internalType": "uint256",
          "name": "",
          "type": "uint256"
        },
        {
          "internalType": "address",
          "name": "",
          "type": "address"
        }
      ],
      "name": "userOwnership",
      "outputs": [
        {
          "internalType": "uint256",
          "name": "sharesOwned",
          "type": "uint256"
        },
        {
          "internalType": "uint256",
          "name": "lastPurchaseTime",
          "type": "uint256"
        }
      ],
      "stateMutability": "view",
      "type": "function"
    },
    {
      "inputs": [
        {
          "internalType": "uint256",
          "name": "cardId",
          "type": "uint256"
        },
        {
          "internalType": "bool",
          "name": "approve",
          "type": "bool"
        }
      ],
      "name": "voteOnBuyout",
      "outputs": [],
      "stateMutability": "nonpayable",
      "type": "function"
    }
  ],
  "bytecode": "0x6080604052678ac7230489e80000600a556101f46012553480156200002357600080fd5b5060405162004c3e38038062004c3e83398101604081905262000046916200026a565b6200005133620001fd565b600180556002805460ff191690556001600160a01b038416620000ae5760405162461bcd60e51b815260206004820152601060248201526f496e76616c696420747265617375727960801b60448201526064015b60405180910390fd5b6001600160a01b038316620000fb5760405162461bcd60e51b8152602060048201526012602482015271496e76616c6964206f7065726174696f6e7360701b6044820152606401620000a5565b6001600160a01b038216620001535760405162461bcd60e51b815260206004820152601760248201527f496e76616c696420746f6b656e206c69717569646974790000000000000000006044820152606401620000a5565b6001600160a01b038116620001a05760405162461bcd60e51b8152602060048201526012602482015271125b9d985b1a59081a5b9d995cdd1b595b9d60721b6044820152606401620000a5565b600280546001600160a01b0395861661010002610100600160a81b0319909116179055600380549385166001600160a01b0319948516179055600480549285169284169290921790915560058054919093169116179055620002c7565b600080546001600160a01b038381166001600160a01b0319831681178455604051919092169283917f8be0079c531659141344cd1fd0a4f28419497f9722a3daafe3b4186f6b6457e09190a35050565b80516001600160a01b03811681146200026557600080fd5b919050565b600080600080608085870312156200028157600080fd5b6200028c856200024d565b93506200029c602086016200024d565b9250620002ac604086016200024d565b9150620002bc606086016200024d565b905092959194509250565b61496780620002d76000396000f3fe608060405234801561001057600080fd5b506004361061041d5760003560e01c806385d859661161022b578063d191d7f411610130578063eca34258116100b8578063fbafa97911610087578063fbafa97914610b0e578063fbd5168214610b17578063fd29f2b314610b21578063fd72e22a14610b34578063fe98b8ce14610b4757600080fd5b8063eca3425814610ac2578063f236afdf14610ad5578063f2fde38b14610ae8578063f3e7ba9f14610afb57600080fd5b8063de0ec164116100ff578063de0ec16414610a77578063e1a4521814610a80578063e2aa129414610a89578063ea801f5e14610a9c578063eba9c7ff14610aaf57600080fd5b8063d191d7f4146109b0578063d4d766e614610a49578063d701b6c014610a5c578063d9589c5f14610a6457600080fd5b8063a85c38ef116101b3578063bb6692e311610182578063bb6692e3146109b0578063c07deb33146109b8578063c4b532ab146109cb578063c73bfe6e146109de578063d09ef241146109f157600080fd5b8063a85c38ef146108e0578063ad1609cb14610977578063ae1351361461098a578063b6fa37bc1461099d57600080fd5b80639046306d116101fa5780639046306d146107f057806395ccea671461087c5780639be95ff21461088f5780639cacdf70146108a2578063a207b5bb146108cd57600080fd5b806385d859661461076c5780638da5cb5b1461077f5780638dc10768146107905780638dd51e2a146107b657600080fd5b80634811bc4b11610331578063715018a6116102b95780637c7116ea116102885780637c7116ea146106955780637e0c4c891461072b578063843de9991461073e5780638456cb5914610751578063856652e91461075957600080fd5b8063715018a61461065457806375abe3ef1461065c578063763191901461066f5780637c0002931461068257600080fd5b806363c69f081161030057806363c69f08146105e5578063676c4631146105f857806368c4ac261461060b5780636d69fcaf1461062e5780636eda90d01461064157600080fd5b80634811bc4b14610554578063553cb0de146105745780635571251e146105875780635c975abb146105ce57600080fd5b80632ed748ad116103b4578063375f16a711610383578063375f16a7146105105780633a0d727c146105185780633f4ba83a146105215780633fbfabb0146105295780634626402b1461053c57600080fd5b80632ed748ad146104da57806331db2489146104e257806332696174146104f5578063356221b8146104fd57600080fd5b806323fd530d116103f057806323fd530d14610492578063244cfd98146104a55780632453ffa8146104c857806325c26786146104d157600080fd5b80630359fea9146104225780630c40ed3e146104525780631153b5f3146104675780631c6f902c1461047f575b600080fd5b600654610435906001600160a01b031681565b6040516001600160a01b0390911681526020015b60405180910390f35b610465610460366004613fc5565b610b5a565b005b61047162278d0081565b604051908152602001610449565b61047161048d366004614022565b610c9c565b6104656104a036600461404e565b610d61565b6104b86104b3366004614070565b61101c565b60405161044994939291906140d9565b610471600e5481565b610471600c5481565b610471600a81565b6104656104f036600461404e565b6110d1565b610471603281565b61046561050b36600461404e565b611300565b600e54610471565b61047160125481565b6104656114cd565b6104656105373660046141ad565b6114df565b6002546104359061010090046001600160a01b031681565b610567610562366004614070565b611686565b60405161044991906141fb565b610465610582366004614070565b61173f565b6105b9610595366004614022565b60146020908152600092835260408084209091529082529020805460019091015482565b60408051928352602083019190915201610449565b60025460ff165b6040519015158152602001610449565b6105676105f336600461423f565b61174c565b61046561060636600461404e565b6117b8565b6105d561061936600461423f565b60106020526000908152604090205460ff1681565b61046561063c36600461423f565b611806565b61047161064f366004614261565b611832565b610465611ae3565b601154610435906001600160a01b031681565b61046561067d36600461423f565b611af5565b61046561069036600461423f565b611b1e565b6106eb6106a3366004614070565b601560205260009081526040902080546001820154600283015460038401546004850154600590950154939492939192909160ff81169061010090046001600160a01b031687565b6040805197885260208801969096529486019390935260608501919091526080840152151560a08301526001600160a01b031660c082015260e001610449565b61046561073936600461423f565b611b6e565b61046561074c3660046142fc565b611bd6565b610465611d87565b6104716107673660046142fc565b611d97565b61056761077a36600461423f565b611dc8565b6000546001600160a01b0316610435565b6107a361079e366004614070565b611e32565b6040516104499796959493929190614326565b6104716107c4366004614022565b60008281526007602090815260408083206001600160a01b0385168452600a0190915290205492915050565b6108446107fe366004614070565b60009081526015602052604090206001810154600282015460038301546004840154600590940154929491939092909160ff82169161010090046001600160a01b031690565b604080519687526020870195909552938501929092526060840152151560808301526001600160a01b031660a082015260c001610449565b61046561088a3660046142fc565b611f80565b61046561089d36600461423f565b611fae565b6108b56108b0366004614070565b611ffe565b6040516104499c9b9a99989796959493929190614378565b6104716108db366004614022565b6121c5565b6109386108ee366004614070565b600d60205260009081526040902080546001820154600283015460038401546004850154600586015460069096015494956001600160a01b03909416949293919290919060ff1687565b604080519788526001600160a01b039096166020880152948601939093526060850191909152608084015260a0830152151560c082015260e001610449565b600954610435906001600160a01b031681565b600454610435906001600160a01b031681565b600554610435906001600160a01b031681565b610471601481565b6104656109c636600461404e565b612228565b6104656109d9366004614407565b6123a9565b6104656109ec36600461445b565b61253f565b6109386109ff366004614070565b6000908152600d6020526040902080546001820154600283015460038401546004850154600586015460069096015494966001600160a01b03909416959294919390929160ff1690565b610465610a573660046144e4565b612652565b61047160fa81565b6108b5610a72366004614070565b61288c565b61047160085481565b61047161271081565b610465610a97366004614517565b612a0c565b610465610aaa366004614547565b612ca4565b610465610abd36600461404e565b612da8565b610465610ad0366004614070565b61303a565b610465610ae33660046144e4565b61324d565b610465610af636600461423f565b6135ae565b610465610b09366004614070565b613624565b610471600a5481565b6104716276a70081565b610471610b2f3660046142fc565b613676565b600354610435906001600160a01b031681565b610465610b55366004614070565b613692565b610b62613850565b600c548410610b8c5760405162461bcd60e51b8152600401610b839061458e565b60405180910390fd5b60008311610bd45760405162461bcd60e51b815260206004820152601560248201527405061636b20636f7374206d757374206265203e203605c1b6044820152606401610b83565b828211610c235760405162461bcd60e51b815260206004820152601b60248201527f53616c65207072696365206d7573742065786365656420636f737400000000006044820152606401610b83565b6000848152600b6020908152604091829020600181018690556002810185905560038101805485151560ff199091168117909155835187815292830186905282840152915186917fac6e27ce80ce8946cf201045368e957c80b775537bb5d8ff8da2d18a61530e8c919081900360600190a25050505050565b60008281526015602052604081206005015460ff16610cbd57506000610d5b565b60008381526014602090815260408083206001600160a01b038616845290915281205490819003610cf2576000915050610d5b565b60008481526015602052604081206001015490612710610d1360fa846145ce565b610d1d91906145e5565b90506000610d2b8284614607565b600088815260136020526040902060030154909150610d4a85836145ce565b610d5491906145e5565b9450505050505b92915050565b610d696138aa565b610d71613903565b6011546001600160a01b0316610dba5760405162461bcd60e51b815260206004820152600e60248201526d195590555315081b9bdd081cd95d60921b6044820152606401610b83565b60008281526013602052604090206006015460ff16610deb5760405162461bcd60e51b8152600401610b839061461a565b60008111610e305760405162461bcd60e51b81526020600482015260126024820152710536861726573206d757374206265203e20360741b6044820152606401610b83565b600082815260136020526040902060040154811115610e855760405162461bcd60e51b81526020600482015260116024820152704e6f7420656e6f7567682073686172657360781b6044820152606401610b83565b600082815260136020526040812060038101546002820154919291610eaa91906145e5565b90506000610eb882856145ce565b9050600061271060125483610ecd91906145ce565b610ed791906145e5565b90506000610ee58284614607565b601154909150610f00906001600160a01b0316333084613949565b601154604051632770a7eb60e21b8152306004820152602481018390526001600160a01b0390911690639dc29fac90604401600060405180830381600087803b158015610f4c57600080fd5b505af1158015610f60573d6000803e3d6000fd5b505050600088815260146020908152604080832033845290915281208054899350909190610f8f908490614643565b90915550506000878152601460209081526040808320338452909152812042600190910155600486018054889290610fc8908490614607565b90915550506040805187815260208101839052889133917fec7a90f2defdaa104c0f263369120ee24cba82876ef97c2eaf6e4e7150ec9c75910160405180910390a3505050505061101860018055565b5050565b600b6020526000908152604090208054819061103790614656565b80601f016020809104026020016040519081016040528092919081815260200182805461106390614656565b80156110b05780601f10611085576101008083540402835291602001916110b0565b820191906000526020600020905b81548152906001019060200180831161109357829003601f168201915b50505050600183015460028401546003909401549293909290915060ff1684565b6110d96138aa565b6110e1613903565b6011546001600160a01b031661112a5760405162461bcd60e51b815260206004820152600e60248201526d195590555315081b9bdd081cd95d60921b6044820152606401610b83565b6000811161114a5760405162461bcd60e51b8152600401610b8390614690565b600c54821061116b5760405162461bcd60e51b8152600401610b839061458e565b6000828152600b60205260409020600381015460ff166111c55760405162461bcd60e51b8152602060048201526015602482015274427265616b2074797065206e6f742061637469766560581b6044820152606401610b83565b6002810154600182015460006111db83866145ce565b90506000612710601254836111f091906145ce565b6111fa91906145e5565b905060006112088284614607565b9050600061121685896145ce565b905060006112248286614607565b60115490915061123f906001600160a01b0316333086613949565b601154604051632770a7eb60e21b8152306004820152602481018590526001600160a01b0390911690639dc29fac90604401600060405180830381600087803b15801561128b57600080fd5b505af115801561129f573d6000803e3d6000fd5b5050604080518c815260208101879052908101859052606081018490528c92503391507f51c2e969e2549ae7c12274abef504843bee3a73c58dbe871c26eb9fc01d7043b9060800160405180910390a3505050505050505061101860018055565b611308613850565b6113106138aa565b6000828152600760205260409020600981015462010000900460ff16156113495760405162461bcd60e51b8152600401610b83906146be565b600981015460ff16156113915760405162461bcd60e51b815260206004820152601060248201526f105b1c9958591e481858dc5d5a5c995960821b6044820152606401610b83565b80600601548211156113e55760405162461bcd60e51b815260206004820152601b60248201527f416d6f756e7420657863656564732066756e64732072616973656400000000006044820152606401610b83565b6009808201805460ff19166001179055600782015490546001600160a01b0391821691166114505760405162461bcd60e51b8152602060048201526018602482015277125b9d995b9d1bdc9e481dd85b1b195d081b9bdd081cd95d60421b6044820152606401610b83565b600954600354611471916001600160a01b0384811692918116911686613949565b60008383600601546114839190614607565b604080518681526020810183905291925086917f953fce1f162c4f2f4a3b4cb10f2a14bcffc4de51a19968857dbe3a89b9e2358f910160405180910390a250505061101860018055565b6114d5613850565b6114dd6139ba565b565b6114e7613850565b60008351116115285760405162461bcd60e51b815260206004820152600d60248201526c13985b59481c995c5d5a5c9959609a1b6044820152606401610b83565b600082116115705760405162461bcd60e51b815260206004820152601560248201527405061636b20636f7374206d757374206265203e203605c1b6044820152606401610b83565b8181116115bf5760405162461bcd60e51b815260206004820152601b60248201527f53616c65207072696365206d7573742065786365656420636f737400000000006044820152606401610b83565b600c54604080516080810182528581526020808201869052818301859052600160608301526000848152600b90915291909120815181906116009082614730565b5060208201516001820155604082015160028201556060909101516003909101805460ff1916911515919091179055600c805490600061163f836147f0565b9190505550807f61693a31ba710b04ca42208bfa45512ff9fdf0dcac63519599bcc3657a18fc2d85858560405161167893929190614809565b60405180910390a250505050565b600e54606090600081841161169b578361169d565b815b905060008167ffffffffffffffff8111156116ba576116ba61410a565b6040519080825280602002602001820160405280156116e3578160200160208202803683370190505b50905060005b8281101561173657806116fd600186614607565b6117079190614607565b8282815181106117195761171961482e565b60209081029190910101528061172e816147f0565b9150506116e9565b50949350505050565b611747613850565b600a55565b6001600160a01b0381166000908152600f60209081526040918290208054835181840281018401909452808452606093928301828280156117ac57602002820191906000526020600020905b815481526020019060010190808311611798575b50505050509050919050565b6117c0613850565b60008281526013602052604090206006015460ff166117f15760405162461bcd60e51b8152600401610b839061461a565b60009182526013602052604090912060040155565b61180e613850565b6001600160a01b03166000908152601060205260409020805460ff19166001179055565b600061183c613850565b6001600160a01b03831660009081526010602052604090205460ff166118745760405162461bcd60e51b8152600401610b8390614844565b600086116118c45760405162461bcd60e51b815260206004820152601960248201527f4d7573742068617665207061636b7320617661696c61626c65000000000000006044820152606401610b83565b6000851161190d5760405162461bcd60e51b815260206004820152601660248201527505061636b207072696365206d757374206265203e20360541b6044820152606401610b83565b6000841161195d5760405162461bcd60e51b815260206004820152601a60248201527f496e76656e746f727920636f7374206d757374206265203e20300000000000006044820152606401610b83565b4282116119ac5760405162461bcd60e51b815260206004820152601860248201527f4f70656e2064617465206d7573742062652066757475726500000000000000006044820152606401610b83565b6119b96276a70042614643565b821115611a085760405162461bcd60e51b815260206004820152601b60248201527f4f70656e206461746520746f6f2066617220696e2066757475726500000000006044820152606401610b83565b60088054906000611a18836147f0565b9091555050600854600081815260076020526040902090915080611a3c8a82614730565b5060018101611a4b8982614730565b506002810187905560048101869055600581018590556007810180546001600160a01b0319166001600160a01b0386161790556008810183905560098101805462ffffff1916905560405182907fc5ce427637f2bee38f45dc70c577124976472bd3f5cbd7f003864bc3937d4e3e90611acf908c908c908c908c908c908b90614871565b60405180910390a250979650505050505050565b611aeb613850565b6114dd6000613a0c565b611afd613850565b6001600160a01b03166000908152601060205260409020805460ff19169055565b611b26613850565b6001600160a01b038116611b4c5760405162461bcd60e51b8152600401610b83906148bc565b600680546001600160a01b0319166001600160a01b0392909216919091179055565b611b76613850565b6001600160a01b038116611b9c5760405162461bcd60e51b8152600401610b83906148bc565b601180546001600160a01b039092166001600160a01b0319909216821790556000908152601060205260409020805460ff19166001179055565b611bde6138aa565b611be6613903565b6001600160a01b03821660009081526010602052604090205460ff16611c1e5760405162461bcd60e51b8152600401610b8390614844565b60008181526013602052604090206006015460ff16611c4f5760405162461bcd60e51b8152600401610b839061461a565b60008181526015602052604090206004810154421180611c735750600581015460ff165b611cb85760405162461bcd60e51b81526020600482015260166024820152754163746976652070726f706f73616c2065786973747360501b6044820152606401610b83565b6000828152601360205260409020600581015484611ce16001600160a01b038216333085613949565b600085815260156020526040812086815560018101849055600281018290556003810191909155611d154262093a80614643565b600482018190556005820180546001600160a81b0319166101006001600160a01b038b160217905560408051858152602081019290925287917f468b6bbeeb7c3c51b31ba6afa4133fd0f4d56180566dc82bf1b6a2f469f458b3910160405180910390a2505050505061101860018055565b611d8f613850565b6114dd613a5c565b600f6020528160005260406000208181548110611db357600080fd5b90600052602060002001600091509150505481565b6001600160a01b0381166000908152601660209081526040918290208054835181840281018401909452808452606093928301828280156117ac57602002820191906000526020600020908154815260200190600101908083116117985750505050509050919050565b601360205260009081526040902080548190611e4d90614656565b80601f0160208091040260200160405190810160405280929190818152602001828054611e7990614656565b8015611ec65780601f10611e9b57610100808354040283529160200191611ec6565b820191906000526020600020905b815481529060010190602001808311611ea957829003601f168201915b505050505090806001018054611edb90614656565b80601f0160208091040260200160405190810160405280929190818152602001828054611f0790614656565b8015611f545780601f10611f2957610100808354040283529160200191611f54565b820191906000526020600020905b815481529060010190602001808311611f3757829003601f168201915b505050600284015460038501546004860154600587015460069097015495969295919450925060ff1687565b611f88613850565b611018611f9d6000546001600160a01b031690565b6001600160a01b0384169083613a99565b611fb6613850565b6001600160a01b038116611fdc5760405162461bcd60e51b8152600401610b83906148bc565b600980546001600160a01b0319166001600160a01b0392909216919091179055565b60008181526007602081905260408220600281015460038201546004830154600584015460068501549585015460088601546009870154875460609a8b9a90998a998a998a998a998a998a998a998a998a99899860018a0198909790969095909491936001600160a01b039091169260ff80831692610100810482169262010000909104909116908c9061209190614656565b80601f01602080910402602001604051908101604052809291908181526020018280546120bd90614656565b801561210a5780601f106120df5761010080835404028352916020019161210a565b820191906000526020600020905b8154815290600101906020018083116120ed57829003601f168201915b50505050509b508a805461211d90614656565b80601f016020809104026020016040519081016040528092919081815260200182805461214990614656565b80156121965780601f1061216b57610100808354040283529160200191612196565b820191906000526020600020905b81548152906001019060200180831161217957829003601f168201915b50505050509a509c509c509c509c509c509c509c509c509c509c509c509c505091939597999b5091939597999b565b60008281526014602090815260408083206001600160a01b03851684529091528120548082036121f9576000915050610d5b565b6000848152601360205260409020600301546122168260646145ce565b61222091906145e5565b949350505050565b612230613850565b6000828152600760205260409020600981015462010000900460ff16156122695760405162461bcd60e51b8152600401610b83906146be565b600981015460ff166122b65760405162461bcd60e51b8152602060048201526016602482015275125b9d995b9d1bdc9e481b9bdd081858dc5d5a5c995960521b6044820152606401610b83565b6009810154610100900460ff16156122ff5760405162461bcd60e51b815260206004820152600c60248201526b416c7265616479206c69766560a01b6044820152606401610b83565b60098101805461ff00191661010017905560068101541561236a576007810154600a5460038301546001600160a01b039092169160009161233f916145ce565b905060008184600601546123539190614607565b9050801561236657612366838287613ac9565b5050505b827f368cd451e59d0e471924b1c520ef809cce3afed79e45970586f6b0643dd544e48360405161239c91815260200190565b60405180910390a2505050565b6123b1613850565b6001600160a01b0384166123fa5760405162461bcd60e51b815260206004820152601060248201526f496e76616c696420747265617375727960801b6044820152606401610b83565b6001600160a01b0383166124455760405162461bcd60e51b8152602060048201526012602482015271496e76616c6964206f7065726174696f6e7360701b6044820152606401610b83565b6001600160a01b03821661249b5760405162461bcd60e51b815260206004820152601760248201527f496e76616c696420746f6b656e206c69717569646974790000000000000000006044820152606401610b83565b6001600160a01b0381166124e65760405162461bcd60e51b8152602060048201526012602482015271125b9d985b1a59081a5b9d995cdd1b595b9d60721b6044820152606401610b83565b600280546001600160a01b0395861661010002610100600160a81b0319909116179055600380549385166001600160a01b0319948516179055600480549285169284169290921790915560058054919093169116179055565b612547613850565b60008681526013602052604090206006015460ff161561259f5760405162461bcd60e51b81526020600482015260136024820152724361726420616c72656164792065786973747360681b6044820152606401610b83565b6040805160e0810182528681526020808201879052818301869052606082018590526080820185905260a08201849052600160c08301526000898152601390915291909120815181906125f29082614730565b50602082015160018201906126079082614730565b5060408201516002820155606082015160038201556080820151600482015560a0820151600582015560c0909101516006909101805460ff1916911515919091179055505050505050565b61265a6138aa565b612662613903565b6001600160a01b03831660009081526010602052604090205460ff1661269a5760405162461bcd60e51b8152600401610b8390614844565b60008281526013602052604090206006015460ff166126cb5760405162461bcd60e51b8152600401610b839061461a565b600081116127105760405162461bcd60e51b81526020600482015260126024820152710536861726573206d757374206265203e20360741b6044820152606401610b83565b6000828152601360205260409020600401548111156127715760405162461bcd60e51b815260206004820152601b60248201527f4e6f7420656e6f7567682073686172657320617661696c61626c6500000000006044820152606401610b83565b60008281526013602052604081206003810154600282015491929161279691906145e5565b905060006127a482856145ce565b9050856127bc6001600160a01b038216333085613949565b6000868152601460209081526040808320338452909152812080548792906127e5908490614643565b9091555050600086815260146020908152604080832033845290915281204260019091015560048501805487929061281e908490614607565b909155505060035461283d906001600160a01b03838116911684613a99565b6040805186815260208101849052879133917fec7a90f2defdaa104c0f263369120ee24cba82876ef97c2eaf6e4e7150ec9c75910160405180910390a35050505061288760018055565b505050565b6007602052600090815260409020805481906128a790614656565b80601f01602080910402602001604051908101604052809291908181526020018280546128d390614656565b80156129205780601f106128f557610100808354040283529160200191612920565b820191906000526020600020905b81548152906001019060200180831161290357829003601f168201915b50505050509080600101805461293590614656565b80601f016020809104026020016040519081016040528092919081815260200182805461296190614656565b80156129ae5780601f10612983576101008083540402835291602001916129ae565b820191906000526020600020905b81548152906001019060200180831161299157829003601f168201915b505050506002830154600384015460048501546005860154600687015460078801546008890154600990990154979895979496509294919390926001600160a01b0316919060ff80821691610100810482169162010000909104168c565b612a146138aa565b612a1c613903565b600082815260156020526040902080548314612a6f5760405162461bcd60e51b8152602060048201526012602482015271139bc81858dd1a5d99481c1c9bdc1bdcd85b60721b6044820152606401610b83565b80600401544210612ab85760405162461bcd60e51b8152602060048201526013602482015272159bdd1a5b99c81c195c9a5bd908195b991959606a1b6044820152606401610b83565b600581015460ff1615612b005760405162461bcd60e51b815260206004820152601060248201526f105b1c9958591e48195e1958dd5d195960821b6044820152606401610b83565b33600090815260068201602052604090205460ff1615612b525760405162461bcd60e51b815260206004820152600d60248201526c105b1c9958591e481d9bdd1959609a1b6044820152606401610b83565b600083815260146020908152604080832033845290915290205480612ba85760405162461bcd60e51b815260206004820152600c60248201526b04e6f206f776e6572736869760a41b6044820152606401610b83565b3360009081526006830160205260409020805460ff191660011790558215612be95780826002016000828254612bde9190614643565b90915550612c039050565b80826003016000828254612bfd9190614643565b90915550505b60408051841515815260208101839052339186917f03517c80ea2ef27bc391276f878760d7de484621a186d22892e639ddb485ecf7910160405180910390a3600082600301548360020154612c589190614643565b6000868152601360205260409020600301546002850154919250603391612c809060646145ce565b612c8a91906145e5565b10612c9857612c9885613bff565b50505061101860018055565b612cac613850565b60008281526007602052604090206009810154610100900460ff1615612d145760405162461bcd60e51b815260206004820152601c60248201527f416c7265616479206c697665202d2063616e6e6f742063616e63656c000000006044820152606401610b83565b600981015462010000900460ff1615612d635760405162461bcd60e51b8152602060048201526011602482015270105b1c9958591e4818d85b98d95b1b1959607a1b6044820152606401610b83565b60098101805462ff000019166201000017905560405183907f7938a8c5a147366bd3298d75f213fbe6f9aed9118224b5b2a49d3a678b2293759061239c9085906148e5565b612db06138aa565b612db8613903565b6000828152600760205260409020600981015462010000900460ff1615612df15760405162461bcd60e51b8152600401610b83906146be565b6009810154610100900460ff1615612e435760405162461bcd60e51b81526020600482015260156024820152745072652d73616c6520616c7265616479206c69766560581b6044820152606401610b83565b80600801544210612e875760405162461bcd60e51b815260206004820152600e60248201526d141c994b5cd85b1948195b99195960921b6044820152606401610b83565b60008211612ea75760405162461bcd60e51b8152600401610b8390614690565b80600301548160020154612ebb9190614607565b821115612f0a5760405162461bcd60e51b815260206004820152601a60248201527f4e6f7420656e6f756768207061636b7320617661696c61626c650000000000006044820152606401610b83565b6000816004015483612f1c91906145ce565b60078301546009549192506001600160a01b039081169116612f7b5760405162461bcd60e51b8152602060048201526018602482015277125b9d995b9d1bdc9e481dd85b1b195d081b9bdd081cd95d60421b6044820152606401610b83565b600954612f97906001600160a01b038381169133911685613949565b83836003016000828254612fab9190614643565b9250508190555081836006016000828254612fc69190614643565b9091555050336000908152600a8401602052604081208054869290612fec908490614643565b90915550506040805185815260208101849052869133917f88e1742b58ea40c9cfa6a086d3107491b2cb0e803838e5c8ed622dcb8c946031910160405180910390a350505061101860018055565b6130426138aa565b6000818152600760205260409020600981015462010000900460ff166130a35760405162461bcd60e51b8152602060048201526016602482015275141c994b5cd85b19481b9bdd0818d85b98d95b1b195960521b6044820152606401610b83565b336000908152600b8201602052604090205460ff16156130f75760405162461bcd60e51b815260206004820152600f60248201526e105b1c9958591e4818db185a5b5959608a1b6044820152606401610b83565b600981015460ff16156131605760405162461bcd60e51b815260206004820152602b60248201527f496e76656e746f727920616c726561647920707572636861736564202d20636160448201526a1b9b9bdd081c99599d5b9960aa1b6064820152608401610b83565b336000908152600a82016020526040902054806131b75760405162461bcd60e51b8152602060048201526015602482015274139bc81c1d5c98da185cd9481d1bc81c99599d5b99605a1b6044820152606401610b83565b60008260040154826131c991906145ce565b336000818152600b860160205260409020805460ff1916600117905560078501549192506001600160a01b03919091169061320690829084613a99565b604051828152859033907f17c1d890f3ffba4991a771a0b55802a1eff3159d0cce950fb68d1360530393d99060200160405180910390a35050505061324a60018055565b50565b6132556138aa565b61325d613903565b6001600160a01b03831660009081526010602052604090205460ff166132955760405162461bcd60e51b8152600401610b8390614844565b600081116132b55760405162461bcd60e51b8152600401610b8390614690565b600c5482106132d65760405162461bcd60e51b8152600401610b839061458e565b6000828152600b60205260409020600381015460ff166133305760405162461bcd60e51b8152602060048201526015602482015274427265616b2074797065206e6f742061637469766560581b6044820152606401610b83565b60028101546001820154859190600061334983876145ce565b9050600061335783886145ce565b905060006133658284614607565b905061337c6001600160a01b038716333086613949565b600354613396906001600160a01b03888116911684613a99565b6133a186828b613ac9565b33600090815260166020908152604082208054600181018255908352908220018a9055600e805490826133d3836147f0565b9190505590506040518060e00160405280828152602001336001600160a01b031681526020018b81526020018a815260200185815260200142815260200160001515815250600d60008381526020019081526020016000206000820151816000015560208201518160010160006101000a8154816001600160a01b0302191690836001600160a01b0316021790555060408201518160020155606082015181600301556080820151816004015560a0820151816005015560c08201518160060160006101000a81548160ff021916908315150217905550905050600f6000336001600160a01b03166001600160a01b0316815260200190815260200160002081908060018154018082558091505060019003906000526020600020016000909190919091505589336001600160a01b0316827f44b326df7d62dd3fe7d89de1a374cb8d6e20c0beefe56c25d6167e38b541c3568c8842604051613549939291909283526020830191909152604082015260600190565b60405180910390a4604080518a815260208101869052908101849052606081018390528a9033907f51c2e969e2549ae7c12274abef504843bee3a73c58dbe871c26eb9fc01d7043b9060800160405180910390a3505050505050505061288760018055565b6135b6613850565b6001600160a01b03811661361b5760405162461bcd60e51b815260206004820152602660248201527f4f776e61626c653a206e6577206f776e657220697320746865207a65726f206160448201526564647265737360d01b6064820152608401610b83565b61324a81613a0c565b61362c613850565b6107d08111156136715760405162461bcd60e51b815260206004820152601060248201526f13585e080c8c0948191a5cd8dbdd5b9d60821b6044820152606401610b83565b601255565b60166020528160005260406000208181548110611db357600080fd5b61369a6138aa565b60008181526015602052604090206005015460ff166136f15760405162461bcd60e51b8152602060048201526013602482015272109d5e5bdd5d081b9bdd08195e1958dd5d1959606a1b6044820152606401610b83565b60008181526014602090815260408083203384529091529020548061374d5760405162461bcd60e51b81526020600482015260126024820152714e6f2073686172657320746f20636c61696d60701b6044820152606401610b83565b6000828152601360209081526040808320600301546015909252822060010154909190612710906137809060fa906145ce565b61378a91906145e5565b6000858152601560205260409020600101546137a69190614607565b90506000826137b585846145ce565b6137bf91906145e5565b6000868152601460209081526040808320338085529083528184208490558984526015909252909120600501549192506101009091046001600160a01b03169061380b90829084613a99565b604051828152339087907f829a492b098e906d67afcc4c67889ac97486df205cd59c8749f8f61d782203829060200160405180910390a3505050505061324a60018055565b6000546001600160a01b031633146114dd5760405162461bcd60e51b815260206004820181905260248201527f4f776e61626c653a2063616c6c6572206973206e6f7420746865206f776e65726044820152606401610b83565b6002600154036138fc5760405162461bcd60e51b815260206004820152601f60248201527f5265656e7472616e637947756172643a207265656e7472616e742063616c6c006044820152606401610b83565b6002600155565b60025460ff16156114dd5760405162461bcd60e51b815260206004820152601060248201526f14185d5cd8589b194e881c185d5cd95960821b6044820152606401610b83565b6040516001600160a01b03808516602483015283166044820152606481018290526139b49085906323b872dd60e01b906084015b60408051601f198184030181529190526020810180516001600160e01b03166001600160e01b031990931692909217909152613cfb565b50505050565b6139c2613dd0565b6002805460ff191690557f5db9ee0a495bf2e6ff9c91a7834c1ba4fdd244a5e8aa4e537bd38aeae4b073aa335b6040516001600160a01b03909116815260200160405180910390a1565b600080546001600160a01b038381166001600160a01b0319831681178455604051919092169283917f8be0079c531659141344cd1fd0a4f28419497f9722a3daafe3b4186f6b6457e09190a35050565b613a64613903565b6002805460ff191660011790557f62e78cea01bee320cd4e420270b5ea74000d11b0c9f74754ebdbfc544b05a2586139ef3390565b6040516001600160a01b03831660248201526044810182905261288790849063a9059cbb60e01b9060640161397d565b60006064613ad86032856145ce565b613ae291906145e5565b905060006064613af36014866145ce565b613afd91906145e5565b905060006064613b0e6014876145ce565b613b1891906145e5565b905060008183613b288689614607565b613b329190614607565b613b3c9190614607565b600254909150613b5e906001600160a01b038981169161010090041686613a99565b600354613b78906001600160a01b03898116911685613a99565b600454613b92906001600160a01b03898116911684613a99565b600554613bac906001600160a01b03898116911683613a99565b60408051858152602081018590529081018390526060810182905285907fe17236f5dcccef76cccad15f0166f36d9333aa7d06e532f9ea301a301de068fc9060800160405180910390a250505050505050565b6000818152601560205260409020600581015460ff1615613c555760405162461bcd60e51b815260206004820152601060248201526f105b1c9958591e48195e1958dd5d195960821b6044820152606401610b83565b600082815260136020526040812060018301549091612710613c7860fa846145ce565b613c8291906145e5565b90506000613c908284614607565b9050613c9b82613e19565b600585018054600160ff19918216179091556006850180549091169055604080518281526020810184905287917fbb742e35cdabef7c22457d8ac19120b6e8c14c6fb565042c587e5409ecb503df910160405180910390a2505050505050565b6000613d50826040518060400160405280602081526020017f5361666545524332303a206c6f772d6c6576656c2063616c6c206661696c6564815250856001600160a01b0316613e949092919063ffffffff16565b9050805160001480613d71575080806020019051810190613d7191906148f8565b6128875760405162461bcd60e51b815260206004820152602a60248201527f5361666545524332303a204552433230206f7065726174696f6e20646964206e6044820152691bdd081cdd58d8d9595960b21b6064820152608401610b83565b60025460ff166114dd5760405162461bcd60e51b815260206004820152601460248201527314185d5cd8589b194e881b9bdd081c185d5cd95960621b6044820152606401610b83565b60006064613e286032846145ce565b613e3291906145e5565b905060006064613e436014856145ce565b613e4d91906145e5565b905060006064613e5e6014866145ce565b613e6891906145e5565b905060008183613e788688614607565b613e829190614607565b613e8c9190614607565b505050505050565b6060612220848460008585600080866001600160a01b03168587604051613ebb9190614915565b60006040518083038185875af1925050503d8060008114613ef8576040519150601f19603f3d011682016040523d82523d6000602084013e613efd565b606091505b5091509150613f0e87838387613f19565b979650505050505050565b60608315613f88578251600003613f81576001600160a01b0385163b613f815760405162461bcd60e51b815260206004820152601d60248201527f416464726573733a2063616c6c20746f206e6f6e2d636f6e74726163740000006044820152606401610b83565b5081612220565b6122208383815115613f9d5781518083602001fd5b8060405162461bcd60e51b8152600401610b8391906148e5565b801515811461324a57600080fd5b60008060008060808587031215613fdb57600080fd5b8435935060208501359250604085013591506060850135613ffb81613fb7565b939692955090935050565b80356001600160a01b038116811461401d57600080fd5b919050565b6000806040838503121561403557600080fd5b8235915061404560208401614006565b90509250929050565b6000806040838503121561406157600080fd5b50508035926020909101359150565b60006020828403121561408257600080fd5b5035919050565b60005b838110156140a457818101518382015260200161408c565b50506000910152565b600081518084526140c5816020860160208601614089565b601f01601f19169290920160200192915050565b6080815260006140ec60808301876140ad565b60208301959095525060408101929092521515606090910152919050565b634e487b7160e01b600052604160045260246000fd5b600082601f83011261413157600080fd5b813567ffffffffffffffff8082111561414c5761414c61410a565b604051601f8301601f19908116603f011681019082821181831017156141745761417461410a565b8160405283815286602085880101111561418d57600080fd5b836020870160208301376000602085830101528094505050505092915050565b6000806000606084860312156141c257600080fd5b833567ffffffffffffffff8111156141d957600080fd5b6141e586828701614120565b9660208601359650604090950135949350505050565b6020808252825182820181905260009190848201906040850190845b8181101561423357835183529284019291840191600101614217565b50909695505050505050565b60006020828403121561425157600080fd5b61425a82614006565b9392505050565b600080600080600080600060e0888a03121561427c57600080fd5b873567ffffffffffffffff8082111561429457600080fd5b6142a08b838c01614120565b985060208a01359150808211156142b657600080fd5b506142c38a828b01614120565b9650506040880135945060608801359350608088013592506142e760a08901614006565b915060c0880135905092959891949750929550565b6000806040838503121561430f57600080fd5b61431883614006565b946020939093013593505050565b60e08152600061433960e083018a6140ad565b828103602084015261434b818a6140ad565b604084019890985250506060810194909452608084019290925260a0830152151560c09091015292915050565b6101808152600061438d61018083018f6140ad565b828103602084015261439f818f6140ad565b9150508b60408301528a60608301528960808301528860a08301528760c083015260018060a01b03871660e0830152856101008301528415156101208301528315156101408301526143f661016083018415159052565b9d9c50505050505050505050505050565b6000806000806080858703121561441d57600080fd5b61442685614006565b935061443460208601614006565b925061444260408601614006565b915061445060608601614006565b905092959194509250565b60008060008060008060c0878903121561447457600080fd5b86359550602087013567ffffffffffffffff8082111561449357600080fd5b61449f8a838b01614120565b965060408901359150808211156144b557600080fd5b506144c289828a01614120565b945050606087013592506080870135915060a087013590509295509295509295565b6000806000606084860312156144f957600080fd5b61450284614006565b95602085013595506040909401359392505050565b6000806040838503121561452a57600080fd5b82359150602083013561453c81613fb7565b809150509250929050565b6000806040838503121561455a57600080fd5b82359150602083013567ffffffffffffffff81111561457857600080fd5b61458485828601614120565b9150509250929050565b60208082526010908201526f125b9d985b1a5908189c99585ac8125160821b604082015260600190565b634e487b7160e01b600052601160045260246000fd5b8082028115828204841417610d5b57610d5b6145b8565b60008261460257634e487b7160e01b600052601260045260246000fd5b500490565b81810381811115610d5b57610d5b6145b8565b6020808252600f908201526e43617264206e6f742061637469766560881b604082015260600190565b80820180821115610d5b57610d5b6145b8565b600181811c9082168061466a57607f821691505b60208210810361468a57634e487b7160e01b600052602260045260246000fd5b50919050565b60208082526014908201527305175616e74697479206d757374206265203e20360641b604082015260600190565b602080825260129082015271141c994b5cd85b194818d85b98d95b1b195960721b604082015260600190565b601f82111561288757600081815260208120601f850160051c810160208610156147115750805b601f850160051c820191505b81811015613e8c5782815560010161471d565b815167ffffffffffffffff81111561474a5761474a61410a565b61475e816147588454614656565b846146ea565b602080601f831160018114614793576000841561477b5750858301515b600019600386901b1c1916600185901b178555613e8c565b600085815260208120601f198616915b828110156147c2578886015182559484019460019091019084016147a3565b50858210156147e05787850151600019600388901b60f8161c191681555b5050505050600190811b01905550565b600060018201614802576148026145b8565b5060010190565b60608152600061481c60608301866140ad565b60208301949094525060400152919050565b634e487b7160e01b600052603260045260246000fd5b602080825260139082015272151bdad95b881b9bdd081cdd5c1c1bdc9d1959606a1b604082015260600190565b60c08152600061488460c08301896140ad565b828103602084015261489681896140ad565b9150508560408301528460608301528360808301528260a0830152979650505050505050565b6020808252600f908201526e496e76616c6964206164647265737360881b604082015260600190565b60208152600061425a60208301846140ad565b60006020828403121561490a57600080fd5b815161425a81613fb7565b60008251614927818460208701614089565b919091019291505056fea26469706673582212205c58a2e4811fda3bf44c2a2033ff96a89bc4054b0acba333c6f0e1fa8d8a2eb364736f6c63430008130033",
  "linkReferences": {},
  "deployedLinkReferences": {}
}