{"contracts/TCGVaultProtocol.sol":{"TCGVaultProtocol":{"abi":[{"inputs":[{"internalType":"address","name":"_treasury","type":"address"},{"internalType":"address","name":"_operations","type":"address"},{"internalType":"address","name":"_tokenLiquidity","type":"address"},{"internalType":"address","name":"_investment","type":"address"}],"stateMutability":"nonpayable","type":"constructor"},{"anonymous":false,"inputs":[{"indexed":true,"internalType":"address","name":"buyer","type":"address"},{"indexed":true,"internalType":"uint256","name":"breakId","type":"uint256"},{"indexed":false,"internalType":"uint256","name":"quantity","type":"uint256"},{"indexed":false,"internalType":"uint256","name":"totalPaid","type":"uint256"},{"indexed":false,"internalType":"uint256","name":"packCostAmount","type":"uint256"},{"indexed":false,"internalType":"uint256","name":"profitAmount","type":"uint256"}],"name":"BreakPurchase","type":"event"},{"anonymous":false,"inputs":[{"indexed":true,"internalType":"uint256","name":"breakId","type":"uint256"},{"indexed":false,"internalType":"string","name":"name","type":"string"},{"indexed":false,"internalType":"uint256","name":"packCost","type":"uint256"},{"indexed":false,"internalType":"uint256","name":"packPrice","type":"uint256"}],"name":"BreakTypeAdded","type":"event"},{"anonymous":false,"inputs":[{"indexed":true,"internalType":"uint256","name":"breakId","type":"uint256"},{"indexed":false,"internalType":"uint256","name":"packCost","type":"uint256"},{"indexed":false,"internalType":"uint256","name":"packPrice","type":"uint256"},{"indexed":false,"internalType":"bool","name":"active","type":"bool"}],"name":"BreakTypeUpdated","type":"event"},{"anonymous":false,"inputs":[{"indexed":true,"internalType":"uint256","name":"cardId","type":"uint256"},{"indexed":false,"internalType":"uint256","name":"totalPayout","type":"uint256"},{"indexed":false,"internalType":"uint256","name":"platformFee","type":"uint256"}],"name":"BuyoutExecuted","type":"event"},{"anonymous":false,"inputs":[{"indexed":true,"internalType":"uint256","name":"cardId","type":"uint256"},{"indexed":false,"internalType":"uint256","name":"offerValue","type":"uint256"},{"indexed":false,"internalType":"uint256","name":"deadline","type":"uint256"}],"name":"BuyoutProposed","type":"event"},{"anonymous":false,"inputs":[{"indexed":true,"internalType":"uint256","name":"cardId","type":"uint256"},{"indexed":true,"internalType":"address","name":"voter","type":"address"},{"indexed":false,"internalType":"bool","name":"approved","type":"bool"},{"indexed":false,"internalType":"uint256","name":"votingPower","type":"uint256"}],"name":"BuyoutVoted","type":"event"},{"anonymous":false,"inputs":[{"indexed":true,"internalType":"address","name":"buyer","type":"address"},{"indexed":true,"internalType":"uint256","name":"cardId","type":"uint256"},{"indexed":false,"internalType":"uint256","name":"shares","type":"uint256"},{"indexed":false,"internalType":"uint256","name":"cost","type":"uint256"}],"name":"FractionsPurchased","type":"event"},{"anonymous":false,"inputs":[{"indexed":true,"internalType":"uint256","name":"preSaleId","type":"uint256"},{"indexed":false,"internalType":"uint256","name":"amountPaid","type":"uint256"},{"indexed":false,"internalType":"uint256","name":"remainingFunds","type":"uint256"}],"name":"InventoryAcquired","type":"event"},{"anonymous":false,"inputs":[{"indexed":true,"internalType":"address","name":"previousOwner","type":"address"},{"indexed":true,"internalType":"address","name":"newOwner","type":"address"}],"name":"OwnershipTransferred","type":"event"},{"anonymous":false,"inputs":[{"indexed":false,"internalType":"address","name":"account","type":"address"}],"name":"Paused","type":"event"},{"anonymous":false,"inputs":[{"indexed":true,"internalType":"uint256","name":"cardId","type":"uint256"},{"indexed":true,"internalType":"address","name":"recipient","type":"address"},{"indexed":false,"internalType":"uint256","name":"amount","type":"uint256"}],"name":"PayoutDistributed","type":"event"},{"anonymous":false,"inputs":[{"indexed":true,"internalType":"uint256","name":"preSaleId","type":"uint256"},{"indexed":false,"internalType":"string","name":"reason","type":"string"}],"name":"PreSaleCancelled","type":"event"},{"anonymous":false,"inputs":[{"indexed":true,"internalType":"uint256","name":"preSaleId","type":"uint256"},{"indexed":false,"internalType":"string","name":"name","type":"string"},{"indexed":false,"internalType":"string","name":"productType","type":"string"},{"indexed":false,"internalType":"uint256","name":"packsAvailable","type":"uint256"},{"indexed":false,"internalType":"uint256","name":"packPrice","type":"uint256"},{"indexed":false,"internalType":"uint256","name":"targetInventoryCost","type":"uint256"},{"indexed":false,"internalType":"uint256","name":"openDate","type":"uint256"}],"name":"PreSaleCreated","type":"event"},{"anonymous":false,"inputs":[{"indexed":true,"internalType":"uint256","name":"preSaleId","type":"uint256"},{"indexed":false,"internalType":"uint256","name":"breakId","type":"uint256"}],"name":"PreSaleLive","type":"event"},{"anonymous":false,"inputs":[{"indexed":true,"internalType":"address","name":"buyer","type":"address"},{"indexed":true,"internalType":"uint256","name":"preSaleId","type":"uint256"},{"indexed":false,"internalType":"uint256","name":"quantity","type":"uint256"},{"indexed":false,"internalType":"uint256","name":"totalPaid","type":"uint256"}],"name":"PreSalePurchase","type":"event"},{"anonymous":false,"inputs":[{"indexed":true,"internalType":"address","name":"buyer","type":"address"},{"indexed":true,"internalType":"uint256","name":"preSaleId","type":"uint256"},{"indexed":false,"internalType":"uint256","name":"amount","type":"uint256"}],"name":"RefundClaimed","type":"event"},{"anonymous":false,"inputs":[{"indexed":true,"internalType":"uint256","name":"breakId","type":"uint256"},{"indexed":false,"internalType":"uint256","name":"treasuryAmount","type":"uint256"},{"indexed":false,"internalType":"uint256","name":"operationsAmount","type":"uint256"},{"indexed":false,"internalType":"uint256","name":"tokenLiquidityAmount","type":"uint256"},{"indexed":false,"internalType":"uint256","name":"investmentAmount","type":"uint256"}],"name":"RevenueDistributed","type":"event"},{"anonymous":false,"inputs":[{"indexed":false,"internalType":"address","name":"account","type":"address"}],"name":"Unpaused","type":"event"},{"inputs":[],"name":"BPS_DENOMINATOR","outputs":[{"internalType":"uint256","name":"","type":"uint256"}],"stateMutability":"view","type":"function"},{"inputs":[],"name":"BUYOUT_FEE_BPS","outputs":[{"internalType":"uint256","name":"","type":"uint256"}],"stateMutability":"view","type":"function"},{"inputs":[],"name":"INVESTMENT_SHARE","outputs":[{"internalType":"uint256","name":"","type":"uint256"}],"stateMutability":"view","type":"function"},{"inputs":[],"name":"MAX_PRE_SALE_DURATION","outputs":[{"internalType":"uint256","name":"","type":"uint256"}],"stateMutability":"view","type":"function"},{"inputs":[],"name":"OPERATIONS_SHARE","outputs":[{"internalType":"uint256","name":"","type":"uint256"}],"stateMutability":"view","type":"function"},{"inputs":[],"name":"REFUND_WINDOW","outputs":[{"internalType":"uint256","name":"","type":"uint256"}],"stateMutability":"view","type":"function"},{"inputs":[],"name":"TOKEN_LIQUIDITY_SHARE","outputs":[{"internalType":"uint256","name":"","type":"uint256"}],"stateMutability":"view","type":"function"},{"inputs":[],"name":"TREASURY_SHARE","outputs":[{"internalType":"uint256","name":"","type":"uint256"}],"stateMutability":"view","type":"function"},{"inputs":[{"internalType":"uint256","name":"preSaleId","type":"uint256"},{"internalType":"uint256","name":"amountPaid","type":"uint256"}],"name":"acquireInventory","outputs":[],"stateMutability":"nonpayable","type":"function"},{"inputs":[{"internalType":"uint256","name":"preSaleId","type":"uint256"},{"internalType":"uint256","name":"breakId","type":"uint256"}],"name":"activatePreSale","outputs":[],"stateMutability":"nonpayable","type":"function"},{"inputs":[{"internalType":"string","name":"name","type":"string"},{"internalType":"uint256","name":"packCost","type":"uint256"},{"internalType":"uint256","name":"packPrice","type":"uint256"}],"name":"addBreakType","outputs":[],"stateMutability":"nonpayable","type":"function"},{"inputs":[{"internalType":"uint256","name":"cardId","type":"uint256"},{"internalType":"string","name":"name","type":"string"},{"internalType":"string","name":"cardRef","type":"string"},{"internalType":"uint256","name":"vaultValue","type":"uint256"},{"internalType":"uint256","name":"totalShares","type":"uint256"},{"internalType":"uint256","name":"buyoutValue","type":"uint256"}],"name":"addCard","outputs":[],"stateMutability":"nonpayable","type":"function"},{"inputs":[{"internalType":"address","name":"token","type":"address"}],"name":"addSupportedToken","outputs":[],"stateMutability":"nonpayable","type":"function"},{"inputs":[],"name":"breakTypeCount","outputs":[{"internalType":"uint256","name":"","type":"uint256"}],"stateMutability":"view","type":"function"},{"inputs":[{"internalType":"uint256","name":"","type":"uint256"}],"name":"breakTypes","outputs":[{"internalType":"string","name":"name","type":"string"},{"internalType":"uint256","name":"packCost","type":"uint256"},{"internalType":"uint256","name":"packPrice","type":"uint256"},{"internalType":"bool","name":"active","type":"bool"}],"stateMutability":"view","type":"function"},{"inputs":[{"internalType":"uint256","name":"","type":"uint256"}],"name":"buyoutProposals","outputs":[{"internalType":"uint256","name":"cardId","type":"uint256"},{"internalType":"uint256","name":"offerValue","type":"uint256"},{"internalType":"uint256","name":"votesFor","type":"uint256"},{"internalType":"uint256","name":"votesAgainst","type":"uint256"},{"internalType":"uint256","name":"deadline","type":"uint256"},{"internalType":"bool","name":"executed","type":"bool"},{"internalType":"address","name":"paymentToken","type":"address"}],"stateMutability":"view","type":"function"},{"inputs":[{"internalType":"uint256","name":"cardId","type":"uint256"},{"internalType":"address","name":"user","type":"address"}],"name":"calculateBuyoutPayout","outputs":[{"internalType":"uint256","name":"","type":"uint256"}],"stateMutability":"view","type":"function"},{"inputs":[{"internalType":"uint256","name":"preSaleId","type":"uint256"},{"internalType":"string","name":"reason","type":"string"}],"name":"cancelPreSale","outputs":[],"stateMutability":"nonpayable","type":"function"},{"inputs":[{"internalType":"uint256","name":"","type":"uint256"}],"name":"cards","outputs":[{"internalType":"string","name":"name","type":"string"},{"internalType":"string","name":"cardId","type":"string"},{"internalType":"uint256","name":"vaultValue","type":"uint256"},{"internalType":"uint256","name":"totalShares","type":"uint256"},{"internalType":"uint256","name":"availableShares","type":"uint256"},{"internalType":"uint256","name":"buyoutValue","type":"uint256"},{"internalType":"bool","name":"active","type":"bool"}],"stateMutability":"view","type":"function"},{"inputs":[{"internalType":"uint256","name":"cardId","type":"uint256"}],"name":"claimBuyoutPayout","outputs":[],"stateMutability":"nonpayable","type":"function"},{"inputs":[{"internalType":"uint256","name":"preSaleId","type":"uint256"}],"name":"claimPreSaleRefund","outputs":[],"stateMutability":"nonpayable","type":"function"},{"inputs":[{"internalType":"string","name":"name","type":"string"},{"internalType":"string","name":"productType","type":"string"},{"internalType":"uint256","name":"packsAvailable","type":"uint256"},{"internalType":"uint256","name":"packPrice","type":"uint256"},{"internalType":"uint256","name":"targetInventoryCost","type":"uint256"},{"internalType":"address","name":"paymentToken","type":"address"},{"internalType":"uint256","name":"openDate","type":"uint256"}],"name":"createPreSale","outputs":[{"internalType":"uint256","name":"preSaleId","type":"uint256"}],"stateMutability":"nonpayable","type":"function"},{"inputs":[],"name":"defaultPackCost","outputs":[{"internalType":"uint256","name":"","type":"uint256"}],"stateMutability":"view","type":"function"},{"inputs":[],"name":"eVAULTDiscountBps","outputs":[{"internalType":"uint256","name":"","type":"uint256"}],"stateMutability":"view","type":"function"},{"inputs":[],"name":"eVAULTToken","outputs":[{"internalType":"address","name":"","type":"address"}],"stateMutability":"view","type":"function"},{"inputs":[{"internalType":"address","name":"token","type":"address"},{"internalType":"uint256","name":"amount","type":"uint256"}],"name":"emergencyWithdraw","outputs":[],"stateMutability":"nonpayable","type":"function"},{"inputs":[{"internalType":"uint256","name":"cardId","type":"uint256"}],"name":"getBuyoutProposal","outputs":[{"internalType":"uint256","name":"offerValue","type":"uint256"},{"internalType":"uint256","name":"votesFor","type":"uint256"},{"internalType":"uint256","name":"votesAgainst","type":"uint256"},{"internalType":"uint256","name":"deadline","type":"uint256"},{"internalType":"bool","name":"executed","type":"bool"},{"internalType":"address","name":"paymentToken","type":"address"}],"stateMutability":"view","type":"function"},{"inputs":[{"internalType":"uint256","name":"preSaleId","type":"uint256"}],"name":"getPreSale","outputs":[{"internalType":"string","name":"name","type":"string"},{"internalType":"string","name":"productType","type":"string"},{"internalType":"uint256","name":"packsAvailable","type":"uint256"},{"internalType":"uint256","name":"packsSold","type":"uint256"},{"internalType":"uint256","name":"packPrice","type":"uint256"},{"internalType":"uint256","name":"targetInventoryCost","type":"uint256"},{"internalType":"uint256","name":"fundsRaised","type":"uint256"},{"internalType":"address","name":"paymentToken","type":"address"},{"internalType":"uint256","name":"openDate","type":"uint256"},{"internalType":"bool","name":"inventoryAcquired","type":"bool"},{"internalType":"bool","name":"isLive","type":"bool"},{"internalType":"bool","name":"cancelled","type":"bool"}],"stateMutability":"view","type":"function"},{"inputs":[{"internalType":"address","name":"user","type":"address"}],"name":"getUserBreakPurchases","outputs":[{"internalType":"uint256[]","name":"","type":"uint256[]"}],"stateMutability":"view","type":"function"},{"inputs":[{"internalType":"uint256","name":"cardId","type":"uint256"},{"internalType":"address","name":"user","type":"address"}],"name":"getUserOwnershipPercent","outputs":[{"internalType":"uint256","name":"","type":"uint256"}],"stateMutability":"view","type":"function"},{"inputs":[{"internalType":"uint256","name":"preSaleId","type":"uint256"},{"internalType":"address","name":"user","type":"address"}],"name":"getUserPreSalePurchase","outputs":[{"internalType":"uint256","name":"","type":"uint256"}],"stateMutability":"view","type":"function"},{"inputs":[],"name":"inventoryFundWallet","outputs":[{"internalType":"address","name":"","type":"address"}],"stateMutability":"view","type":"function"},{"inputs":[],"name":"investmentWallet","outputs":[{"internalType":"address","name":"","type":"address"}],"stateMutability":"view","type":"function"},{"inputs":[],"name":"operationsWallet","outputs":[{"internalType":"address","name":"","type":"address"}],"stateMutability":"view","type":"function"},{"inputs":[],"name":"owner","outputs":[{"internalType":"address","name":"","type":"address"}],"stateMutability":"view","type":"function"},{"inputs":[],"name":"pause","outputs":[],"stateMutability":"nonpayable","type":"function"},{"inputs":[],"name":"paused","outputs":[{"internalType":"bool","name":"","type":"bool"}],"stateMutability":"view","type":"function"},{"inputs":[],"name":"preSaleCount","outputs":[{"internalType":"uint256","name":"","type":"uint256"}],"stateMutability":"view","type":"function"},{"inputs":[{"internalType":"uint256","name":"","type":"uint256"}],"name":"preSales","outputs":[{"internalType":"string","name":"name","type":"string"},{"internalType":"string","name":"productType","type":"string"},{"internalType":"uint256","name":"packsAvailable","type":"uint256"},{"internalType":"uint256","name":"packsSold","type":"uint256"},{"internalType":"uint256","name":"packPrice","type":"uint256"},{"internalType":"uint256","name":"targetInventoryCost","type":"uint256"},{"internalType":"uint256","name":"fundsRaised","type":"uint256"},{"internalType":"address","name":"paymentToken","type":"address"},{"internalType":"uint256","name":"openDate","type":"uint256"},{"internalType":"bool","name":"inventoryAcquired","type":"bool"},{"internalType":"bool","name":"isLive","type":"bool"},{"internalType":"bool","name":"cancelled","type":"bool"}],"stateMutability":"view","type":"function"},{"inputs":[{"internalType":"address","name":"paymentToken","type":"address"},{"internalType":"uint256","name":"cardId","type":"uint256"}],"name":"proposeBuyout","outputs":[],"stateMutability":"nonpayable","type":"function"},{"inputs":[{"internalType":"address","name":"paymentToken","type":"address"},{"internalType":"uint256","name":"breakId","type":"uint256"},{"internalType":"uint256","name":"quantity","type":"uint256"}],"name":"purchaseBreakPacks","outputs":[],"stateMutability":"nonpayable","type":"function"},{"inputs":[{"internalType":"uint256","name":"breakId","type":"uint256"},{"internalType":"uint256","name":"quantity","type":"uint256"}],"name":"purchaseBreakPacksWithEVAULT","outputs":[],"stateMutability":"nonpayable","type":"function"},{"inputs":[{"internalType":"address","name":"paymentToken","type":"address"},{"internalType":"uint256","name":"cardId","type":"uint256"},{"internalType":"uint256","name":"shares","type":"uint256"}],"name":"purchaseFractions","outputs":[],"stateMutability":"nonpayable","type":"function"},{"inputs":[{"internalType":"uint256","name":"cardId","type":"uint256"},{"internalType":"uint256","name":"shares","type":"uint256"}],"name":"purchaseFractionsWithEVAULT","outputs":[],"stateMutability":"nonpayable","type":"function"},{"inputs":[{"internalType":"uint256","name":"preSaleId","type":"uint256"},{"internalType":"uint256","name":"quantity","type":"uint256"}],"name":"purchasePreSale","outputs":[],"stateMutability":"nonpayable","type":"function"},{"inputs":[{"internalType":"address","name":"token","type":"address"}],"name":"removeSupportedToken","outputs":[],"stateMutability":"nonpayable","type":"function"},{"inputs":[],"name":"renounceOwnership","outputs":[],"stateMutability":"nonpayable","type":"function"},{"inputs":[],"name":"rewardsPool","outputs":[{"internalType":"address","name":"","type":"address"}],"stateMutability":"view","type":"function"},{"inputs":[{"internalType":"uint256","name":"discountBps","type":"uint256"}],"name":"setEVAULTDiscount","outputs":[],"stateMutability":"nonpayable","type":"function"},{"inputs":[{"internalType":"address","name":"_eVAULT","type":"address"}],"name":"setEVAULTToken","outputs":[],"stateMutability":"nonpayable","type":"function"},{"inputs":[{"internalType":"address","name":"_wallet","type":"address"}],"name":"setInventoryFundWallet","outputs":[],"stateMutability":"nonpayable","type":"function"},{"inputs":[{"internalType":"uint256","name":"_packCost","type":"uint256"}],"name":"setPackCost","outputs":[],"stateMutability":"nonpayable","type":"function"},{"inputs":[{"internalType":"address","name":"_rewardsPool","type":"address"}],"name":"setRewardsPool","outputs":[],"stateMutability":"nonpayable","type":"function"},{"inputs":[{"internalType":"address","name":"","type":"address"}],"name":"supportedTokens","outputs":[{"internalType":"bool","name":"","type":"bool"}],"stateMutability":"view","type":"function"},{"inputs":[],"name":"tokenLiquidityWallet","outputs":[{"internalType":"address","name":"","type":"address"}],"stateMutability":"view","type":"function"},{"inputs":[{"internalType":"address","name":"newOwner","type":"address"}],"name":"transferOwnership","outputs":[],"stateMutability":"nonpayable","type":"function"},{"inputs":[],"name":"treasuryWallet","outputs":[{"internalType":"address","name":"","type":"address"}],"stateMutability":"view","type":"function"},{"inputs":[],"name":"unpause","outputs":[],"stateMutability":"nonpayable","type":"function"},{"inputs":[{"internalType":"uint256","name":"breakId","type":"uint256"},{"internalType":"uint256","name":"packCost","type":"uint256"},{"internalType":"uint256","name":"packPrice","type":"uint256"},{"internalType":"bool","name":"active","type":"bool"}],"name":"updateBreakType","outputs":[],"stateMutability":"nonpayable","type":"function"},{"inputs":[{"internalType":"uint256","name":"cardId","type":"uint256"},{"internalType":"uint256","name":"newAvailableShares","type":"uint256"}],"name":"updateCardAvailability","outputs":[],"stateMutability":"nonpayable","type":"function"},{"inputs":[{"internalType":"address","name":"_treasury","type":"address"},{"internalType":"address","name":"_operations","type":"address"},{"internalType":"address","name":"_tokenLiquidity","type":"address"},{"internalType":"address","name":"_investment","type":"address"}],"name":"updateRevenueWallets","outputs":[],"stateMutability":"nonpayable","type":"function"},{"inputs":[{"internalType":"address","name":"","type":"address"},{"internalType":"uint256","name":"","type":"uint256"}],"name":"userBreakPurchases","outputs":[{"internalType":"uint256","name":"","type":"uint256"}],"stateMutability":"view","type":"function"},{"inputs":[{"internalType":"uint256","name":"","type":"uint256"},{"internalType":"address","name":"","type":"address"}],"name":"userOwnership","outputs":[{"internalType":"uint256","name":"sharesOwned","type":"uint256"},{"internalType":"uint256","name":"lastPurchaseTime","type":"uint256"}],"stateMutability":"view","type":"function"},{"inputs":[{"internalType":"uint256","name":"cardId","type":"uint256"},{"internalType":"bool","name":"approve","type":"bool"}],"name":"voteOnBuyout","outputs":[],"stateMutability":"nonpayable","type":"function"}],"evm":{"bytecode":{"linkReferences":{},"object":"6080604052678ac7230489e80000600a556101f4600f553480156200002357600080fd5b50604051620047d5380380620047d583398101604081905262000046916200026a565b6200005133620001fd565b600180556002805460ff191690556001600160a01b038416620000ae5760405162461bcd60e51b815260206004820152601060248201526f496e76616c696420747265617375727960801b60448201526064015b60405180910390fd5b6001600160a01b038316620000fb5760405162461bcd60e51b8152602060048201526012602482015271496e76616c6964206f7065726174696f6e7360701b6044820152606401620000a5565b6001600160a01b038216620001535760405162461bcd60e51b815260206004820152601760248201527f496e76616c696420746f6b656e206c69717569646974790000000000000000006044820152606401620000a5565b6001600160a01b038116620001a05760405162461bcd60e51b8152602060048201526012602482015271125b9d985b1a59081a5b9d995cdd1b595b9d60721b6044820152606401620000a5565b600280546001600160a01b0395861661010002610100600160a81b0319909116179055600380549385166001600160a01b0319948516179055600480549285169284169290921790915560058054919093169116179055620002c7565b600080546001600160a01b038381166001600160a01b0319831681178455604051919092169283917f8be0079c531659141344cd1fd0a4f28419497f9722a3daafe3b4186f6b6457e09190a35050565b80516001600160a01b03811681146200026557600080fd5b919050565b600080600080608085870312156200028157600080fd5b6200028c856200024d565b93506200029c602086016200024d565b9250620002ac604086016200024d565b9150620002bc606086016200024d565b905092959194509250565b6144fe80620002d76000396000f3fe608060405234801561001057600080fd5b50600436106103d05760003560e01c80638dc10768116101ff578063d701b6c01161011a578063f236afdf116100ad578063fbd516821161007c578063fbd5168214610991578063fd29f2b31461099b578063fd72e22a146109ae578063fe98b8ce146109c157600080fd5b8063f236afdf1461094f578063f2fde38b14610962578063f3e7ba9f14610975578063fbafa9791461098857600080fd5b8063e2aa1294116100e9578063e2aa129414610903578063ea801f5e14610916578063eba9c7ff14610929578063eca342581461093c57600080fd5b8063d701b6c0146108d6578063d9589c5f146108de578063de0ec164146108f1578063e1a45218146108fa57600080fd5b8063ae13513611610192578063c4b532ab11610161578063c4b532ab1461089d578063c73bfe6e146108b0578063d191d7f414610882578063d4d766e6146108c357600080fd5b8063ae1351361461085c578063b6fa37bc1461086f578063bb6692e314610882578063c07deb331461088a57600080fd5b80639be95ff2116101ce5780639be95ff2146107f85780639cacdf701461080b578063a207b5bb14610836578063ad1609cb1461084957600080fd5b80638dc10768146106f95780638dd51e2a1461071f5780639046306d1461075957806395ccea67146107e557600080fd5b80635571251e116102ef5780637631919011610282578063843de99911610251578063843de999146106ad5780638456cb59146106c057806385d85966146106c85780638da5cb5b146106e857600080fd5b806376319190146105de5780637c000293146105f15780637c7116ea146106045780637e0c4c891461069a57600080fd5b80636d69fcaf116102be5780636d69fcaf1461059d5780636eda90d0146105b0578063715018a6146105c357806375abe3ef146105cb57600080fd5b80635571251e146105095780635c975abb14610550578063676c46311461056757806368c4ac261461057a57600080fd5b806331db2489116103675780633f4ba83a116103365780633f4ba83a146104c35780633fbfabb0146104cb5780634626402b146104de578063553cb0de146104f657600080fd5b806331db24891461048c578063326961741461049f578063356221b8146104a75780633a0d727c146104ba57600080fd5b806323fd530d116103a357806323fd530d14610445578063244cfd981461045857806325c267861461047b5780632ed748ad1461048457600080fd5b80630359fea9146103d55780630c40ed3e146104055780631153b5f31461041a5780631c6f902c14610432575b600080fd5b6006546103e8906001600160a01b031681565b6040516001600160a01b0390911681526020015b60405180910390f35b610418610413366004613b72565b6109d4565b005b61042462278d0081565b6040519081526020016103fc565b610424610440366004613bcf565b610b16565b610418610453366004613bfb565b610bdb565b61046b610466366004613c1d565b610e96565b6040516103fc9493929190613c86565b610424600c5481565b610424600a81565b61041861049a366004613bfb565b610f4b565b610424603281565b6104186104b5366004613bfb565b61117a565b610424600f5481565b610418611347565b6104186104d9366004613d5a565b611359565b6002546103e89061010090046001600160a01b031681565b610418610504366004613c1d565b611500565b61053b610517366004613bcf565b60116020908152600092835260408084209091529082529020805460019091015482565b604080519283526020830191909152016103fc565b60025460ff165b60405190151581526020016103fc565b610418610575366004613bfb565b61150d565b610557610588366004613da8565b600d6020526000908152604090205460ff1681565b6104186105ab366004613da8565b61155b565b6104246105be366004613dca565b611587565b610418611838565b600e546103e8906001600160a01b031681565b6104186105ec366004613da8565b61184a565b6104186105ff366004613da8565b611873565b61065a610612366004613c1d565b601260205260009081526040902080546001820154600283015460038401546004850154600590950154939492939192909160ff81169061010090046001600160a01b031687565b6040805197885260208801969096529486019390935260608501919091526080840152151560a08301526001600160a01b031660c082015260e0016103fc565b6104186106a8366004613da8565b6118c3565b6104186106bb366004613e65565b61192b565b610418611adc565b6106db6106d6366004613da8565b611aec565b6040516103fc9190613e8f565b6000546001600160a01b03166103e8565b61070c610707366004613c1d565b611b58565b6040516103fc9796959493929190613ed3565b61042461072d366004613bcf565b60008281526007602090815260408083206001600160a01b0385168452600a0190915290205492915050565b6107ad610767366004613c1d565b60009081526012602052604090206001810154600282015460038301546004840154600590940154929491939092909160ff82169161010090046001600160a01b031690565b604080519687526020870195909552938501929092526060840152151560808301526001600160a01b031660a082015260c0016103fc565b6104186107f3366004613e65565b611ca6565b610418610806366004613da8565b611cd4565b61081e610819366004613c1d565b611d24565b6040516103fc9c9b9a99989796959493929190613f25565b610424610844366004613bcf565b611eeb565b6009546103e8906001600160a01b031681565b6004546103e8906001600160a01b031681565b6005546103e8906001600160a01b031681565b610424601481565b610418610898366004613bfb565b611f4e565b6104186108ab366004613fb4565b6120cf565b6104186108be366004614008565b612265565b6104186108d1366004614091565b612378565b61042460fa81565b61081e6108ec366004613c1d565b6125b2565b61042460085481565b61042461271081565b6104186109113660046140c4565b612732565b6104186109243660046140f4565b6129ca565b610418610937366004613bfb565b612ace565b61041861094a366004613c1d565b612d60565b61041861095d366004614091565b612f73565b610418610970366004613da8565b613146565b610418610983366004613c1d565b6131bc565b610424600a5481565b6104246276a70081565b6104246109a9366004613e65565b61320e565b6003546103e8906001600160a01b031681565b6104186109cf366004613c1d565b61323f565b6109dc6133fd565b600c548410610a065760405162461bcd60e51b81526004016109fd9061413b565b60405180910390fd5b60008311610a4e5760405162461bcd60e51b815260206004820152601560248201527405061636b20636f7374206d757374206265203e203605c1b60448201526064016109fd565b828211610a9d5760405162461bcd60e51b815260206004820152601b60248201527f53616c65207072696365206d7573742065786365656420636f7374000000000060448201526064016109fd565b6000848152600b6020908152604091829020600181018690556002810185905560038101805485151560ff199091168117909155835187815292830186905282840152915186917fac6e27ce80ce8946cf201045368e957c80b775537bb5d8ff8da2d18a61530e8c919081900360600190a25050505050565b60008281526012602052604081206005015460ff16610b3757506000610bd5565b60008381526011602090815260408083206001600160a01b038616845290915281205490819003610b6c576000915050610bd5565b60008481526012602052604081206001015490612710610b8d60fa8461417b565b610b979190614192565b90506000610ba582846141b4565b600088815260106020526040902060030154909150610bc4858361417b565b610bce9190614192565b9450505050505b92915050565b610be3613457565b610beb6134b0565b600e546001600160a01b0316610c345760405162461bcd60e51b815260206004820152600e60248201526d195590555315081b9bdd081cd95d60921b60448201526064016109fd565b60008281526010602052604090206006015460ff16610c655760405162461bcd60e51b81526004016109fd906141c7565b60008111610caa5760405162461bcd60e51b81526020600482015260126024820152710536861726573206d757374206265203e20360741b60448201526064016109fd565b600082815260106020526040902060040154811115610cff5760405162461bcd60e51b81526020600482015260116024820152704e6f7420656e6f7567682073686172657360781b60448201526064016109fd565b600082815260106020526040812060038101546002820154919291610d249190614192565b90506000610d32828561417b565b90506000612710600f5483610d47919061417b565b610d519190614192565b90506000610d5f82846141b4565b600e54909150610d7a906001600160a01b03163330846134f6565b600e54604051632770a7eb60e21b8152306004820152602481018390526001600160a01b0390911690639dc29fac90604401600060405180830381600087803b158015610dc657600080fd5b505af1158015610dda573d6000803e3d6000fd5b505050600088815260116020908152604080832033845290915281208054899350909190610e099084906141f0565b90915550506000878152601160209081526040808320338452909152812042600190910155600486018054889290610e429084906141b4565b90915550506040805187815260208101839052889133917fec7a90f2defdaa104c0f263369120ee24cba82876ef97c2eaf6e4e7150ec9c75910160405180910390a35050505050610e9260018055565b5050565b600b60205260009081526040902080548190610eb190614203565b80601f0160208091040260200160405190810160405280929190818152602001828054610edd90614203565b8015610f2a5780601f10610eff57610100808354040283529160200191610f2a565b820191906000526020600020905b815481529060010190602001808311610f0d57829003601f168201915b50505050600183015460028401546003909401549293909290915060ff1684565b610f53613457565b610f5b6134b0565b600e546001600160a01b0316610fa45760405162461bcd60e51b815260206004820152600e60248201526d195590555315081b9bdd081cd95d60921b60448201526064016109fd565b60008111610fc45760405162461bcd60e51b81526004016109fd9061423d565b600c548210610fe55760405162461bcd60e51b81526004016109fd9061413b565b6000828152600b60205260409020600381015460ff1661103f5760405162461bcd60e51b8152602060048201526015602482015274427265616b2074797065206e6f742061637469766560581b60448201526064016109fd565b600281015460018201546000611055838661417b565b90506000612710600f548361106a919061417b565b6110749190614192565b9050600061108282846141b4565b90506000611090858961417b565b9050600061109e82866141b4565b600e549091506110b9906001600160a01b03163330866134f6565b600e54604051632770a7eb60e21b8152306004820152602481018590526001600160a01b0390911690639dc29fac90604401600060405180830381600087803b15801561110557600080fd5b505af1158015611119573d6000803e3d6000fd5b5050604080518c815260208101879052908101859052606081018490528c92503391507f51c2e969e2549ae7c12274abef504843bee3a73c58dbe871c26eb9fc01d7043b9060800160405180910390a35050505050505050610e9260018055565b6111826133fd565b61118a613457565b6000828152600760205260409020600981015462010000900460ff16156111c35760405162461bcd60e51b81526004016109fd9061426b565b600981015460ff161561120b5760405162461bcd60e51b815260206004820152601060248201526f105b1c9958591e481858dc5d5a5c995960821b60448201526064016109fd565b806006015482111561125f5760405162461bcd60e51b815260206004820152601b60248201527f416d6f756e7420657863656564732066756e647320726169736564000000000060448201526064016109fd565b6009808201805460ff19166001179055600782015490546001600160a01b0391821691166112ca5760405162461bcd60e51b8152602060048201526018602482015277125b9d995b9d1bdc9e481dd85b1b195d081b9bdd081cd95d60421b60448201526064016109fd565b6009546003546112eb916001600160a01b03848116929181169116866134f6565b60008383600601546112fd91906141b4565b604080518681526020810183905291925086917f953fce1f162c4f2f4a3b4cb10f2a14bcffc4de51a19968857dbe3a89b9e2358f910160405180910390a2505050610e9260018055565b61134f6133fd565b611357613567565b565b6113616133fd565b60008351116113a25760405162461bcd60e51b815260206004820152600d60248201526c13985b59481c995c5d5a5c9959609a1b60448201526064016109fd565b600082116113ea5760405162461bcd60e51b815260206004820152601560248201527405061636b20636f7374206d757374206265203e203605c1b60448201526064016109fd565b8181116114395760405162461bcd60e51b815260206004820152601b60248201527f53616c65207072696365206d7573742065786365656420636f7374000000000060448201526064016109fd565b600c54604080516080810182528581526020808201869052818301859052600160608301526000848152600b909152919091208151819061147a90826142dd565b5060208201516001820155604082015160028201556060909101516003909101805460ff1916911515919091179055600c80549060006114b98361439d565b9190505550807f61693a31ba710b04ca42208bfa45512ff9fdf0dcac63519599bcc3657a18fc2d8585856040516114f2939291906143b6565b60405180910390a250505050565b6115086133fd565b600a55565b6115156133fd565b60008281526010602052604090206006015460ff166115465760405162461bcd60e51b81526004016109fd906141c7565b60009182526010602052604090912060040155565b6115636133fd565b6001600160a01b03166000908152600d60205260409020805460ff19166001179055565b60006115916133fd565b6001600160a01b0383166000908152600d602052604090205460ff166115c95760405162461bcd60e51b81526004016109fd906143db565b600086116116195760405162461bcd60e51b815260206004820152601960248201527f4d7573742068617665207061636b7320617661696c61626c650000000000000060448201526064016109fd565b600085116116625760405162461bcd60e51b815260206004820152601660248201527505061636b207072696365206d757374206265203e20360541b60448201526064016109fd565b600084116116b25760405162461bcd60e51b815260206004820152601a60248201527f496e76656e746f727920636f7374206d757374206265203e203000000000000060448201526064016109fd565b4282116117015760405162461bcd60e51b815260206004820152601860248201527f4f70656e2064617465206d75737420626520667574757265000000000000000060448201526064016109fd565b61170e6276a700426141f0565b82111561175d5760405162461bcd60e51b815260206004820152601b60248201527f4f70656e206461746520746f6f2066617220696e20667574757265000000000060448201526064016109fd565b6008805490600061176d8361439d565b90915550506008546000818152600760205260409020909150806117918a826142dd565b50600181016117a089826142dd565b506002810187905560048101869055600581018590556007810180546001600160a01b0319166001600160a01b0386161790556008810183905560098101805462ffffff1916905560405182907fc5ce427637f2bee38f45dc70c577124976472bd3f5cbd7f003864bc3937d4e3e90611824908c908c908c908c908c908b90614408565b60405180910390a250979650505050505050565b6118406133fd565b61135760006135b9565b6118526133fd565b6001600160a01b03166000908152600d60205260409020805460ff19169055565b61187b6133fd565b6001600160a01b0381166118a15760405162461bcd60e51b81526004016109fd90614453565b600680546001600160a01b0319166001600160a01b0392909216919091179055565b6118cb6133fd565b6001600160a01b0381166118f15760405162461bcd60e51b81526004016109fd90614453565b600e80546001600160a01b039092166001600160a01b0319909216821790556000908152600d60205260409020805460ff19166001179055565b611933613457565b61193b6134b0565b6001600160a01b0382166000908152600d602052604090205460ff166119735760405162461bcd60e51b81526004016109fd906143db565b60008181526010602052604090206006015460ff166119a45760405162461bcd60e51b81526004016109fd906141c7565b600081815260126020526040902060048101544211806119c85750600581015460ff165b611a0d5760405162461bcd60e51b81526020600482015260166024820152754163746976652070726f706f73616c2065786973747360501b60448201526064016109fd565b6000828152601060205260409020600581015484611a366001600160a01b0382163330856134f6565b600085815260126020526040812086815560018101849055600281018290556003810191909155611a6a4262093a806141f0565b600482018190556005820180546001600160a81b0319166101006001600160a01b038b160217905560408051858152602081019290925287917f468b6bbeeb7c3c51b31ba6afa4133fd0f4d56180566dc82bf1b6a2f469f458b3910160405180910390a25050505050610e9260018055565b611ae46133fd565b611357613609565b6001600160a01b038116600090815260136020908152604091829020805483518184028101840190945280845260609392830182828015611b4c57602002820191906000526020600020905b815481526020019060010190808311611b38575b50505050509050919050565b601060205260009081526040902080548190611b7390614203565b80601f0160208091040260200160405190810160405280929190818152602001828054611b9f90614203565b8015611bec5780601f10611bc157610100808354040283529160200191611bec565b820191906000526020600020905b815481529060010190602001808311611bcf57829003601f168201915b505050505090806001018054611c0190614203565b80601f0160208091040260200160405190810160405280929190818152602001828054611c2d90614203565b8015611c7a5780601f10611c4f57610100808354040283529160200191611c7a565b820191906000526020600020905b815481529060010190602001808311611c5d57829003601f168201915b505050600284015460038501546004860154600587015460069097015495969295919450925060ff1687565b611cae6133fd565b610e92611cc36000546001600160a01b031690565b6001600160a01b0384169083613646565b611cdc6133fd565b6001600160a01b038116611d025760405162461bcd60e51b81526004016109fd90614453565b600980546001600160a01b0319166001600160a01b0392909216919091179055565b60008181526007602081905260408220600281015460038201546004830154600584015460068501549585015460088601546009870154875460609a8b9a90998a998a998a998a998a998a998a998a998a99899860018a0198909790969095909491936001600160a01b039091169260ff80831692610100810482169262010000909104909116908c90611db790614203565b80601f0160208091040260200160405190810160405280929190818152602001828054611de390614203565b8015611e305780601f10611e0557610100808354040283529160200191611e30565b820191906000526020600020905b815481529060010190602001808311611e1357829003601f168201915b50505050509b508a8054611e4390614203565b80601f0160208091040260200160405190810160405280929190818152602001828054611e6f90614203565b8015611ebc5780601f10611e9157610100808354040283529160200191611ebc565b820191906000526020600020905b815481529060010190602001808311611e9f57829003601f168201915b50505050509a509c509c509c509c509c509c509c509c509c509c509c509c505091939597999b5091939597999b565b60008281526011602090815260408083206001600160a01b0385168452909152812054808203611f1f576000915050610bd5565b600084815260106020526040902060030154611f3c82606461417b565b611f469190614192565b949350505050565b611f566133fd565b6000828152600760205260409020600981015462010000900460ff1615611f8f5760405162461bcd60e51b81526004016109fd9061426b565b600981015460ff16611fdc5760405162461bcd60e51b8152602060048201526016602482015275125b9d995b9d1bdc9e481b9bdd081858dc5d5a5c995960521b60448201526064016109fd565b6009810154610100900460ff16156120255760405162461bcd60e51b815260206004820152600c60248201526b416c7265616479206c69766560a01b60448201526064016109fd565b60098101805461ff001916610100179055600681015415612090576007810154600a5460038301546001600160a01b03909216916000916120659161417b565b9050600081846006015461207991906141b4565b9050801561208c5761208c838287613676565b5050505b827f368cd451e59d0e471924b1c520ef809cce3afed79e45970586f6b0643dd544e4836040516120c291815260200190565b60405180910390a2505050565b6120d76133fd565b6001600160a01b0384166121205760405162461bcd60e51b815260206004820152601060248201526f496e76616c696420747265617375727960801b60448201526064016109fd565b6001600160a01b03831661216b5760405162461bcd60e51b8152602060048201526012602482015271496e76616c6964206f7065726174696f6e7360701b60448201526064016109fd565b6001600160a01b0382166121c15760405162461bcd60e51b815260206004820152601760248201527f496e76616c696420746f6b656e206c697175696469747900000000000000000060448201526064016109fd565b6001600160a01b03811661220c5760405162461bcd60e51b8152602060048201526012602482015271125b9d985b1a59081a5b9d995cdd1b595b9d60721b60448201526064016109fd565b600280546001600160a01b0395861661010002610100600160a81b0319909116179055600380549385166001600160a01b0319948516179055600480549285169284169290921790915560058054919093169116179055565b61226d6133fd565b60008681526010602052604090206006015460ff16156122c55760405162461bcd60e51b81526020600482015260136024820152724361726420616c72656164792065786973747360681b60448201526064016109fd565b6040805160e0810182528681526020808201879052818301869052606082018590526080820185905260a08201849052600160c083015260008981526010909152919091208151819061231890826142dd565b506020820151600182019061232d90826142dd565b5060408201516002820155606082015160038201556080820151600482015560a0820151600582015560c0909101516006909101805460ff1916911515919091179055505050505050565b612380613457565b6123886134b0565b6001600160a01b0383166000908152600d602052604090205460ff166123c05760405162461bcd60e51b81526004016109fd906143db565b60008281526010602052604090206006015460ff166123f15760405162461bcd60e51b81526004016109fd906141c7565b600081116124365760405162461bcd60e51b81526020600482015260126024820152710536861726573206d757374206265203e20360741b60448201526064016109fd565b6000828152601060205260409020600401548111156124975760405162461bcd60e51b815260206004820152601b60248201527f4e6f7420656e6f7567682073686172657320617661696c61626c65000000000060448201526064016109fd565b6000828152601060205260408120600381015460028201549192916124bc9190614192565b905060006124ca828561417b565b9050856124e26001600160a01b0382163330856134f6565b60008681526011602090815260408083203384529091528120805487929061250b9084906141f0565b909155505060008681526011602090815260408083203384529091528120426001909101556004850180548792906125449084906141b4565b9091555050600354612563906001600160a01b03838116911684613646565b6040805186815260208101849052879133917fec7a90f2defdaa104c0f263369120ee24cba82876ef97c2eaf6e4e7150ec9c75910160405180910390a3505050506125ad60018055565b505050565b6007602052600090815260409020805481906125cd90614203565b80601f01602080910402602001604051908101604052809291908181526020018280546125f990614203565b80156126465780601f1061261b57610100808354040283529160200191612646565b820191906000526020600020905b81548152906001019060200180831161262957829003601f168201915b50505050509080600101805461265b90614203565b80601f016020809104026020016040519081016040528092919081815260200182805461268790614203565b80156126d45780601f106126a9576101008083540402835291602001916126d4565b820191906000526020600020905b8154815290600101906020018083116126b757829003601f168201915b505050506002830154600384015460048501546005860154600687015460078801546008890154600990990154979895979496509294919390926001600160a01b0316919060ff80821691610100810482169162010000909104168c565b61273a613457565b6127426134b0565b6000828152601260205260409020805483146127955760405162461bcd60e51b8152602060048201526012602482015271139bc81858dd1a5d99481c1c9bdc1bdcd85b60721b60448201526064016109fd565b806004015442106127de5760405162461bcd60e51b8152602060048201526013602482015272159bdd1a5b99c81c195c9a5bd908195b991959606a1b60448201526064016109fd565b600581015460ff16156128265760405162461bcd60e51b815260206004820152601060248201526f105b1c9958591e48195e1958dd5d195960821b60448201526064016109fd565b33600090815260068201602052604090205460ff16156128785760405162461bcd60e51b815260206004820152600d60248201526c105b1c9958591e481d9bdd1959609a1b60448201526064016109fd565b6000838152601160209081526040808320338452909152902054806128ce5760405162461bcd60e51b815260206004820152600c60248201526b04e6f206f776e6572736869760a41b60448201526064016109fd565b3360009081526006830160205260409020805460ff19166001179055821561290f578082600201600082825461290491906141f0565b909155506129299050565b8082600301600082825461292391906141f0565b90915550505b60408051841515815260208101839052339186917f03517c80ea2ef27bc391276f878760d7de484621a186d22892e639ddb485ecf7910160405180910390a360008260030154836002015461297e91906141f0565b60008681526010602052604090206003015460028501549192506033916129a690606461417b565b6129b09190614192565b106129be576129be856137ac565b505050610e9260018055565b6129d26133fd565b60008281526007602052604090206009810154610100900460ff1615612a3a5760405162461bcd60e51b815260206004820152601c60248201527f416c7265616479206c697665202d2063616e6e6f742063616e63656c0000000060448201526064016109fd565b600981015462010000900460ff1615612a895760405162461bcd60e51b8152602060048201526011602482015270105b1c9958591e4818d85b98d95b1b1959607a1b60448201526064016109fd565b60098101805462ff000019166201000017905560405183907f7938a8c5a147366bd3298d75f213fbe6f9aed9118224b5b2a49d3a678b229375906120c290859061447c565b612ad6613457565b612ade6134b0565b6000828152600760205260409020600981015462010000900460ff1615612b175760405162461bcd60e51b81526004016109fd9061426b565b6009810154610100900460ff1615612b695760405162461bcd60e51b81526020600482015260156024820152745072652d73616c6520616c7265616479206c69766560581b60448201526064016109fd565b80600801544210612bad5760405162461bcd60e51b815260206004820152600e60248201526d141c994b5cd85b1948195b99195960921b60448201526064016109fd565b60008211612bcd5760405162461bcd60e51b81526004016109fd9061423d565b80600301548160020154612be191906141b4565b821115612c305760405162461bcd60e51b815260206004820152601a60248201527f4e6f7420656e6f756768207061636b7320617661696c61626c6500000000000060448201526064016109fd565b6000816004015483612c42919061417b565b60078301546009549192506001600160a01b039081169116612ca15760405162461bcd60e51b8152602060048201526018602482015277125b9d995b9d1bdc9e481dd85b1b195d081b9bdd081cd95d60421b60448201526064016109fd565b600954612cbd906001600160a01b0383811691339116856134f6565b83836003016000828254612cd191906141f0565b9250508190555081836006016000828254612cec91906141f0565b9091555050336000908152600a8401602052604081208054869290612d129084906141f0565b90915550506040805185815260208101849052869133917f88e1742b58ea40c9cfa6a086d3107491b2cb0e803838e5c8ed622dcb8c946031910160405180910390a3505050610e9260018055565b612d68613457565b6000818152600760205260409020600981015462010000900460ff16612dc95760405162461bcd60e51b8152602060048201526016602482015275141c994b5cd85b19481b9bdd0818d85b98d95b1b195960521b60448201526064016109fd565b336000908152600b8201602052604090205460ff1615612e1d5760405162461bcd60e51b815260206004820152600f60248201526e105b1c9958591e4818db185a5b5959608a1b60448201526064016109fd565b600981015460ff1615612e865760405162461bcd60e51b815260206004820152602b60248201527f496e76656e746f727920616c726561647920707572636861736564202d20636160448201526a1b9b9bdd081c99599d5b9960aa1b60648201526084016109fd565b336000908152600a8201602052604090205480612edd5760405162461bcd60e51b8152602060048201526015602482015274139bc81c1d5c98da185cd9481d1bc81c99599d5b99605a1b60448201526064016109fd565b6000826004015482612eef919061417b565b336000818152600b860160205260409020805460ff1916600117905560078501549192506001600160a01b039190911690612f2c90829084613646565b604051828152859033907f17c1d890f3ffba4991a771a0b55802a1eff3159d0cce950fb68d1360530393d99060200160405180910390a350505050612f7060018055565b50565b612f7b613457565b612f836134b0565b6001600160a01b0383166000908152600d602052604090205460ff16612fbb5760405162461bcd60e51b81526004016109fd906143db565b60008111612fdb5760405162461bcd60e51b81526004016109fd9061423d565b600c548210612ffc5760405162461bcd60e51b81526004016109fd9061413b565b6000828152600b60205260409020600381015460ff166130565760405162461bcd60e51b8152602060048201526015602482015274427265616b2074797065206e6f742061637469766560581b60448201526064016109fd565b60028101546001820154859190600061306f838761417b565b9050600061307d838861417b565b9050600061308b82846141b4565b90506130a26001600160a01b0387163330866134f6565b6003546130bc906001600160a01b03888116911684613646565b6130c786828b613676565b3360008181526013602090815260408083208054600181018255908452928290209092018c905581518b8152908101869052908101849052606081018390528a91907f51c2e969e2549ae7c12274abef504843bee3a73c58dbe871c26eb9fc01d7043b9060800160405180910390a3505050505050506125ad60018055565b61314e6133fd565b6001600160a01b0381166131b35760405162461bcd60e51b815260206004820152602660248201527f4f776e61626c653a206e6577206f776e657220697320746865207a65726f206160448201526564647265737360d01b60648201526084016109fd565b612f70816135b9565b6131c46133fd565b6107d08111156132095760405162461bcd60e51b815260206004820152601060248201526f13585e080c8c0948191a5cd8dbdd5b9d60821b60448201526064016109fd565b600f55565b6013602052816000526040600020818154811061322a57600080fd5b90600052602060002001600091509150505481565b613247613457565b60008181526012602052604090206005015460ff1661329e5760405162461bcd60e51b8152602060048201526013602482015272109d5e5bdd5d081b9bdd08195e1958dd5d1959606a1b60448201526064016109fd565b6000818152601160209081526040808320338452909152902054806132fa5760405162461bcd60e51b81526020600482015260126024820152714e6f2073686172657320746f20636c61696d60701b60448201526064016109fd565b60008281526010602090815260408083206003015460129092528220600101549091906127109061332d9060fa9061417b565b6133379190614192565b60008581526012602052604090206001015461335391906141b4565b9050600082613362858461417b565b61336c9190614192565b6000868152601160209081526040808320338085529083528184208490558984526012909252909120600501549192506101009091046001600160a01b0316906133b890829084613646565b604051828152339087907f829a492b098e906d67afcc4c67889ac97486df205cd59c8749f8f61d782203829060200160405180910390a35050505050612f7060018055565b6000546001600160a01b031633146113575760405162461bcd60e51b815260206004820181905260248201527f4f776e61626c653a2063616c6c6572206973206e6f7420746865206f776e657260448201526064016109fd565b6002600154036134a95760405162461bcd60e51b815260206004820152601f60248201527f5265656e7472616e637947756172643a207265656e7472616e742063616c6c0060448201526064016109fd565b6002600155565b60025460ff16156113575760405162461bcd60e51b815260206004820152601060248201526f14185d5cd8589b194e881c185d5cd95960821b60448201526064016109fd565b6040516001600160a01b03808516602483015283166044820152606481018290526135619085906323b872dd60e01b906084015b60408051601f198184030181529190526020810180516001600160e01b03166001600160e01b0319909316929092179091526138a8565b50505050565b61356f61397d565b6002805460ff191690557f5db9ee0a495bf2e6ff9c91a7834c1ba4fdd244a5e8aa4e537bd38aeae4b073aa335b6040516001600160a01b03909116815260200160405180910390a1565b600080546001600160a01b038381166001600160a01b0319831681178455604051919092169283917f8be0079c531659141344cd1fd0a4f28419497f9722a3daafe3b4186f6b6457e09190a35050565b6136116134b0565b6002805460ff191660011790557f62e78cea01bee320cd4e420270b5ea74000d11b0c9f74754ebdbfc544b05a25861359c3390565b6040516001600160a01b0383166024820152604481018290526125ad90849063a9059cbb60e01b9060640161352a565b6000606461368560328561417b565b61368f9190614192565b9050600060646136a060148661417b565b6136aa9190614192565b9050600060646136bb60148761417b565b6136c59190614192565b9050600081836136d586896141b4565b6136df91906141b4565b6136e991906141b4565b60025490915061370b906001600160a01b038981169161010090041686613646565b600354613725906001600160a01b03898116911685613646565b60045461373f906001600160a01b03898116911684613646565b600554613759906001600160a01b03898116911683613646565b60408051858152602081018590529081018390526060810182905285907fe17236f5dcccef76cccad15f0166f36d9333aa7d06e532f9ea301a301de068fc9060800160405180910390a250505050505050565b6000818152601260205260409020600581015460ff16156138025760405162461bcd60e51b815260206004820152601060248201526f105b1c9958591e48195e1958dd5d195960821b60448201526064016109fd565b60008281526010602052604081206001830154909161271061382560fa8461417b565b61382f9190614192565b9050600061383d82846141b4565b9050613848826139c6565b600585018054600160ff19918216179091556006850180549091169055604080518281526020810184905287917fbb742e35cdabef7c22457d8ac19120b6e8c14c6fb565042c587e5409ecb503df910160405180910390a2505050505050565b60006138fd826040518060400160405280602081526020017f5361666545524332303a206c6f772d6c6576656c2063616c6c206661696c6564815250856001600160a01b0316613a419092919063ffffffff16565b905080516000148061391e57508080602001905181019061391e919061448f565b6125ad5760405162461bcd60e51b815260206004820152602a60248201527f5361666545524332303a204552433230206f7065726174696f6e20646964206e6044820152691bdd081cdd58d8d9595960b21b60648201526084016109fd565b60025460ff166113575760405162461bcd60e51b815260206004820152601460248201527314185d5cd8589b194e881b9bdd081c185d5cd95960621b60448201526064016109fd565b600060646139d560328461417b565b6139df9190614192565b9050600060646139f060148561417b565b6139fa9190614192565b905060006064613a0b60148661417b565b613a159190614192565b905060008183613a2586886141b4565b613a2f91906141b4565b613a3991906141b4565b505050505050565b6060611f46848460008585600080866001600160a01b03168587604051613a6891906144ac565b60006040518083038185875af1925050503d8060008114613aa5576040519150601f19603f3d011682016040523d82523d6000602084013e613aaa565b606091505b5091509150613abb87838387613ac6565b979650505050505050565b60608315613b35578251600003613b2e576001600160a01b0385163b613b2e5760405162461bcd60e51b815260206004820152601d60248201527f416464726573733a2063616c6c20746f206e6f6e2d636f6e747261637400000060448201526064016109fd565b5081611f46565b611f468383815115613b4a5781518083602001fd5b8060405162461bcd60e51b81526004016109fd919061447c565b8015158114612f7057600080fd5b60008060008060808587031215613b8857600080fd5b8435935060208501359250604085013591506060850135613ba881613b64565b939692955090935050565b80356001600160a01b0381168114613bca57600080fd5b919050565b60008060408385031215613be257600080fd5b82359150613bf260208401613bb3565b90509250929050565b60008060408385031215613c0e57600080fd5b50508035926020909101359150565b600060208284031215613c2f57600080fd5b5035919050565b60005b83811015613c51578181015183820152602001613c39565b50506000910152565b60008151808452613c72816020860160208601613c36565b601f01601f19169290920160200192915050565b608081526000613c996080830187613c5a565b60208301959095525060408101929092521515606090910152919050565b634e487b7160e01b600052604160045260246000fd5b600082601f830112613cde57600080fd5b813567ffffffffffffffff80821115613cf957613cf9613cb7565b604051601f8301601f19908116603f01168101908282118183101715613d2157613d21613cb7565b81604052838152866020858801011115613d3a57600080fd5b836020870160208301376000602085830101528094505050505092915050565b600080600060608486031215613d6f57600080fd5b833567ffffffffffffffff811115613d8657600080fd5b613d9286828701613ccd565b9660208601359650604090950135949350505050565b600060208284031215613dba57600080fd5b613dc382613bb3565b9392505050565b600080600080600080600060e0888a031215613de557600080fd5b873567ffffffffffffffff80821115613dfd57600080fd5b613e098b838c01613ccd565b985060208a0135915080821115613e1f57600080fd5b50613e2c8a828b01613ccd565b965050604088013594506060880135935060808801359250613e5060a08901613bb3565b915060c0880135905092959891949750929550565b60008060408385031215613e7857600080fd5b613e8183613bb3565b946020939093013593505050565b6020808252825182820181905260009190848201906040850190845b81811015613ec757835183529284019291840191600101613eab565b50909695505050505050565b60e081526000613ee660e083018a613c5a565b8281036020840152613ef8818a613c5a565b604084019890985250506060810194909452608084019290925260a0830152151560c09091015292915050565b61018081526000613f3a61018083018f613c5a565b8281036020840152613f4c818f613c5a565b9150508b60408301528a60608301528960808301528860a08301528760c083015260018060a01b03871660e083015285610100830152841515610120830152831515610140830152613fa361016083018415159052565b9d9c50505050505050505050505050565b60008060008060808587031215613fca57600080fd5b613fd385613bb3565b9350613fe160208601613bb3565b9250613fef60408601613bb3565b9150613ffd60608601613bb3565b905092959194509250565b60008060008060008060c0878903121561402157600080fd5b86359550602087013567ffffffffffffffff8082111561404057600080fd5b61404c8a838b01613ccd565b9650604089013591508082111561406257600080fd5b5061406f89828a01613ccd565b945050606087013592506080870135915060a087013590509295509295509295565b6000806000606084860312156140a657600080fd5b6140af84613bb3565b95602085013595506040909401359392505050565b600080604083850312156140d757600080fd5b8235915060208301356140e981613b64565b809150509250929050565b6000806040838503121561410757600080fd5b82359150602083013567ffffffffffffffff81111561412557600080fd5b61413185828601613ccd565b9150509250929050565b60208082526010908201526f125b9d985b1a5908189c99585ac8125160821b604082015260600190565b634e487b7160e01b600052601160045260246000fd5b8082028115828204841417610bd557610bd5614165565b6000826141af57634e487b7160e01b600052601260045260246000fd5b500490565b81810381811115610bd557610bd5614165565b6020808252600f908201526e43617264206e6f742061637469766560881b604082015260600190565b80820180821115610bd557610bd5614165565b600181811c9082168061421757607f821691505b60208210810361423757634e487b7160e01b600052602260045260246000fd5b50919050565b60208082526014908201527305175616e74697479206d757374206265203e20360641b604082015260600190565b602080825260129082015271141c994b5cd85b194818d85b98d95b1b195960721b604082015260600190565b601f8211156125ad57600081815260208120601f850160051c810160208610156142be5750805b601f850160051c820191505b81811015613a39578281556001016142ca565b815167ffffffffffffffff8111156142f7576142f7613cb7565b61430b816143058454614203565b84614297565b602080601f83116001811461434057600084156143285750858301515b600019600386901b1c1916600185901b178555613a39565b600085815260208120601f198616915b8281101561436f57888601518255948401946001909101908401614350565b508582101561438d5787850151600019600388901b60f8161c191681555b5050505050600190811b01905550565b6000600182016143af576143af614165565b5060010190565b6060815260006143c96060830186613c5a565b60208301949094525060400152919050565b602080825260139082015272151bdad95b881b9bdd081cdd5c1c1bdc9d1959606a1b604082015260600190565b60c08152600061441b60c0830189613c5a565b828103602084015261442d8189613c5a565b9150508560408301528460608301528360808301528260a0830152979650505050505050565b6020808252600f908201526e496e76616c6964206164647265737360881b604082015260600190565b602081526000613dc36020830184613c5a565b6000602082840312156144a157600080fd5b8151613dc381613b64565b600082516144be818460208701613c36565b919091019291505056fea2646970667358221220e18bf5f92042937b3565411171778d7edebece7214f31eba06d7b3b9be82a62164736f6c63430008130033","opcodes":"PUSH1 0x80 PUSH1 0x40 MSTORE PUSH8 0x8AC7230489E80000 PUSH1 0xA SSTORE PUSH2 0x1F4 PUSH1 0xF SSTORE CALLVALUE DUP1 ISZERO PUSH3 0x23 JUMPI PUSH1 0x0 DUP1 REVERT JUMPDEST POP PUSH1 0x40 MLOAD PUSH3 0x47D5 CODESIZE SUB DUP1 PUSH3 0x47D5 DUP4 CODECOPY DUP2 ADD PUSH1 0x40 DUP2 SWAP1 MSTORE PUSH3 0x46 SWAP2 PUSH3 0x26A JUMP JUMPDEST PUSH3 0x51 CALLER PUSH3 0x1FD JUMP JUMPDEST PUSH1 0x1 DUP1 SSTORE PUSH1 0x2 DUP1 SLOAD PUSH1 0xFF NOT AND SWAP1 SSTORE PUSH1 0x1 PUSH1 0x1 PUSH1 0xA0 SHL SUB DUP5 AND PUSH3 0xAE JUMPI PUSH1 0x40 MLOAD PUSH3 0x461BCD PUSH1 0xE5 SHL DUP2 MSTORE PUSH1 0x20 PUSH1 0x4 DUP3 ADD MSTORE PUSH1 0x10 PUSH1 0x24 DUP3 ADD MSTORE PUSH16 0x496E76616C6964207472656173757279 PUSH1 0x80 SHL PUSH1 0x44 DUP3 ADD MSTORE PUSH1 0x64 ADD JUMPDEST PUSH1 0x40 MLOAD DUP1 SWAP2 SUB SWAP1 REVERT JUMPDEST PUSH1 0x1 PUSH1 0x1 PUSH1 0xA0 SHL SUB DUP4 AND PUSH3 0xFB JUMPI PUSH1 0x40 MLOAD PUSH3 0x461BCD PUSH1 0xE5 SHL DUP2 MSTORE PUSH1 0x20 PUSH1 0x4 DUP3 ADD MSTORE PUSH1 0x12 PUSH1 0x24 DUP3 ADD MSTORE PUSH18 0x496E76616C6964206F7065726174696F6E73 PUSH1 0x70 SHL PUSH1 0x44 DUP3 ADD MSTORE PUSH1 0x64 ADD PUSH3 0xA5 JUMP JUMPDEST PUSH1 0x1 PUSH1 0x1 PUSH1 0xA0 SHL SUB DUP3 AND PUSH3 0x153 JUMPI PUSH1 0x40 MLOAD PUSH3 0x461BCD PUSH1 0xE5 SHL DUP2 MSTORE PUSH1 0x20 PUSH1 0x4 DUP3 ADD MSTORE PUSH1 0x17 PUSH1 0x24 DUP3 ADD MSTORE PUSH32 0x496E76616C696420746F6B656E206C6971756964697479000000000000000000 PUSH1 0x44 DUP3 ADD MSTORE PUSH1 0x64 ADD PUSH3 0xA5 JUMP JUMPDEST PUSH1 0x1 PUSH1 0x1 PUSH1 0xA0 SHL SUB DUP2 AND PUSH3 0x1A0 JUMPI PUSH1 0x40 MLOAD PUSH3 0x461BCD PUSH1 0xE5 SHL DUP2 MSTORE PUSH1 0x20 PUSH1 0x4 DUP3 ADD MSTORE PUSH1 0x12 PUSH1 0x24 DUP3 ADD MSTORE PUSH18 0x125B9D985B1A59081A5B9D995CDD1B595B9D PUSH1 0x72 SHL PUSH1 0x44 DUP3 ADD MSTORE PUSH1 0x64 ADD PUSH3 0xA5 JUMP JUMPDEST PUSH1 0x2 DUP1 SLOAD PUSH1 0x1 PUSH1 0x1 PUSH1 0xA0 SHL SUB SWAP6 DUP7 AND PUSH2 0x100 MUL PUSH2 0x100 PUSH1 0x1 PUSH1 0xA8 SHL SUB NOT SWAP1 SWAP2 AND OR SWAP1 SSTORE PUSH1 0x3 DUP1 SLOAD SWAP4 DUP6 AND PUSH1 0x1 PUSH1 0x1 PUSH1 0xA0 SHL SUB NOT SWAP5 DUP6 AND OR SWAP1 SSTORE PUSH1 0x4 DUP1 SLOAD SWAP3 DUP6 AND SWAP3 DUP5 AND SWAP3 SWAP1 SWAP3 OR SWAP1 SWAP2 SSTORE PUSH1 0x5 DUP1 SLOAD SWAP2 SWAP1 SWAP4 AND SWAP2 AND OR SWAP1 SSTORE PUSH3 0x2C7 JUMP JUMPDEST PUSH1 0x0 DUP1 SLOAD PUSH1 0x1 PUSH1 0x1 PUSH1 0xA0 SHL SUB DUP4 DUP2 AND PUSH1 0x1 PUSH1 0x1 PUSH1 0xA0 SHL SUB NOT DUP4 AND DUP2 OR DUP5 SSTORE PUSH1 0x40 MLOAD SWAP2 SWAP1 SWAP3 AND SWAP3 DUP4 SWAP2 PUSH32 0x8BE0079C531659141344CD1FD0A4F28419497F9722A3DAAFE3B4186F6B6457E0 SWAP2 SWAP1 LOG3 POP POP JUMP JUMPDEST DUP1 MLOAD PUSH1 0x1 PUSH1 0x1 PUSH1 0xA0 SHL SUB DUP2 AND DUP2 EQ PUSH3 0x265 JUMPI PUSH1 0x0 DUP1 REVERT JUMPDEST SWAP2 SWAP1 POP JUMP JUMPDEST PUSH1 0x0 DUP1 PUSH1 0x0 DUP1 PUSH1 0x80 DUP6 DUP8 SUB SLT ISZERO PUSH3 0x281 JUMPI PUSH1 0x0 DUP1 REVERT JUMPDEST PUSH3 0x28C DUP6 PUSH3 0x24D JUMP JUMPDEST SWAP4 POP PUSH3 0x29C PUSH1 0x20 DUP7 ADD PUSH3 0x24D JUMP JUMPDEST SWAP3 POP PUSH3 0x2AC PUSH1 0x40 DUP7 ADD PUSH3 0x24D JUMP JUMPDEST SWAP2 POP PUSH3 0x2BC PUSH1 0x60 DUP7 ADD PUSH3 0x24D JUMP JUMPDEST SWAP1 POP SWAP3 SWAP6 SWAP2 SWAP5 POP SWAP3 POP JUMP JUMPDEST PUSH2 0x44FE DUP1 PUSH3 0x2D7 PUSH1 0x0 CODECOPY PUSH1 0x0 RETURN INVALID PUSH1 0x80 PUSH1 0x40 MSTORE CALLVALUE DUP1 ISZERO PUSH2 0x10 JUMPI PUSH1 0x0 DUP1 REVERT JUMPDEST POP PUSH1 0x4 CALLDATASIZE LT PUSH2 0x3D0 JUMPI PUSH1 0x0 CALLDATALOAD PUSH1 0xE0 SHR DUP1 PUSH4 0x8DC10768 GT PUSH2 0x1FF JUMPI DUP1 PUSH4 0xD701B6C0 GT PUSH2 0x11A JUMPI DUP1 PUSH4 0xF236AFDF GT PUSH2 0xAD JUMPI DUP1 PUSH4 0xFBD51682 GT PUSH2 0x7C JUMPI DUP1 PUSH4 0xFBD51682 EQ PUSH2 0x991 JUMPI DUP1 PUSH4 0xFD29F2B3 EQ PUSH2 0x99B JUMPI DUP1 PUSH4 0xFD72E22A EQ PUSH2 0x9AE JUMPI DUP1 PUSH4 0xFE98B8CE EQ PUSH2 0x9C1 JUMPI PUSH1 0x0 DUP1 REVERT JUMPDEST DUP1 PUSH4 0xF236AFDF EQ PUSH2 0x94F JUMPI DUP1 PUSH4 0xF2FDE38B EQ PUSH2 0x962 JUMPI DUP1 PUSH4 0xF3E7BA9F EQ PUSH2 0x975 JUMPI DUP1 PUSH4 0xFBAFA979 EQ PUSH2 0x988 JUMPI PUSH1 0x0 DUP1 REVERT JUMPDEST DUP1 PUSH4 0xE2AA1294 GT PUSH2 0xE9 JUMPI DUP1 PUSH4 0xE2AA1294 EQ PUSH2 0x903 JUMPI DUP1 PUSH4 0xEA801F5E EQ PUSH2 0x916 JUMPI DUP1 PUSH4 0xEBA9C7FF EQ PUSH2 0x929 JUMPI DUP1 PUSH4 0xECA34258 EQ PUSH2 0x93C JUMPI PUSH1 0x0 DUP1 REVERT JUMPDEST DUP1 PUSH4 0xD701B6C0 EQ PUSH2 0x8D6 JUMPI DUP1 PUSH4 0xD9589C5F EQ PUSH2 0x8DE JUMPI DUP1 PUSH4 0xDE0EC164 EQ PUSH2 0x8F1 JUMPI DUP1 PUSH4 0xE1A45218 EQ PUSH2 0x8FA JUMPI PUSH1 0x0 DUP1 REVERT JUMPDEST DUP1 PUSH4 0xAE135136 GT PUSH2 0x192 JUMPI DUP1 PUSH4 0xC4B532AB GT PUSH2 0x161 JUMPI DUP1 PUSH4 0xC4B532AB EQ PUSH2 0x89D JUMPI DUP1 PUSH4 0xC73BFE6E EQ PUSH2 0x8B0 JUMPI DUP1 PUSH4 0xD191D7F4 EQ PUSH2 0x882 JUMPI DUP1 PUSH4 0xD4D766E6 EQ PUSH2 0x8C3 JUMPI PUSH1 0x0 DUP1 REVERT JUMPDEST DUP1 PUSH4 0xAE135136 EQ PUSH2 0x85C JUMPI DUP1 PUSH4 0xB6FA37BC EQ PUSH2 0x86F JUMPI DUP1 PUSH4 0xBB6692E3 EQ PUSH2 0x882 JUMPI DUP1 PUSH4 0xC07DEB33 EQ PUSH2 0x88A JUMPI PUSH1 0x0 DUP1 REVERT JUMPDEST DUP1 PUSH4 0x9BE95FF2 GT PUSH2 0x1CE JUMPI DUP1 PUSH4 0x9BE95FF2 EQ PUSH2 0x7F8 JUMPI DUP1 PUSH4 0x9CACDF70 EQ PUSH2 0x80B JUMPI DUP1 PUSH4 0xA207B5BB EQ PUSH2 0x836 JUMPI DUP1 PUSH4 0xAD1609CB EQ PUSH2 0x849 JUMPI PUSH1 0x0 DUP1 REVERT JUMPDEST DUP1 PUSH4 0x8DC10768 EQ PUSH2 0x6F9 JUMPI DUP1 PUSH4 0x8DD51E2A EQ PUSH2 0x71F JUMPI DUP1 PUSH4 0x9046306D EQ PUSH2 0x759 JUMPI DUP1 PUSH4 0x95CCEA67 EQ PUSH2 0x7E5 JUMPI PUSH1 0x0 DUP1 REVERT JUMPDEST DUP1 PUSH4 0x5571251E GT PUSH2 0x2EF JUMPI DUP1 PUSH4 0x76319190 GT PUSH2 0x282 JUMPI DUP1 PUSH4 0x843DE999 GT PUSH2 0x251 JUMPI DUP1 PUSH4 0x843DE999 EQ PUSH2 0x6AD JUMPI DUP1 PUSH4 0x8456CB59 EQ PUSH2 0x6C0 JUMPI DUP1 PUSH4 0x85D85966 EQ PUSH2 0x6C8 JUMPI DUP1 PUSH4 0x8DA5CB5B EQ PUSH2 0x6E8 JUMPI PUSH1 0x0 DUP1 REVERT JUMPDEST DUP1 PUSH4 0x76319190 EQ PUSH2 0x5DE JUMPI DUP1 PUSH4 0x7C000293 EQ PUSH2 0x5F1 JUMPI DUP1 PUSH4 0x7C7116EA EQ PUSH2 0x604 JUMPI DUP1 PUSH4 0x7E0C4C89 EQ PUSH2 0x69A JUMPI PUSH1 0x0 DUP1 REVERT JUMPDEST DUP1 PUSH4 0x6D69FCAF GT PUSH2 0x2BE JUMPI DUP1 PUSH4 0x6D69FCAF EQ PUSH2 0x59D JUMPI DUP1 PUSH4 0x6EDA90D0 EQ PUSH2 0x5B0 JUMPI DUP1 PUSH4 0x715018A6 EQ PUSH2 0x5C3 JUMPI DUP1 PUSH4 0x75ABE3EF EQ PUSH2 0x5CB JUMPI PUSH1 0x0 DUP1 REVERT JUMPDEST DUP1 PUSH4 0x5571251E EQ PUSH2 0x509 JUMPI DUP1 PUSH4 0x5C975ABB EQ PUSH2 0x550 JUMPI DUP1 PUSH4 0x676C4631 EQ PUSH2 0x567 JUMPI DUP1 PUSH4 0x68C4AC26 EQ PUSH2 0x57A JUMPI PUSH1 0x0 DUP1 REVERT JUMPDEST DUP1 PUSH4 0x31DB2489 GT PUSH2 0x367 JUMPI DUP1 PUSH4 0x3F4BA83A GT PUSH2 0x336 JUMPI DUP1 PUSH4 0x3F4BA83A EQ PUSH2 0x4C3 JUMPI DUP1 PUSH4 0x3FBFABB0 EQ PUSH2 0x4CB JUMPI DUP1 PUSH4 0x4626402B EQ PUSH2 0x4DE JUMPI DUP1 PUSH4 0x553CB0DE EQ PUSH2 0x4F6 JUMPI PUSH1 0x0 DUP1 REVERT JUMPDEST DUP1 PUSH4 0x31DB2489 EQ PUSH2 0x48C JUMPI DUP1 PUSH4 0x32696174 EQ PUSH2 0x49F JUMPI DUP1 PUSH4 0x356221B8 EQ PUSH2 0x4A7 JUMPI DUP1 PUSH4 0x3A0D727C EQ PUSH2 0x4BA JUMPI PUSH1 0x0 DUP1 REVERT JUMPDEST DUP1 PUSH4 0x23FD530D GT PUSH2 0x3A3 JUMPI DUP1 PUSH4 0x23FD530D EQ PUSH2 0x445 JUMPI DUP1 PUSH4 0x244CFD98 EQ PUSH2 0x458 JUMPI DUP1 PUSH4 0x25C26786 EQ PUSH2 0x47B JUMPI DUP1 PUSH4 0x2ED748AD EQ PUSH2 0x484 JUMPI PUSH1 0x0 DUP1 REVERT JUMPDEST DUP1 PUSH4 0x359FEA9 EQ PUSH2 0x3D5 JUMPI DUP1 PUSH4 0xC40ED3E EQ PUSH2 0x405 JUMPI DUP1 PUSH4 0x1153B5F3 EQ PUSH2 0x41A JUMPI DUP1 PUSH4 0x1C6F902C EQ PUSH2 0x432 JUMPI JUMPDEST PUSH1 0x0 DUP1 REVERT JUMPDEST PUSH1 0x6 SLOAD PUSH2 0x3E8 SWAP1 PUSH1 0x1 PUSH1 0x1 PUSH1 0xA0 SHL SUB AND DUP2 JUMP JUMPDEST PUSH1 0x40 MLOAD PUSH1 0x1 PUSH1 0x1 PUSH1 0xA0 SHL SUB SWAP1 SWAP2 AND DUP2 MSTORE PUSH1 0x20 ADD JUMPDEST PUSH1 0x40 MLOAD DUP1 SWAP2 SUB SWAP1 RETURN JUMPDEST PUSH2 0x418 PUSH2 0x413 CALLDATASIZE PUSH1 0x4 PUSH2 0x3B72 JUMP JUMPDEST PUSH2 0x9D4 JUMP JUMPDEST STOP JUMPDEST PUSH2 0x424 PUSH3 0x278D00 DUP2 JUMP JUMPDEST PUSH1 0x40 MLOAD SWAP1 DUP2 MSTORE PUSH1 0x20 ADD PUSH2 0x3FC JUMP JUMPDEST PUSH2 0x424 PUSH2 0x440 CALLDATASIZE PUSH1 0x4 PUSH2 0x3BCF JUMP JUMPDEST PUSH2 0xB16 JUMP JUMPDEST PUSH2 0x418 PUSH2 0x453 CALLDATASIZE PUSH1 0x4 PUSH2 0x3BFB JUMP JUMPDEST PUSH2 0xBDB JUMP JUMPDEST PUSH2 0x46B PUSH2 0x466 CALLDATASIZE PUSH1 0x4 PUSH2 0x3C1D JUMP JUMPDEST PUSH2 0xE96 JUMP JUMPDEST PUSH1 0x40 MLOAD PUSH2 0x3FC SWAP5 SWAP4 SWAP3 SWAP2 SWAP1 PUSH2 0x3C86 JUMP JUMPDEST PUSH2 0x424 PUSH1 0xC SLOAD DUP2 JUMP JUMPDEST PUSH2 0x424 PUSH1 0xA DUP2 JUMP JUMPDEST PUSH2 0x418 PUSH2 0x49A CALLDATASIZE PUSH1 0x4 PUSH2 0x3BFB JUMP JUMPDEST PUSH2 0xF4B JUMP JUMPDEST PUSH2 0x424 PUSH1 0x32 DUP2 JUMP JUMPDEST PUSH2 0x418 PUSH2 0x4B5 CALLDATASIZE PUSH1 0x4 PUSH2 0x3BFB JUMP JUMPDEST PUSH2 0x117A JUMP JUMPDEST PUSH2 0x424 PUSH1 0xF SLOAD DUP2 JUMP JUMPDEST PUSH2 0x418 PUSH2 0x1347 JUMP JUMPDEST PUSH2 0x418 PUSH2 0x4D9 CALLDATASIZE PUSH1 0x4 PUSH2 0x3D5A JUMP JUMPDEST PUSH2 0x1359 JUMP JUMPDEST PUSH1 0x2 SLOAD PUSH2 0x3E8 SWAP1 PUSH2 0x100 SWAP1 DIV PUSH1 0x1 PUSH1 0x1 PUSH1 0xA0 SHL SUB AND DUP2 JUMP JUMPDEST PUSH2 0x418 PUSH2 0x504 CALLDATASIZE PUSH1 0x4 PUSH2 0x3C1D JUMP JUMPDEST PUSH2 0x1500 JUMP JUMPDEST PUSH2 0x53B PUSH2 0x517 CALLDATASIZE PUSH1 0x4 PUSH2 0x3BCF JUMP JUMPDEST PUSH1 0x11 PUSH1 0x20 SWAP1 DUP2 MSTORE PUSH1 0x0 SWAP3 DUP4 MSTORE PUSH1 0x40 DUP1 DUP5 KECCAK256 SWAP1 SWAP2 MSTORE SWAP1 DUP3 MSTORE SWAP1 KECCAK256 DUP1 SLOAD PUSH1 0x1 SWAP1 SWAP2 ADD SLOAD DUP3 JUMP JUMPDEST PUSH1 0x40 DUP1 MLOAD SWAP3 DUP4 MSTORE PUSH1 0x20 DUP4 ADD SWAP2 SWAP1 SWAP2 MSTORE ADD PUSH2 0x3FC JUMP JUMPDEST PUSH1 0x2 SLOAD PUSH1 0xFF AND JUMPDEST PUSH1 0x40 MLOAD SWAP1 ISZERO ISZERO DUP2 MSTORE PUSH1 0x20 ADD PUSH2 0x3FC JUMP JUMPDEST PUSH2 0x418 PUSH2 0x575 CALLDATASIZE PUSH1 0x4 PUSH2 0x3BFB JUMP JUMPDEST PUSH2 0x150D JUMP JUMPDEST PUSH2 0x557 PUSH2 0x588 CALLDATASIZE PUSH1 0x4 PUSH2 0x3DA8 JUMP JUMPDEST PUSH1 0xD PUSH1 0x20 MSTORE PUSH1 0x0 SWAP1 DUP2 MSTORE PUSH1 0x40 SWAP1 KECCAK256 SLOAD PUSH1 0xFF AND DUP2 JUMP JUMPDEST PUSH2 0x418 PUSH2 0x5AB CALLDATASIZE PUSH1 0x4 PUSH2 0x3DA8 JUMP JUMPDEST PUSH2 0x155B JUMP JUMPDEST PUSH2 0x424 PUSH2 0x5BE CALLDATASIZE PUSH1 0x4 PUSH2 0x3DCA JUMP JUMPDEST PUSH2 0x1587 JUMP JUMPDEST PUSH2 0x418 PUSH2 0x1838 JUMP JUMPDEST PUSH1 0xE SLOAD PUSH2 0x3E8 SWAP1 PUSH1 0x1 PUSH1 0x1 PUSH1 0xA0 SHL SUB AND DUP2 JUMP JUMPDEST PUSH2 0x418 PUSH2 0x5EC CALLDATASIZE PUSH1 0x4 PUSH2 0x3DA8 JUMP JUMPDEST PUSH2 0x184A JUMP JUMPDEST PUSH2 0x418 PUSH2 0x5FF CALLDATASIZE PUSH1 0x4 PUSH2 0x3DA8 JUMP JUMPDEST PUSH2 0x1873 JUMP JUMPDEST PUSH2 0x65A PUSH2 0x612 CALLDATASIZE PUSH1 0x4 PUSH2 0x3C1D JUMP JUMPDEST PUSH1 0x12 PUSH1 0x20 MSTORE PUSH1 0x0 SWAP1 DUP2 MSTORE PUSH1 0x40 SWAP1 KECCAK256 DUP1 SLOAD PUSH1 0x1 DUP3 ADD SLOAD PUSH1 0x2 DUP4 ADD SLOAD PUSH1 0x3 DUP5 ADD SLOAD PUSH1 0x4 DUP6 ADD SLOAD PUSH1 0x5 SWAP1 SWAP6 ADD SLOAD SWAP4 SWAP5 SWAP3 SWAP4 SWAP2 SWAP3 SWAP1 SWAP2 PUSH1 0xFF DUP2 AND SWAP1 PUSH2 0x100 SWAP1 DIV PUSH1 0x1 PUSH1 0x1 PUSH1 0xA0 SHL SUB AND DUP8 JUMP JUMPDEST PUSH1 0x40 DUP1 MLOAD SWAP8 DUP9 MSTORE PUSH1 0x20 DUP9 ADD SWAP7 SWAP1 SWAP7 MSTORE SWAP5 DUP7 ADD SWAP4 SWAP1 SWAP4 MSTORE PUSH1 0x60 DUP6 ADD SWAP2 SWAP1 SWAP2 MSTORE PUSH1 0x80 DUP5 ADD MSTORE ISZERO ISZERO PUSH1 0xA0 DUP4 ADD MSTORE PUSH1 0x1 PUSH1 0x1 PUSH1 0xA0 SHL SUB AND PUSH1 0xC0 DUP3 ADD MSTORE PUSH1 0xE0 ADD PUSH2 0x3FC JUMP JUMPDEST PUSH2 0x418 PUSH2 0x6A8 CALLDATASIZE PUSH1 0x4 PUSH2 0x3DA8 JUMP JUMPDEST PUSH2 0x18C3 JUMP JUMPDEST PUSH2 0x418 PUSH2 0x6BB CALLDATASIZE PUSH1 0x4 PUSH2 0x3E65 JUMP JUMPDEST PUSH2 0x192B JUMP JUMPDEST PUSH2 0x418 PUSH2 0x1ADC JUMP JUMPDEST PUSH2 0x6DB PUSH2 0x6D6 CALLDATASIZE PUSH1 0x4 PUSH2 0x3DA8 JUMP JUMPDEST PUSH2 0x1AEC JUMP JUMPDEST PUSH1 0x40 MLOAD PUSH2 0x3FC SWAP2 SWAP1 PUSH2 0x3E8F JUMP JUMPDEST PUSH1 0x0 SLOAD PUSH1 0x1 PUSH1 0x1 PUSH1 0xA0 SHL SUB AND PUSH2 0x3E8 JUMP JUMPDEST PUSH2 0x70C PUSH2 0x707 CALLDATASIZE PUSH1 0x4 PUSH2 0x3C1D JUMP JUMPDEST PUSH2 0x1B58 JUMP JUMPDEST PUSH1 0x40 MLOAD PUSH2 0x3FC SWAP8 SWAP7 SWAP6 SWAP5 SWAP4 SWAP3 SWAP2 SWAP1 PUSH2 0x3ED3 JUMP JUMPDEST PUSH2 0x424 PUSH2 0x72D CALLDATASIZE PUSH1 0x4 PUSH2 0x3BCF JUMP JUMPDEST PUSH1 0x0 DUP3 DUP2 MSTORE PUSH1 0x7 PUSH1 0x20 SWAP1 DUP2 MSTORE PUSH1 0x40 DUP1 DUP4 KECCAK256 PUSH1 0x1 PUSH1 0x1 PUSH1 0xA0 SHL SUB DUP6 AND DUP5 MSTORE PUSH1 0xA ADD SWAP1 SWAP2 MSTORE SWAP1 KECCAK256 SLOAD SWAP3 SWAP2 POP POP JUMP JUMPDEST PUSH2 0x7AD PUSH2 0x767 CALLDATASIZE PUSH1 0x4 PUSH2 0x3C1D JUMP JUMPDEST PUSH1 0x0 SWAP1 DUP2 MSTORE PUSH1 0x12 PUSH1 0x20 MSTORE PUSH1 0x40 SWAP1 KECCAK256 PUSH1 0x1 DUP2 ADD SLOAD PUSH1 0x2 DUP3 ADD SLOAD PUSH1 0x3 DUP4 ADD SLOAD PUSH1 0x4 DUP5 ADD SLOAD PUSH1 0x5 SWAP1 SWAP5 ADD SLOAD SWAP3 SWAP5 SWAP2 SWAP4 SWAP1 SWAP3 SWAP1 SWAP2 PUSH1 0xFF DUP3 AND SWAP2 PUSH2 0x100 SWAP1 DIV PUSH1 0x1 PUSH1 0x1 PUSH1 0xA0 SHL SUB AND SWAP1 JUMP JUMPDEST PUSH1 0x40 DUP1 MLOAD SWAP7 DUP8 MSTORE PUSH1 0x20 DUP8 ADD SWAP6 SWAP1 SWAP6 MSTORE SWAP4 DUP6 ADD SWAP3 SWAP1 SWAP3 MSTORE PUSH1 0x60 DUP5 ADD MSTORE ISZERO ISZERO PUSH1 0x80 DUP4 ADD MSTORE PUSH1 0x1 PUSH1 0x1 PUSH1 0xA0 SHL SUB AND PUSH1 0xA0 DUP3 ADD MSTORE PUSH1 0xC0 ADD PUSH2 0x3FC JUMP JUMPDEST PUSH2 0x418 PUSH2 0x7F3 CALLDATASIZE PUSH1 0x4 PUSH2 0x3E65 JUMP JUMPDEST PUSH2 0x1CA6 JUMP JUMPDEST PUSH2 0x418 PUSH2 0x806 CALLDATASIZE PUSH1 0x4 PUSH2 0x3DA8 JUMP JUMPDEST PUSH2 0x1CD4 JUMP JUMPDEST PUSH2 0x81E PUSH2 0x819 CALLDATASIZE PUSH1 0x4 PUSH2 0x3C1D JUMP JUMPDEST PUSH2 0x1D24 JUMP JUMPDEST PUSH1 0x40 MLOAD PUSH2 0x3FC SWAP13 SWAP12 SWAP11 SWAP10 SWAP9 SWAP8 SWAP7 SWAP6 SWAP5 SWAP4 SWAP3 SWAP2 SWAP1 PUSH2 0x3F25 JUMP JUMPDEST PUSH2 0x424 PUSH2 0x844 CALLDATASIZE PUSH1 0x4 PUSH2 0x3BCF JUMP JUMPDEST PUSH2 0x1EEB JUMP JUMPDEST PUSH1 0x9 SLOAD PUSH2 0x3E8 SWAP1 PUSH1 0x1 PUSH1 0x1 PUSH1 0xA0 SHL SUB AND DUP2 JUMP JUMPDEST PUSH1 0x4 SLOAD PUSH2 0x3E8 SWAP1 PUSH1 0x1 PUSH1 0x1 PUSH1 0xA0 SHL SUB AND DUP2 JUMP JUMPDEST PUSH1 0x5 SLOAD PUSH2 0x3E8 SWAP1 PUSH1 0x1 PUSH1 0x1 PUSH1 0xA0 SHL SUB AND DUP2 JUMP JUMPDEST PUSH2 0x424 PUSH1 0x14 DUP2 JUMP JUMPDEST PUSH2 0x418 PUSH2 0x898 CALLDATASIZE PUSH1 0x4 PUSH2 0x3BFB JUMP JUMPDEST PUSH2 0x1F4E JUMP JUMPDEST PUSH2 0x418 PUSH2 0x8AB CALLDATASIZE PUSH1 0x4 PUSH2 0x3FB4 JUMP JUMPDEST PUSH2 0x20CF JUMP JUMPDEST PUSH2 0x418 PUSH2 0x8BE CALLDATASIZE PUSH1 0x4 PUSH2 0x4008 JUMP JUMPDEST PUSH2 0x2265 JUMP JUMPDEST PUSH2 0x418 PUSH2 0x8D1 CALLDATASIZE PUSH1 0x4 PUSH2 0x4091 JUMP JUMPDEST PUSH2 0x2378 JUMP JUMPDEST PUSH2 0x424 PUSH1 0xFA DUP2 JUMP JUMPDEST PUSH2 0x81E PUSH2 0x8EC CALLDATASIZE PUSH1 0x4 PUSH2 0x3C1D JUMP JUMPDEST PUSH2 0x25B2 JUMP JUMPDEST PUSH2 0x424 PUSH1 0x8 SLOAD DUP2 JUMP JUMPDEST PUSH2 0x424 PUSH2 0x2710 DUP2 JUMP JUMPDEST PUSH2 0x418 PUSH2 0x911 CALLDATASIZE PUSH1 0x4 PUSH2 0x40C4 JUMP JUMPDEST PUSH2 0x2732 JUMP JUMPDEST PUSH2 0x418 PUSH2 0x924 CALLDATASIZE PUSH1 0x4 PUSH2 0x40F4 JUMP JUMPDEST PUSH2 0x29CA JUMP JUMPDEST PUSH2 0x418 PUSH2 0x937 CALLDATASIZE PUSH1 0x4 PUSH2 0x3BFB JUMP JUMPDEST PUSH2 0x2ACE JUMP JUMPDEST PUSH2 0x418 PUSH2 0x94A CALLDATASIZE PUSH1 0x4 PUSH2 0x3C1D JUMP JUMPDEST PUSH2 0x2D60 JUMP JUMPDEST PUSH2 0x418 PUSH2 0x95D CALLDATASIZE PUSH1 0x4 PUSH2 0x4091 JUMP JUMPDEST PUSH2 0x2F73 JUMP JUMPDEST PUSH2 0x418 PUSH2 0x970 CALLDATASIZE PUSH1 0x4 PUSH2 0x3DA8 JUMP JUMPDEST PUSH2 0x3146 JUMP JUMPDEST PUSH2 0x418 PUSH2 0x983 CALLDATASIZE PUSH1 0x4 PUSH2 0x3C1D JUMP JUMPDEST PUSH2 0x31BC JUMP JUMPDEST PUSH2 0x424 PUSH1 0xA SLOAD DUP2 JUMP JUMPDEST PUSH2 0x424 PUSH3 0x76A700 DUP2 JUMP JUMPDEST PUSH2 0x424 PUSH2 0x9A9 CALLDATASIZE PUSH1 0x4 PUSH2 0x3E65 JUMP JUMPDEST PUSH2 0x320E JUMP JUMPDEST PUSH1 0x3 SLOAD PUSH2 0x3E8 SWAP1 PUSH1 0x1 PUSH1 0x1 PUSH1 0xA0 SHL SUB AND DUP2 JUMP JUMPDEST PUSH2 0x418 PUSH2 0x9CF CALLDATASIZE PUSH1 0x4 PUSH2 0x3C1D JUMP JUMPDEST PUSH2 0x323F JUMP JUMPDEST PUSH2 0x9DC PUSH2 0x33FD JUMP JUMPDEST PUSH1 0xC SLOAD DUP5 LT PUSH2 0xA06 JUMPI PUSH1 0x40 MLOAD PUSH3 0x461BCD PUSH1 0xE5 SHL DUP2 MSTORE PUSH1 0x4 ADD PUSH2 0x9FD SWAP1 PUSH2 0x413B JUMP JUMPDEST PUSH1 0x40 MLOAD DUP1 SWAP2 SUB SWAP1 REVERT JUMPDEST PUSH1 0x0 DUP4 GT PUSH2 0xA4E JUMPI PUSH1 0x40 MLOAD PUSH3 0x461BCD PUSH1 0xE5 SHL DUP2 MSTORE PUSH1 0x20 PUSH1 0x4 DUP3 ADD MSTORE PUSH1 0x15 PUSH1 0x24 DUP3 ADD MSTORE PUSH21 0x5061636B20636F7374206D757374206265203E203 PUSH1 0x5C SHL PUSH1 0x44 DUP3 ADD MSTORE PUSH1 0x64 ADD PUSH2 0x9FD JUMP JUMPDEST DUP3 DUP3 GT PUSH2 0xA9D JUMPI PUSH1 0x40 MLOAD PUSH3 0x461BCD PUSH1 0xE5 SHL DUP2 MSTORE PUSH1 0x20 PUSH1 0x4 DUP3 ADD MSTORE PUSH1 0x1B PUSH1 0x24 DUP3 ADD MSTORE PUSH32 0x53616C65207072696365206D7573742065786365656420636F73740000000000 PUSH1 0x44 DUP3 ADD MSTORE PUSH1 0x64 ADD PUSH2 0x9FD JUMP JUMPDEST PUSH1 0x0 DUP5 DUP2 MSTORE PUSH1 0xB PUSH1 0x20 SWAP1 DUP2 MSTORE PUSH1 0x40 SWAP2 DUP3 SWAP1 KECCAK256 PUSH1 0x1 DUP2 ADD DUP7 SWAP1 SSTORE PUSH1 0x2 DUP2 ADD DUP6 SWAP1 SSTORE PUSH1 0x3 DUP2 ADD DUP1 SLOAD DUP6 ISZERO ISZERO PUSH1 0xFF NOT SWAP1 SWAP2 AND DUP2 OR SWAP1 SWAP2 SSTORE DUP4 MLOAD DUP8 DUP2 MSTORE SWAP3 DUP4 ADD DUP7 SWAP1 MSTORE DUP3 DUP5 ADD MSTORE SWAP2 MLOAD DUP7 SWAP2 PUSH32 0xAC6E27CE80CE8946CF201045368E957C80B775537BB5D8FF8DA2D18A61530E8C SWAP2 SWAP1 DUP2 SWAP1 SUB PUSH1 0x60 ADD SWAP1 LOG2 POP POP POP POP POP JUMP JUMPDEST PUSH1 0x0 DUP3 DUP2 MSTORE PUSH1 0x12 PUSH1 0x20 MSTORE PUSH1 0x40 DUP2 KECCAK256 PUSH1 0x5 ADD SLOAD PUSH1 0xFF AND PUSH2 0xB37 JUMPI POP PUSH1 0x0 PUSH2 0xBD5 JUMP JUMPDEST PUSH1 0x0 DUP4 DUP2 MSTORE PUSH1 0x11 PUSH1 0x20 SWAP1 DUP2 MSTORE PUSH1 0x40 DUP1 DUP4 KECCAK256 PUSH1 0x1 PUSH1 0x1 PUSH1 0xA0 SHL SUB DUP7 AND DUP5 MSTORE SWAP1 SWAP2 MSTORE DUP2 KECCAK256 SLOAD SWAP1 DUP2 SWAP1 SUB PUSH2 0xB6C JUMPI PUSH1 0x0 SWAP2 POP POP PUSH2 0xBD5 JUMP JUMPDEST PUSH1 0x0 DUP5 DUP2 MSTORE PUSH1 0x12 PUSH1 0x20 MSTORE PUSH1 0x40 DUP2 KECCAK256 PUSH1 0x1 ADD SLOAD SWAP1 PUSH2 0x2710 PUSH2 0xB8D PUSH1 0xFA DUP5 PUSH2 0x417B JUMP JUMPDEST PUSH2 0xB97 SWAP2 SWAP1 PUSH2 0x4192 JUMP JUMPDEST SWAP1 POP PUSH1 0x0 PUSH2 0xBA5 DUP3 DUP5 PUSH2 0x41B4 JUMP JUMPDEST PUSH1 0x0 DUP9 DUP2 MSTORE PUSH1 0x10 PUSH1 0x20 MSTORE PUSH1 0x40 SWAP1 KECCAK256 PUSH1 0x3 ADD SLOAD SWAP1 SWAP2 POP PUSH2 0xBC4 DUP6 DUP4 PUSH2 0x417B JUMP JUMPDEST PUSH2 0xBCE SWAP2 SWAP1 PUSH2 0x4192 JUMP JUMPDEST SWAP5 POP POP POP POP POP JUMPDEST SWAP3 SWAP2 POP POP JUMP JUMPDEST PUSH2 0xBE3 PUSH2 0x3457 JUMP JUMPDEST PUSH2 0xBEB PUSH2 0x34B0 JUMP JUMPDEST PUSH1 0xE SLOAD PUSH1 0x1 PUSH1 0x1 PUSH1 0xA0 SHL SUB AND PUSH2 0xC34 JUMPI PUSH1 0x40 MLOAD PUSH3 0x461BCD PUSH1 0xE5 SHL DUP2 MSTORE PUSH1 0x20 PUSH1 0x4 DUP3 ADD MSTORE PUSH1 0xE PUSH1 0x24 DUP3 ADD MSTORE PUSH14 0x195590555315081B9BDD081CD95D PUSH1 0x92 SHL PUSH1 0x44 DUP3 ADD MSTORE PUSH1 0x64 ADD PUSH2 0x9FD JUMP JUMPDEST PUSH1 0x0 DUP3 DUP2 MSTORE PUSH1 0x10 PUSH1 0x20 MSTORE PUSH1 0x40 SWAP1 KECCAK256 PUSH1 0x6 ADD SLOAD PUSH1 0xFF AND PUSH2 0xC65 JUMPI PUSH1 0x40 MLOAD PUSH3 0x461BCD PUSH1 0xE5 SHL DUP2 MSTORE PUSH1 0x4 ADD PUSH2 0x9FD SWAP1 PUSH2 0x41C7 JUMP JUMPDEST PUSH1 0x0 DUP2 GT PUSH2 0xCAA JUMPI PUSH1 0x40 MLOAD PUSH3 0x461BCD PUSH1 0xE5 SHL DUP2 MSTORE PUSH1 0x20 PUSH1 0x4 DUP3 ADD MSTORE PUSH1 0x12 PUSH1 0x24 DUP3 ADD MSTORE PUSH18 0x536861726573206D757374206265203E203 PUSH1 0x74 SHL PUSH1 0x44 DUP3 ADD MSTORE PUSH1 0x64 ADD PUSH2 0x9FD JUMP JUMPDEST PUSH1 0x0 DUP3 DUP2 MSTORE PUSH1 0x10 PUSH1 0x20 MSTORE PUSH1 0x40 SWAP1 KECCAK256 PUSH1 0x4 ADD SLOAD DUP2 GT ISZERO PUSH2 0xCFF JUMPI PUSH1 0x40 MLOAD PUSH3 0x461BCD PUSH1 0xE5 SHL DUP2 MSTORE PUSH1 0x20 PUSH1 0x4 DUP3 ADD MSTORE PUSH1 0x11 PUSH1 0x24 DUP3 ADD MSTORE PUSH17 0x4E6F7420656E6F75676820736861726573 PUSH1 0x78 SHL PUSH1 0x44 DUP3 ADD MSTORE PUSH1 0x64 ADD PUSH2 0x9FD JUMP JUMPDEST PUSH1 0x0 DUP3 DUP2 MSTORE PUSH1 0x10 PUSH1 0x20 MSTORE PUSH1 0x40 DUP2 KECCAK256 PUSH1 0x3 DUP2 ADD SLOAD PUSH1 0x2 DUP3 ADD SLOAD SWAP2 SWAP3 SWAP2 PUSH2 0xD24 SWAP2 SWAP1 PUSH2 0x4192 JUMP JUMPDEST SWAP1 POP PUSH1 0x0 PUSH2 0xD32 DUP3 DUP6 PUSH2 0x417B JUMP JUMPDEST SWAP1 POP PUSH1 0x0 PUSH2 0x2710 PUSH1 0xF SLOAD DUP4 PUSH2 0xD47 SWAP2 SWAP1 PUSH2 0x417B JUMP JUMPDEST PUSH2 0xD51 SWAP2 SWAP1 PUSH2 0x4192 JUMP JUMPDEST SWAP1 POP PUSH1 0x0 PUSH2 0xD5F DUP3 DUP5 PUSH2 0x41B4 JUMP JUMPDEST PUSH1 0xE SLOAD SWAP1 SWAP2 POP PUSH2 0xD7A SWAP1 PUSH1 0x1 PUSH1 0x1 PUSH1 0xA0 SHL SUB AND CALLER ADDRESS DUP5 PUSH2 0x34F6 JUMP JUMPDEST PUSH1 0xE SLOAD PUSH1 0x40 MLOAD PUSH4 0x2770A7EB PUSH1 0xE2 SHL DUP2 MSTORE ADDRESS PUSH1 0x4 DUP3 ADD MSTORE PUSH1 0x24 DUP2 ADD DUP4 SWAP1 MSTORE PUSH1 0x1 PUSH1 0x1 PUSH1 0xA0 SHL SUB SWAP1 SWAP2 AND SWAP1 PUSH4 0x9DC29FAC SWAP1 PUSH1 0x44 ADD PUSH1 0x0 PUSH1 0x40 MLOAD DUP1 DUP4 SUB DUP2 PUSH1 0x0 DUP8 DUP1 EXTCODESIZE ISZERO DUP1 ISZERO PUSH2 0xDC6 JUMPI PUSH1 0x0 DUP1 REVERT JUMPDEST POP GAS CALL ISZERO DUP1 ISZERO PUSH2 0xDDA JUMPI RETURNDATASIZE PUSH1 0x0 DUP1 RETURNDATACOPY RETURNDATASIZE PUSH1 0x0 REVERT JUMPDEST POP POP POP PUSH1 0x0 DUP9 DUP2 MSTORE PUSH1 0x11 PUSH1 0x20 SWAP1 DUP2 MSTORE PUSH1 0x40 DUP1 DUP4 KECCAK256 CALLER DUP5 MSTORE SWAP1 SWAP2 MSTORE DUP2 KECCAK256 DUP1 SLOAD DUP10 SWAP4 POP SWAP1 SWAP2 SWAP1 PUSH2 0xE09 SWAP1 DUP5 SWAP1 PUSH2 0x41F0 JUMP JUMPDEST SWAP1 SWAP2 SSTORE POP POP PUSH1 0x0 DUP8 DUP2 MSTORE PUSH1 0x11 PUSH1 0x20 SWAP1 DUP2 MSTORE PUSH1 0x40 DUP1 DUP4 KECCAK256 CALLER DUP5 MSTORE SWAP1 SWAP2 MSTORE DUP2 KECCAK256 TIMESTAMP PUSH1 0x1 SWAP1 SWAP2 ADD SSTORE PUSH1 0x4 DUP7 ADD DUP1 SLOAD DUP9 SWAP3 SWAP1 PUSH2 0xE42 SWAP1 DUP5 SWAP1 PUSH2 0x41B4 JUMP JUMPDEST SWAP1 SWAP2 SSTORE POP POP PUSH1 0x40 DUP1 MLOAD DUP8 DUP2 MSTORE PUSH1 0x20 DUP2 ADD DUP4 SWAP1 MSTORE DUP9 SWAP2 CALLER SWAP2 PUSH32 0xEC7A90F2DEFDAA104C0F263369120EE24CBA82876EF97C2EAF6E4E7150EC9C75 SWAP2 ADD PUSH1 0x40 MLOAD DUP1 SWAP2 SUB SWAP1 LOG3 POP POP POP POP POP PUSH2 0xE92 PUSH1 0x1 DUP1 SSTORE JUMP JUMPDEST POP POP JUMP JUMPDEST PUSH1 0xB PUSH1 0x20 MSTORE PUSH1 0x0 SWAP1 DUP2 MSTORE PUSH1 0x40 SWAP1 KECCAK256 DUP1 SLOAD DUP2 SWAP1 PUSH2 0xEB1 SWAP1 PUSH2 0x4203 JUMP JUMPDEST DUP1 PUSH1 0x1F ADD PUSH1 0x20 DUP1 SWAP2 DIV MUL PUSH1 0x20 ADD PUSH1 0x40 MLOAD SWAP1 DUP2 ADD PUSH1 0x40 MSTORE DUP1 SWAP3 SWAP2 SWAP1 DUP2 DUP2 MSTORE PUSH1 0x20 ADD DUP3 DUP1 SLOAD PUSH2 0xEDD SWAP1 PUSH2 0x4203 JUMP JUMPDEST DUP1 ISZERO PUSH2 0xF2A JUMPI DUP1 PUSH1 0x1F LT PUSH2 0xEFF JUMPI PUSH2 0x100 DUP1 DUP4 SLOAD DIV MUL DUP4 MSTORE SWAP2 PUSH1 0x20 ADD SWAP2 PUSH2 0xF2A JUMP JUMPDEST DUP3 ADD SWAP2 SWAP1 PUSH1 0x0 MSTORE PUSH1 0x20 PUSH1 0x0 KECCAK256 SWAP1 JUMPDEST DUP2 SLOAD DUP2 MSTORE SWAP1 PUSH1 0x1 ADD SWAP1 PUSH1 0x20 ADD DUP1 DUP4 GT PUSH2 0xF0D JUMPI DUP3 SWAP1 SUB PUSH1 0x1F AND DUP3 ADD SWAP2 JUMPDEST POP POP POP POP PUSH1 0x1 DUP4 ADD SLOAD PUSH1 0x2 DUP5 ADD SLOAD PUSH1 0x3 SWAP1 SWAP5 ADD SLOAD SWAP3 SWAP4 SWAP1 SWAP3 SWAP1 SWAP2 POP PUSH1 0xFF AND DUP5 JUMP JUMPDEST PUSH2 0xF53 PUSH2 0x3457 JUMP JUMPDEST PUSH2 0xF5B PUSH2 0x34B0 JUMP JUMPDEST PUSH1 0xE SLOAD PUSH1 0x1 PUSH1 0x1 PUSH1 0xA0 SHL SUB AND PUSH2 0xFA4 JUMPI PUSH1 0x40 MLOAD PUSH3 0x461BCD PUSH1 0xE5 SHL DUP2 MSTORE PUSH1 0x20 PUSH1 0x4 DUP3 ADD MSTORE PUSH1 0xE PUSH1 0x24 DUP3 ADD MSTORE PUSH14 0x195590555315081B9BDD081CD95D PUSH1 0x92 SHL PUSH1 0x44 DUP3 ADD MSTORE PUSH1 0x64 ADD PUSH2 0x9FD JUMP JUMPDEST PUSH1 0x0 DUP2 GT PUSH2 0xFC4 JUMPI PUSH1 0x40 MLOAD PUSH3 0x461BCD PUSH1 0xE5 SHL DUP2 MSTORE PUSH1 0x4 ADD PUSH2 0x9FD SWAP1 PUSH2 0x423D JUMP JUMPDEST PUSH1 0xC SLOAD DUP3 LT PUSH2 0xFE5 JUMPI PUSH1 0x40 MLOAD PUSH3 0x461BCD PUSH1 0xE5 SHL DUP2 MSTORE PUSH1 0x4 ADD PUSH2 0x9FD SWAP1 PUSH2 0x413B JUMP JUMPDEST PUSH1 0x0 DUP3 DUP2 MSTORE PUSH1 0xB PUSH1 0x20 MSTORE PUSH1 0x40 SWAP1 KECCAK256 PUSH1 0x3 DUP2 ADD SLOAD PUSH1 0xFF AND PUSH2 0x103F JUMPI PUSH1 0x40 MLOAD PUSH3 0x461BCD PUSH1 0xE5 SHL DUP2 MSTORE PUSH1 0x20 PUSH1 0x4 DUP3 ADD MSTORE PUSH1 0x15 PUSH1 0x24 DUP3 ADD MSTORE PUSH21 0x427265616B2074797065206E6F7420616374697665 PUSH1 0x58 SHL PUSH1 0x44 DUP3 ADD MSTORE PUSH1 0x64 ADD PUSH2 0x9FD JUMP JUMPDEST PUSH1 0x2 DUP2 ADD SLOAD PUSH1 0x1 DUP3 ADD SLOAD PUSH1 0x0 PUSH2 0x1055 DUP4 DUP7 PUSH2 0x417B JUMP JUMPDEST SWAP1 POP PUSH1 0x0 PUSH2 0x2710 PUSH1 0xF SLOAD DUP4 PUSH2 0x106A SWAP2 SWAP1 PUSH2 0x417B JUMP JUMPDEST PUSH2 0x1074 SWAP2 SWAP1 PUSH2 0x4192 JUMP JUMPDEST SWAP1 POP PUSH1 0x0 PUSH2 0x1082 DUP3 DUP5 PUSH2 0x41B4 JUMP JUMPDEST SWAP1 POP PUSH1 0x0 PUSH2 0x1090 DUP6 DUP10 PUSH2 0x417B JUMP JUMPDEST SWAP1 POP PUSH1 0x0 PUSH2 0x109E DUP3 DUP7 PUSH2 0x41B4 JUMP JUMPDEST PUSH1 0xE SLOAD SWAP1 SWAP2 POP PUSH2 0x10B9 SWAP1 PUSH1 0x1 PUSH1 0x1 PUSH1 0xA0 SHL SUB AND CALLER ADDRESS DUP7 PUSH2 0x34F6 JUMP JUMPDEST PUSH1 0xE SLOAD PUSH1 0x40 MLOAD PUSH4 0x2770A7EB PUSH1 0xE2 SHL DUP2 MSTORE ADDRESS PUSH1 0x4 DUP3 ADD MSTORE PUSH1 0x24 DUP2 ADD DUP6 SWAP1 MSTORE PUSH1 0x1 PUSH1 0x1 PUSH1 0xA0 SHL SUB SWAP1 SWAP2 AND SWAP1 PUSH4 0x9DC29FAC SWAP1 PUSH1 0x44 ADD PUSH1 0x0 PUSH1 0x40 MLOAD DUP1 DUP4 SUB DUP2 PUSH1 0x0 DUP8 DUP1 EXTCODESIZE ISZERO DUP1 ISZERO PUSH2 0x1105 JUMPI PUSH1 0x0 DUP1 REVERT JUMPDEST POP GAS CALL ISZERO DUP1 ISZERO PUSH2 0x1119 JUMPI RETURNDATASIZE PUSH1 0x0 DUP1 RETURNDATACOPY RETURNDATASIZE PUSH1 0x0 REVERT JUMPDEST POP POP PUSH1 0x40 DUP1 MLOAD DUP13 DUP2 MSTORE PUSH1 0x20 DUP2 ADD DUP8 SWAP1 MSTORE SWAP1 DUP2 ADD DUP6 SWAP1 MSTORE PUSH1 0x60 DUP2 ADD DUP5 SWAP1 MSTORE DUP13 SWAP3 POP CALLER SWAP2 POP PUSH32 0x51C2E969E2549AE7C12274ABEF504843BEE3A73C58DBE871C26EB9FC01D7043B SWAP1 PUSH1 0x80 ADD PUSH1 0x40 MLOAD DUP1 SWAP2 SUB SWAP1 LOG3 POP POP POP POP POP POP POP POP PUSH2 0xE92 PUSH1 0x1 DUP1 SSTORE JUMP JUMPDEST PUSH2 0x1182 PUSH2 0x33FD JUMP JUMPDEST PUSH2 0x118A PUSH2 0x3457 JUMP JUMPDEST PUSH1 0x0 DUP3 DUP2 MSTORE PUSH1 0x7 PUSH1 0x20 MSTORE PUSH1 0x40 SWAP1 KECCAK256 PUSH1 0x9 DUP2 ADD SLOAD PUSH3 0x10000 SWAP1 DIV PUSH1 0xFF AND ISZERO PUSH2 0x11C3 JUMPI PUSH1 0x40 MLOAD PUSH3 0x461BCD PUSH1 0xE5 SHL DUP2 MSTORE PUSH1 0x4 ADD PUSH2 0x9FD SWAP1 PUSH2 0x426B JUMP JUMPDEST PUSH1 0x9 DUP2 ADD SLOAD PUSH1 0xFF AND ISZERO PUSH2 0x120B JUMPI PUSH1 0x40 MLOAD PUSH3 0x461BCD PUSH1 0xE5 SHL DUP2 MSTORE PUSH1 0x20 PUSH1 0x4 DUP3 ADD MSTORE PUSH1 0x10 PUSH1 0x24 DUP3 ADD MSTORE PUSH16 0x105B1C9958591E481858DC5D5A5C9959 PUSH1 0x82 SHL PUSH1 0x44 DUP3 ADD MSTORE PUSH1 0x64 ADD PUSH2 0x9FD JUMP JUMPDEST DUP1 PUSH1 0x6 ADD SLOAD DUP3 GT ISZERO PUSH2 0x125F JUMPI PUSH1 0x40 MLOAD PUSH3 0x461BCD PUSH1 0xE5 SHL DUP2 MSTORE PUSH1 0x20 PUSH1 0x4 DUP3 ADD MSTORE PUSH1 0x1B PUSH1 0x24 DUP3 ADD MSTORE PUSH32 0x416D6F756E7420657863656564732066756E6473207261697365640000000000 PUSH1 0x44 DUP3 ADD MSTORE PUSH1 0x64 ADD PUSH2 0x9FD JUMP JUMPDEST PUSH1 0x9 DUP1 DUP3 ADD DUP1 SLOAD PUSH1 0xFF NOT AND PUSH1 0x1 OR SWAP1 SSTORE PUSH1 0x7 DUP3 ADD SLOAD SWAP1 SLOAD PUSH1 0x1 PUSH1 0x1 PUSH1 0xA0 SHL SUB SWAP2 DUP3 AND SWAP2 AND PUSH2 0x12CA JUMPI PUSH1 0x40 MLOAD PUSH3 0x461BCD PUSH1 0xE5 SHL DUP2 MSTORE PUSH1 0x20 PUSH1 0x4 DUP3 ADD MSTORE PUSH1 0x18 PUSH1 0x24 DUP3 ADD MSTORE PUSH24 0x125B9D995B9D1BDC9E481DD85B1B195D081B9BDD081CD95D PUSH1 0x42 SHL PUSH1 0x44 DUP3 ADD MSTORE PUSH1 0x64 ADD PUSH2 0x9FD JUMP JUMPDEST PUSH1 0x9 SLOAD PUSH1 0x3 SLOAD PUSH2 0x12EB SWAP2 PUSH1 0x1 PUSH1 0x1 PUSH1 0xA0 SHL SUB DUP5 DUP2 AND SWAP3 SWAP2 DUP2 AND SWAP2 AND DUP7 PUSH2 0x34F6 JUMP JUMPDEST PUSH1 0x0 DUP4 DUP4 PUSH1 0x6 ADD SLOAD PUSH2 0x12FD SWAP2 SWAP1 PUSH2 0x41B4 JUMP JUMPDEST PUSH1 0x40 DUP1 MLOAD DUP7 DUP2 MSTORE PUSH1 0x20 DUP2 ADD DUP4 SWAP1 MSTORE SWAP2 SWAP3 POP DUP7 SWAP2 PUSH32 0x953FCE1F162C4F2F4A3B4CB10F2A14BCFFC4DE51A19968857DBE3A89B9E2358F SWAP2 ADD PUSH1 0x40 MLOAD DUP1 SWAP2 SUB SWAP1 LOG2 POP POP POP PUSH2 0xE92 PUSH1 0x1 DUP1 SSTORE JUMP JUMPDEST PUSH2 0x134F PUSH2 0x33FD JUMP JUMPDEST PUSH2 0x1357 PUSH2 0x3567 JUMP JUMPDEST JUMP JUMPDEST PUSH2 0x1361 PUSH2 0x33FD JUMP JUMPDEST PUSH1 0x0 DUP4 MLOAD GT PUSH2 0x13A2 JUMPI PUSH1 0x40 MLOAD PUSH3 0x461BCD PUSH1 0xE5 SHL DUP2 MSTORE PUSH1 0x20 PUSH1 0x4 DUP3 ADD MSTORE PUSH1 0xD PUSH1 0x24 DUP3 ADD MSTORE PUSH13 0x13985B59481C995C5D5A5C9959 PUSH1 0x9A SHL PUSH1 0x44 DUP3 ADD MSTORE PUSH1 0x64 ADD PUSH2 0x9FD JUMP JUMPDEST PUSH1 0x0 DUP3 GT PUSH2 0x13EA JUMPI PUSH1 0x40 MLOAD PUSH3 0x461BCD PUSH1 0xE5 SHL DUP2 MSTORE PUSH1 0x20 PUSH1 0x4 DUP3 ADD MSTORE PUSH1 0x15 PUSH1 0x24 DUP3 ADD MSTORE PUSH21 0x5061636B20636F7374206D757374206265203E203 PUSH1 0x5C SHL PUSH1 0x44 DUP3 ADD MSTORE PUSH1 0x64 ADD PUSH2 0x9FD JUMP JUMPDEST DUP2 DUP2 GT PUSH2 0x1439 JUMPI PUSH1 0x40 MLOAD PUSH3 0x461BCD PUSH1 0xE5 SHL DUP2 MSTORE PUSH1 0x20 PUSH1 0x4 DUP3 ADD MSTORE PUSH1 0x1B PUSH1 0x24 DUP3 ADD MSTORE PUSH32 0x53616C65207072696365206D7573742065786365656420636F73740000000000 PUSH1 0x44 DUP3 ADD MSTORE PUSH1 0x64 ADD PUSH2 0x9FD JUMP JUMPDEST PUSH1 0xC SLOAD PUSH1 0x40 DUP1 MLOAD PUSH1 0x80 DUP2 ADD DUP3 MSTORE DUP6 DUP2 MSTORE PUSH1 0x20 DUP1 DUP3 ADD DUP7 SWAP1 MSTORE DUP2 DUP4 ADD DUP6 SWAP1 MSTORE PUSH1 0x1 PUSH1 0x60 DUP4 ADD MSTORE PUSH1 0x0 DUP5 DUP2 MSTORE PUSH1 0xB SWAP1 SWAP2 MSTORE SWAP2 SWAP1 SWAP2 KECCAK256 DUP2 MLOAD DUP2 SWAP1 PUSH2 0x147A SWAP1 DUP3 PUSH2 0x42DD JUMP JUMPDEST POP PUSH1 0x20 DUP3 ADD MLOAD PUSH1 0x1 DUP3 ADD SSTORE PUSH1 0x40 DUP3 ADD MLOAD PUSH1 0x2 DUP3 ADD SSTORE PUSH1 0x60 SWAP1 SWAP2 ADD MLOAD PUSH1 0x3 SWAP1 SWAP2 ADD DUP1 SLOAD PUSH1 0xFF NOT AND SWAP2 ISZERO ISZERO SWAP2 SWAP1 SWAP2 OR SWAP1 SSTORE PUSH1 0xC DUP1 SLOAD SWAP1 PUSH1 0x0 PUSH2 0x14B9 DUP4 PUSH2 0x439D JUMP JUMPDEST SWAP2 SWAP1 POP SSTORE POP DUP1 PUSH32 0x61693A31BA710B04CA42208BFA45512FF9FDF0DCAC63519599BCC3657A18FC2D DUP6 DUP6 DUP6 PUSH1 0x40 MLOAD PUSH2 0x14F2 SWAP4 SWAP3 SWAP2 SWAP1 PUSH2 0x43B6 JUMP JUMPDEST PUSH1 0x40 MLOAD DUP1 SWAP2 SUB SWAP1 LOG2 POP POP POP POP JUMP JUMPDEST PUSH2 0x1508 PUSH2 0x33FD JUMP JUMPDEST PUSH1 0xA SSTORE JUMP JUMPDEST PUSH2 0x1515 PUSH2 0x33FD JUMP JUMPDEST PUSH1 0x0 DUP3 DUP2 MSTORE PUSH1 0x10 PUSH1 0x20 MSTORE PUSH1 0x40 SWAP1 KECCAK256 PUSH1 0x6 ADD SLOAD PUSH1 0xFF AND PUSH2 0x1546 JUMPI PUSH1 0x40 MLOAD PUSH3 0x461BCD PUSH1 0xE5 SHL DUP2 MSTORE PUSH1 0x4 ADD PUSH2 0x9FD SWAP1 PUSH2 0x41C7 JUMP JUMPDEST PUSH1 0x0 SWAP2 DUP3 MSTORE PUSH1 0x10 PUSH1 0x20 MSTORE PUSH1 0x40 SWAP1 SWAP2 KECCAK256 PUSH1 0x4 ADD SSTORE JUMP JUMPDEST PUSH2 0x1563 PUSH2 0x33FD JUMP JUMPDEST PUSH1 0x1 PUSH1 0x1 PUSH1 0xA0 SHL SUB AND PUSH1 0x0 SWAP1 DUP2 MSTORE PUSH1 0xD PUSH1 0x20 MSTORE PUSH1 0x40 SWAP1 KECCAK256 DUP1 SLOAD PUSH1 0xFF NOT AND PUSH1 0x1 OR SWAP1 SSTORE JUMP JUMPDEST PUSH1 0x0 PUSH2 0x1591 PUSH2 0x33FD JUMP JUMPDEST PUSH1 0x1 PUSH1 0x1 PUSH1 0xA0 SHL SUB DUP4 AND PUSH1 0x0 SWAP1 DUP2 MSTORE PUSH1 0xD PUSH1 0x20 MSTORE PUSH1 0x40 SWAP1 KECCAK256 SLOAD PUSH1 0xFF AND PUSH2 0x15C9 JUMPI PUSH1 0x40 MLOAD PUSH3 0x461BCD PUSH1 0xE5 SHL DUP2 MSTORE PUSH1 0x4 ADD PUSH2 0x9FD SWAP1 PUSH2 0x43DB JUMP JUMPDEST PUSH1 0x0 DUP7 GT PUSH2 0x1619 JUMPI PUSH1 0x40 MLOAD PUSH3 0x461BCD PUSH1 0xE5 SHL DUP2 MSTORE PUSH1 0x20 PUSH1 0x4 DUP3 ADD MSTORE PUSH1 0x19 PUSH1 0x24 DUP3 ADD MSTORE PUSH32 0x4D7573742068617665207061636B7320617661696C61626C6500000000000000 PUSH1 0x44 DUP3 ADD MSTORE PUSH1 0x64 ADD PUSH2 0x9FD JUMP JUMPDEST PUSH1 0x0 DUP6 GT PUSH2 0x1662 JUMPI PUSH1 0x40 MLOAD PUSH3 0x461BCD PUSH1 0xE5 SHL DUP2 MSTORE PUSH1 0x20 PUSH1 0x4 DUP3 ADD MSTORE PUSH1 0x16 PUSH1 0x24 DUP3 ADD MSTORE PUSH22 0x5061636B207072696365206D757374206265203E203 PUSH1 0x54 SHL PUSH1 0x44 DUP3 ADD MSTORE PUSH1 0x64 ADD PUSH2 0x9FD JUMP JUMPDEST PUSH1 0x0 DUP5 GT PUSH2 0x16B2 JUMPI PUSH1 0x40 MLOAD PUSH3 0x461BCD PUSH1 0xE5 SHL DUP2 MSTORE PUSH1 0x20 PUSH1 0x4 DUP3 ADD MSTORE PUSH1 0x1A PUSH1 0x24 DUP3 ADD MSTORE PUSH32 0x496E76656E746F727920636F7374206D757374206265203E2030000000000000 PUSH1 0x44 DUP3 ADD MSTORE PUSH1 0x64 ADD PUSH2 0x9FD JUMP JUMPDEST TIMESTAMP DUP3 GT PUSH2 0x1701 JUMPI PUSH1 0x40 MLOAD PUSH3 0x461BCD PUSH1 0xE5 SHL DUP2 MSTORE PUSH1 0x20 PUSH1 0x4 DUP3 ADD MSTORE PUSH1 0x18 PUSH1 0x24 DUP3 ADD MSTORE PUSH32 0x4F70656E2064617465206D757374206265206675747572650000000000000000 PUSH1 0x44 DUP3 ADD MSTORE PUSH1 0x64 ADD PUSH2 0x9FD JUMP JUMPDEST PUSH2 0x170E PUSH3 0x76A700 TIMESTAMP PUSH2 0x41F0 JUMP JUMPDEST DUP3 GT ISZERO PUSH2 0x175D JUMPI PUSH1 0x40 MLOAD PUSH3 0x461BCD PUSH1 0xE5 SHL DUP2 MSTORE PUSH1 0x20 PUSH1 0x4 DUP3 ADD MSTORE PUSH1 0x1B PUSH1 0x24 DUP3 ADD MSTORE PUSH32 0x4F70656E206461746520746F6F2066617220696E206675747572650000000000 PUSH1 0x44 DUP3 ADD MSTORE PUSH1 0x64 ADD PUSH2 0x9FD JUMP JUMPDEST PUSH1 0x8 DUP1 SLOAD SWAP1 PUSH1 0x0 PUSH2 0x176D DUP4 PUSH2 0x439D JUMP JUMPDEST SWAP1 SWAP2 SSTORE POP POP PUSH1 0x8 SLOAD PUSH1 0x0 DUP2 DUP2 MSTORE PUSH1 0x7 PUSH1 0x20 MSTORE PUSH1 0x40 SWAP1 KECCAK256 SWAP1 SWAP2 POP DUP1 PUSH2 0x1791 DUP11 DUP3 PUSH2 0x42DD JUMP JUMPDEST POP PUSH1 0x1 DUP2 ADD PUSH2 0x17A0 DUP10 DUP3 PUSH2 0x42DD JUMP JUMPDEST POP PUSH1 0x2 DUP2 ADD DUP8 SWAP1 SSTORE PUSH1 0x4 DUP2 ADD DUP7 SWAP1 SSTORE PUSH1 0x5 DUP2 ADD DUP6 SWAP1 SSTORE PUSH1 0x7 DUP2 ADD DUP1 SLOAD PUSH1 0x1 PUSH1 0x1 PUSH1 0xA0 SHL SUB NOT AND PUSH1 0x1 PUSH1 0x1 PUSH1 0xA0 SHL SUB DUP7 AND OR SWAP1 SSTORE PUSH1 0x8 DUP2 ADD DUP4 SWAP1 SSTORE PUSH1 0x9 DUP2 ADD DUP1 SLOAD PUSH3 0xFFFFFF NOT AND SWAP1 SSTORE PUSH1 0x40 MLOAD DUP3 SWAP1 PUSH32 0xC5CE427637F2BEE38F45DC70C577124976472BD3F5CBD7F003864BC3937D4E3E SWAP1 PUSH2 0x1824 SWAP1 DUP13 SWAP1 DUP13 SWAP1 DUP13 SWAP1 DUP13 SWAP1 DUP13 SWAP1 DUP12 SWAP1 PUSH2 0x4408 JUMP JUMPDEST PUSH1 0x40 MLOAD DUP1 SWAP2 SUB SWAP1 LOG2 POP SWAP8 SWAP7 POP POP POP POP POP POP POP JUMP JUMPDEST PUSH2 0x1840 PUSH2 0x33FD JUMP JUMPDEST PUSH2 0x1357 PUSH1 0x0 PUSH2 0x35B9 JUMP JUMPDEST PUSH2 0x1852 PUSH2 0x33FD JUMP JUMPDEST PUSH1 0x1 PUSH1 0x1 PUSH1 0xA0 SHL SUB AND PUSH1 0x0 SWAP1 DUP2 MSTORE PUSH1 0xD PUSH1 0x20 MSTORE PUSH1 0x40 SWAP1 KECCAK256 DUP1 SLOAD PUSH1 0xFF NOT AND SWAP1 SSTORE JUMP JUMPDEST PUSH2 0x187B PUSH2 0x33FD JUMP JUMPDEST PUSH1 0x1 PUSH1 0x1 PUSH1 0xA0 SHL SUB DUP2 AND PUSH2 0x18A1 JUMPI PUSH1 0x40 MLOAD PUSH3 0x461BCD PUSH1 0xE5 SHL DUP2 MSTORE PUSH1 0x4 ADD PUSH2 0x9FD SWAP1 PUSH2 0x4453 JUMP JUMPDEST PUSH1 0x6 DUP1 SLOAD PUSH1 0x1 PUSH1 0x1 PUSH1 0xA0 SHL SUB NOT AND PUSH1 0x1 PUSH1 0x1 PUSH1 0xA0 SHL SUB SWAP3 SWAP1 SWAP3 AND SWAP2 SWAP1 SWAP2 OR SWAP1 SSTORE JUMP JUMPDEST PUSH2 0x18CB PUSH2 0x33FD JUMP JUMPDEST PUSH1 0x1 PUSH1 0x1 PUSH1 0xA0 SHL SUB DUP2 AND PUSH2 0x18F1 JUMPI PUSH1 0x40 MLOAD PUSH3 0x461BCD PUSH1 0xE5 SHL DUP2 MSTORE PUSH1 0x4 ADD PUSH2 0x9FD SWAP1 PUSH2 0x4453 JUMP JUMPDEST PUSH1 0xE DUP1 SLOAD PUSH1 0x1 PUSH1 0x1 PUSH1 0xA0 SHL SUB SWAP1 SWAP3 AND PUSH1 0x1 PUSH1 0x1 PUSH1 0xA0 SHL SUB NOT SWAP1 SWAP3 AND DUP3 OR SWAP1 SSTORE PUSH1 0x0 SWAP1 DUP2 MSTORE PUSH1 0xD PUSH1 0x20 MSTORE PUSH1 0x40 SWAP1 KECCAK256 DUP1 SLOAD PUSH1 0xFF NOT AND PUSH1 0x1 OR SWAP1 SSTORE JUMP JUMPDEST PUSH2 0x1933 PUSH2 0x3457 JUMP JUMPDEST PUSH2 0x193B PUSH2 0x34B0 JUMP JUMPDEST PUSH1 0x1 PUSH1 0x1 PUSH1 0xA0 SHL SUB DUP3 AND PUSH1 0x0 SWAP1 DUP2 MSTORE PUSH1 0xD PUSH1 0x20 MSTORE PUSH1 0x40 SWAP1 KECCAK256 SLOAD PUSH1 0xFF AND PUSH2 0x1973 JUMPI PUSH1 0x40 MLOAD PUSH3 0x461BCD PUSH1 0xE5 SHL DUP2 MSTORE PUSH1 0x4 ADD PUSH2 0x9FD SWAP1 PUSH2 0x43DB JUMP JUMPDEST PUSH1 0x0 DUP2 DUP2 MSTORE PUSH1 0x10 PUSH1 0x20 MSTORE PUSH1 0x40 SWAP1 KECCAK256 PUSH1 0x6 ADD SLOAD PUSH1 0xFF AND PUSH2 0x19A4 JUMPI PUSH1 0x40 MLOAD PUSH3 0x461BCD PUSH1 0xE5 SHL DUP2 MSTORE PUSH1 0x4 ADD PUSH2 0x9FD SWAP1 PUSH2 0x41C7 JUMP JUMPDEST PUSH1 0x0 DUP2 DUP2 MSTORE PUSH1 0x12 PUSH1 0x20 MSTORE PUSH1 0x40 SWAP1 KECCAK256 PUSH1 0x4 DUP2 ADD SLOAD TIMESTAMP GT DUP1 PUSH2 0x19C8 JUMPI POP PUSH1 0x5 DUP2 ADD SLOAD PUSH1 0xFF AND JUMPDEST PUSH2 0x1A0D JUMPI PUSH1 0x40 MLOAD PUSH3 0x461BCD PUSH1 0xE5 SHL DUP2 MSTORE PUSH1 0x20 PUSH1 0x4 DUP3 ADD MSTORE PUSH1 0x16 PUSH1 0x24 DUP3 ADD MSTORE PUSH22 0x4163746976652070726F706F73616C20657869737473 PUSH1 0x50 SHL PUSH1 0x44 DUP3 ADD MSTORE PUSH1 0x64 ADD PUSH2 0x9FD JUMP JUMPDEST PUSH1 0x0 DUP3 DUP2 MSTORE PUSH1 0x10 PUSH1 0x20 MSTORE PUSH1 0x40 SWAP1 KECCAK256 PUSH1 0x5 DUP2 ADD SLOAD DUP5 PUSH2 0x1A36 PUSH1 0x1 PUSH1 0x1 PUSH1 0xA0 SHL SUB DUP3 AND CALLER ADDRESS DUP6 PUSH2 0x34F6 JUMP JUMPDEST PUSH1 0x0 DUP6 DUP2 MSTORE PUSH1 0x12 PUSH1 0x20 MSTORE PUSH1 0x40 DUP2 KECCAK256 DUP7 DUP2 SSTORE PUSH1 0x1 DUP2 ADD DUP5 SWAP1 SSTORE PUSH1 0x2 DUP2 ADD DUP3 SWAP1 SSTORE PUSH1 0x3 DUP2 ADD SWAP2 SWAP1 SWAP2 SSTORE PUSH2 0x1A6A TIMESTAMP PUSH3 0x93A80 PUSH2 0x41F0 JUMP JUMPDEST PUSH1 0x4 DUP3 ADD DUP2 SWAP1 SSTORE PUSH1 0x5 DUP3 ADD DUP1 SLOAD PUSH1 0x1 PUSH1 0x1 PUSH1 0xA8 SHL SUB NOT AND PUSH2 0x100 PUSH1 0x1 PUSH1 0x1 PUSH1 0xA0 SHL SUB DUP12 AND MUL OR SWAP1 SSTORE PUSH1 0x40 DUP1 MLOAD DUP6 DUP2 MSTORE PUSH1 0x20 DUP2 ADD SWAP3 SWAP1 SWAP3 MSTORE DUP8 SWAP2 PUSH32 0x468B6BBEEB7C3C51B31BA6AFA4133FD0F4D56180566DC82BF1B6A2F469F458B3 SWAP2 ADD PUSH1 0x40 MLOAD DUP1 SWAP2 SUB SWAP1 LOG2 POP POP POP POP POP PUSH2 0xE92 PUSH1 0x1 DUP1 SSTORE JUMP JUMPDEST PUSH2 0x1AE4 PUSH2 0x33FD JUMP JUMPDEST PUSH2 0x1357 PUSH2 0x3609 JUMP JUMPDEST PUSH1 0x1 PUSH1 0x1 PUSH1 0xA0 SHL SUB DUP2 AND PUSH1 0x0 SWAP1 DUP2 MSTORE PUSH1 0x13 PUSH1 0x20 SWAP1 DUP2 MSTORE PUSH1 0x40 SWAP2 DUP3 SWAP1 KECCAK256 DUP1 SLOAD DUP4 MLOAD DUP2 DUP5 MUL DUP2 ADD DUP5 ADD SWAP1 SWAP5 MSTORE DUP1 DUP5 MSTORE PUSH1 0x60 SWAP4 SWAP3 DUP4 ADD DUP3 DUP3 DUP1 ISZERO PUSH2 0x1B4C JUMPI PUSH1 0x20 MUL DUP3 ADD SWAP2 SWAP1 PUSH1 0x0 MSTORE PUSH1 0x20 PUSH1 0x0 KECCAK256 SWAP1 JUMPDEST DUP2 SLOAD DUP2 MSTORE PUSH1 0x20 ADD SWAP1 PUSH1 0x1 ADD SWAP1 DUP1 DUP4 GT PUSH2 0x1B38 JUMPI JUMPDEST POP POP POP POP POP SWAP1 POP SWAP2 SWAP1 POP JUMP JUMPDEST PUSH1 0x10 PUSH1 0x20 MSTORE PUSH1 0x0 SWAP1 DUP2 MSTORE PUSH1 0x40 SWAP1 KECCAK256 DUP1 SLOAD DUP2 SWAP1 PUSH2 0x1B73 SWAP1 PUSH2 0x4203 JUMP JUMPDEST DUP1 PUSH1 0x1F ADD PUSH1 0x20 DUP1 SWAP2 DIV MUL PUSH1 0x20 ADD PUSH1 0x40 MLOAD SWAP1 DUP2 ADD PUSH1 0x40 MSTORE DUP1 SWAP3 SWAP2 SWAP1 DUP2 DUP2 MSTORE PUSH1 0x20 ADD DUP3 DUP1 SLOAD PUSH2 0x1B9F SWAP1 PUSH2 0x4203 JUMP JUMPDEST DUP1 ISZERO PUSH2 0x1BEC JUMPI DUP1 PUSH1 0x1F LT PUSH2 0x1BC1 JUMPI PUSH2 0x100 DUP1 DUP4 SLOAD DIV MUL DUP4 MSTORE SWAP2 PUSH1 0x20 ADD SWAP2 PUSH2 0x1BEC JUMP JUMPDEST DUP3 ADD SWAP2 SWAP1 PUSH1 0x0 MSTORE PUSH1 0x20 PUSH1 0x0 KECCAK256 SWAP1 JUMPDEST DUP2 SLOAD DUP2 MSTORE SWAP1 PUSH1 0x1 ADD SWAP1 PUSH1 0x20 ADD DUP1 DUP4 GT PUSH2 0x1BCF JUMPI DUP3 SWAP1 SUB PUSH1 0x1F AND DUP3 ADD SWAP2 JUMPDEST POP POP POP POP POP SWAP1 DUP1 PUSH1 0x1 ADD DUP1 SLOAD PUSH2 0x1C01 SWAP1 PUSH2 0x4203 JUMP JUMPDEST DUP1 PUSH1 0x1F ADD PUSH1 0x20 DUP1 SWAP2 DIV MUL PUSH1 0x20 ADD PUSH1 0x40 MLOAD SWAP1 DUP2 ADD PUSH1 0x40 MSTORE DUP1 SWAP3 SWAP2 SWAP1 DUP2 DUP2 MSTORE PUSH1 0x20 ADD DUP3 DUP1 SLOAD PUSH2 0x1C2D SWAP1 PUSH2 0x4203 JUMP JUMPDEST DUP1 ISZERO PUSH2 0x1C7A JUMPI DUP1 PUSH1 0x1F LT PUSH2 0x1C4F JUMPI PUSH2 0x100 DUP1 DUP4 SLOAD DIV MUL DUP4 MSTORE SWAP2 PUSH1 0x20 ADD SWAP2 PUSH2 0x1C7A JUMP JUMPDEST DUP3 ADD SWAP2 SWAP1 PUSH1 0x0 MSTORE PUSH1 0x20 PUSH1 0x0 KECCAK256 SWAP1 JUMPDEST DUP2 SLOAD DUP2 MSTORE SWAP1 PUSH1 0x1 ADD SWAP1 PUSH1 0x20 ADD DUP1 DUP4 GT PUSH2 0x1C5D JUMPI DUP3 SWAP1 SUB PUSH1 0x1F AND DUP3 ADD SWAP2 JUMPDEST POP POP POP PUSH1 0x2 DUP5 ADD SLOAD PUSH1 0x3 DUP6 ADD SLOAD PUSH1 0x4 DUP7 ADD SLOAD PUSH1 0x5 DUP8 ADD SLOAD PUSH1 0x6 SWAP1 SWAP8 ADD SLOAD SWAP6 SWAP7 SWAP3 SWAP6 SWAP2 SWAP5 POP SWAP3 POP PUSH1 0xFF AND DUP8 JUMP JUMPDEST PUSH2 0x1CAE PUSH2 0x33FD JUMP JUMPDEST PUSH2 0xE92 PUSH2 0x1CC3 PUSH1 0x0 SLOAD PUSH1 0x1 PUSH1 0x1 PUSH1 0xA0 SHL SUB AND SWAP1 JUMP JUMPDEST PUSH1 0x1 PUSH1 0x1 PUSH1 0xA0 SHL SUB DUP5 AND SWAP1 DUP4 PUSH2 0x3646 JUMP JUMPDEST PUSH2 0x1CDC PUSH2 0x33FD JUMP JUMPDEST PUSH1 0x1 PUSH1 0x1 PUSH1 0xA0 SHL SUB DUP2 AND PUSH2 0x1D02 JUMPI PUSH1 0x40 MLOAD PUSH3 0x461BCD PUSH1 0xE5 SHL DUP2 MSTORE PUSH1 0x4 ADD PUSH2 0x9FD SWAP1 PUSH2 0x4453 JUMP JUMPDEST PUSH1 0x9 DUP1 SLOAD PUSH1 0x1 PUSH1 0x1 PUSH1 0xA0 SHL SUB NOT AND PUSH1 0x1 PUSH1 0x1 PUSH1 0xA0 SHL SUB SWAP3 SWAP1 SWAP3 AND SWAP2 SWAP1 SWAP2 OR SWAP1 SSTORE JUMP JUMPDEST PUSH1 0x0 DUP2 DUP2 MSTORE PUSH1 0x7 PUSH1 0x20 DUP2 SWAP1 MSTORE PUSH1 0x40 DUP3 KECCAK256 PUSH1 0x2 DUP2 ADD SLOAD PUSH1 0x3 DUP3 ADD SLOAD PUSH1 0x4 DUP4 ADD SLOAD PUSH1 0x5 DUP5 ADD SLOAD PUSH1 0x6 DUP6 ADD SLOAD SWAP6 DUP6 ADD SLOAD PUSH1 0x8 DUP7 ADD SLOAD PUSH1 0x9 DUP8 ADD SLOAD DUP8 SLOAD PUSH1 0x60 SWAP11 DUP12 SWAP11 SWAP1 SWAP10 DUP11 SWAP10 DUP11 SWAP10 DUP11 SWAP10 DUP11 SWAP10 DUP11 SWAP10 DUP11 SWAP10 DUP11 SWAP10 DUP11 SWAP10 DUP11 SWAP10 DUP10 SWAP9 PUSH1 0x1 DUP11 ADD SWAP9 SWAP1 SWAP8 SWAP1 SWAP7 SWAP1 SWAP6 SWAP1 SWAP5 SWAP2 SWAP4 PUSH1 0x1 PUSH1 0x1 PUSH1 0xA0 SHL SUB SWAP1 SWAP2 AND SWAP3 PUSH1 0xFF DUP1 DUP4 AND SWAP3 PUSH2 0x100 DUP2 DIV DUP3 AND SWAP3 PUSH3 0x10000 SWAP1 SWAP2 DIV SWAP1 SWAP2 AND SWAP1 DUP13 SWAP1 PUSH2 0x1DB7 SWAP1 PUSH2 0x4203 JUMP JUMPDEST DUP1 PUSH1 0x1F ADD PUSH1 0x20 DUP1 SWAP2 DIV MUL PUSH1 0x20 ADD PUSH1 0x40 MLOAD SWAP1 DUP2 ADD PUSH1 0x40 MSTORE DUP1 SWAP3 SWAP2 SWAP1 DUP2 DUP2 MSTORE PUSH1 0x20 ADD DUP3 DUP1 SLOAD PUSH2 0x1DE3 SWAP1 PUSH2 0x4203 JUMP JUMPDEST DUP1 ISZERO PUSH2 0x1E30 JUMPI DUP1 PUSH1 0x1F LT PUSH2 0x1E05 JUMPI PUSH2 0x100 DUP1 DUP4 SLOAD DIV MUL DUP4 MSTORE SWAP2 PUSH1 0x20 ADD SWAP2 PUSH2 0x1E30 JUMP JUMPDEST DUP3 ADD SWAP2 SWAP1 PUSH1 0x0 MSTORE PUSH1 0x20 PUSH1 0x0 KECCAK256 SWAP1 JUMPDEST DUP2 SLOAD DUP2 MSTORE SWAP1 PUSH1 0x1 ADD SWAP1 PUSH1 0x20 ADD DUP1 DUP4 GT PUSH2 0x1E13 JUMPI DUP3 SWAP1 SUB PUSH1 0x1F AND DUP3 ADD SWAP2 JUMPDEST POP POP POP POP POP SWAP12 POP DUP11 DUP1 SLOAD PUSH2 0x1E43 SWAP1 PUSH2 0x4203 JUMP JUMPDEST DUP1 PUSH1 0x1F ADD PUSH1 0x20 DUP1 SWAP2 DIV MUL PUSH1 0x20 ADD PUSH1 0x40 MLOAD SWAP1 DUP2 ADD PUSH1 0x40 MSTORE DUP1 SWAP3 SWAP2 SWAP1 DUP2 DUP2 MSTORE PUSH1 0x20 ADD DUP3 DUP1 SLOAD PUSH2 0x1E6F SWAP1 PUSH2 0x4203 JUMP JUMPDEST DUP1 ISZERO PUSH2 0x1EBC JUMPI DUP1 PUSH1 0x1F LT PUSH2 0x1E91 JUMPI PUSH2 0x100 DUP1 DUP4 SLOAD DIV MUL DUP4 MSTORE SWAP2 PUSH1 0x20 ADD SWAP2 PUSH2 0x1EBC JUMP JUMPDEST DUP3 ADD SWAP2 SWAP1 PUSH1 0x0 MSTORE PUSH1 0x20 PUSH1 0x0 KECCAK256 SWAP1 JUMPDEST DUP2 SLOAD DUP2 MSTORE SWAP1 PUSH1 0x1 ADD SWAP1 PUSH1 0x20 ADD DUP1 DUP4 GT PUSH2 0x1E9F JUMPI DUP3 SWAP1 SUB PUSH1 0x1F AND DUP3 ADD SWAP2 JUMPDEST POP POP POP POP POP SWAP11 POP SWAP13 POP SWAP13 POP SWAP13 POP SWAP13 POP SWAP13 POP SWAP13 POP SWAP13 POP SWAP13 POP SWAP13 POP SWAP13 POP SWAP13 POP SWAP13 POP POP SWAP2 SWAP4 SWAP6 SWAP8 SWAP10 SWAP12 POP SWAP2 SWAP4 SWAP6 SWAP8 SWAP10 SWAP12 JUMP JUMPDEST PUSH1 0x0 DUP3 DUP2 MSTORE PUSH1 0x11 PUSH1 0x20 SWAP1 DUP2 MSTORE PUSH1 0x40 DUP1 DUP4 KECCAK256 PUSH1 0x1 PUSH1 0x1 PUSH1 0xA0 SHL SUB DUP6 AND DUP5 MSTORE SWAP1 SWAP2 MSTORE DUP2 KECCAK256 SLOAD DUP1 DUP3 SUB PUSH2 0x1F1F JUMPI PUSH1 0x0 SWAP2 POP POP PUSH2 0xBD5 JUMP JUMPDEST PUSH1 0x0 DUP5 DUP2 MSTORE PUSH1 0x10 PUSH1 0x20 MSTORE PUSH1 0x40 SWAP1 KECCAK256 PUSH1 0x3 ADD SLOAD PUSH2 0x1F3C DUP3 PUSH1 0x64 PUSH2 0x417B JUMP JUMPDEST PUSH2 0x1F46 SWAP2 SWAP1 PUSH2 0x4192 JUMP JUMPDEST SWAP5 SWAP4 POP POP POP POP JUMP JUMPDEST PUSH2 0x1F56 PUSH2 0x33FD JUMP JUMPDEST PUSH1 0x0 DUP3 DUP2 MSTORE PUSH1 0x7 PUSH1 0x20 MSTORE PUSH1 0x40 SWAP1 KECCAK256 PUSH1 0x9 DUP2 ADD SLOAD PUSH3 0x10000 SWAP1 DIV PUSH1 0xFF AND ISZERO PUSH2 0x1F8F JUMPI PUSH1 0x40 MLOAD PUSH3 0x461BCD PUSH1 0xE5 SHL DUP2 MSTORE PUSH1 0x4 ADD PUSH2 0x9FD SWAP1 PUSH2 0x426B JUMP JUMPDEST PUSH1 0x9 DUP2 ADD SLOAD PUSH1 0xFF AND PUSH2 0x1FDC JUMPI PUSH1 0x40 MLOAD PUSH3 0x461BCD PUSH1 0xE5 SHL DUP2 MSTORE PUSH1 0x20 PUSH1 0x4 DUP3 ADD MSTORE PUSH1 0x16 PUSH1 0x24 DUP3 ADD MSTORE PUSH22 0x125B9D995B9D1BDC9E481B9BDD081858DC5D5A5C9959 PUSH1 0x52 SHL PUSH1 0x44 DUP3 ADD MSTORE PUSH1 0x64 ADD PUSH2 0x9FD JUMP JUMPDEST PUSH1 0x9 DUP2 ADD SLOAD PUSH2 0x100 SWAP1 DIV PUSH1 0xFF AND ISZERO PUSH2 0x2025 JUMPI PUSH1 0x40 MLOAD PUSH3 0x461BCD PUSH1 0xE5 SHL DUP2 MSTORE PUSH1 0x20 PUSH1 0x4 DUP3 ADD MSTORE PUSH1 0xC PUSH1 0x24 DUP3 ADD MSTORE PUSH12 0x416C7265616479206C697665 PUSH1 0xA0 SHL PUSH1 0x44 DUP3 ADD MSTORE PUSH1 0x64 ADD PUSH2 0x9FD JUMP JUMPDEST PUSH1 0x9 DUP2 ADD DUP1 SLOAD PUSH2 0xFF00 NOT AND PUSH2 0x100 OR SWAP1 SSTORE PUSH1 0x6 DUP2 ADD SLOAD ISZERO PUSH2 0x2090 JUMPI PUSH1 0x7 DUP2 ADD SLOAD PUSH1 0xA SLOAD PUSH1 0x3 DUP4 ADD SLOAD PUSH1 0x1 PUSH1 0x1 PUSH1 0xA0 SHL SUB SWAP1 SWAP3 AND SWAP2 PUSH1 0x0 SWAP2 PUSH2 0x2065 SWAP2 PUSH2 0x417B JUMP JUMPDEST SWAP1 POP PUSH1 0x0 DUP2 DUP5 PUSH1 0x6 ADD SLOAD PUSH2 0x2079 SWAP2 SWAP1 PUSH2 0x41B4 JUMP JUMPDEST SWAP1 POP DUP1 ISZERO PUSH2 0x208C JUMPI PUSH2 0x208C DUP4 DUP3 DUP8 PUSH2 0x3676 JUMP JUMPDEST POP POP POP JUMPDEST DUP3 PUSH32 0x368CD451E59D0E471924B1C520EF809CCE3AFED79E45970586F6B0643DD544E4 DUP4 PUSH1 0x40 MLOAD PUSH2 0x20C2 SWAP2 DUP2 MSTORE PUSH1 0x20 ADD SWAP1 JUMP JUMPDEST PUSH1 0x40 MLOAD DUP1 SWAP2 SUB SWAP1 LOG2 POP POP POP JUMP JUMPDEST PUSH2 0x20D7 PUSH2 0x33FD JUMP JUMPDEST PUSH1 0x1 PUSH1 0x1 PUSH1 0xA0 SHL SUB DUP5 AND PUSH2 0x2120 JUMPI PUSH1 0x40 MLOAD PUSH3 0x461BCD PUSH1 0xE5 SHL DUP2 MSTORE PUSH1 0x20 PUSH1 0x4 DUP3 ADD MSTORE PUSH1 0x10 PUSH1 0x24 DUP3 ADD MSTORE PUSH16 0x496E76616C6964207472656173757279 PUSH1 0x80 SHL PUSH1 0x44 DUP3 ADD MSTORE PUSH1 0x64 ADD PUSH2 0x9FD JUMP JUMPDEST PUSH1 0x1 PUSH1 0x1 PUSH1 0xA0 SHL SUB DUP4 AND PUSH2 0x216B JUMPI PUSH1 0x40 MLOAD PUSH3 0x461BCD PUSH1 0xE5 SHL DUP2 MSTORE PUSH1 0x20 PUSH1 0x4 DUP3 ADD MSTORE PUSH1 0x12 PUSH1 0x24 DUP3 ADD MSTORE PUSH18 0x496E76616C6964206F7065726174696F6E73 PUSH1 0x70 SHL PUSH1 0x44 DUP3 ADD MSTORE PUSH1 0x64 ADD PUSH2 0x9FD JUMP JUMPDEST PUSH1 0x1 PUSH1 0x1 PUSH1 0xA0 SHL SUB DUP3 AND PUSH2 0x21C1 JUMPI PUSH1 0x40 MLOAD PUSH3 0x461BCD PUSH1 0xE5 SHL DUP2 MSTORE PUSH1 0x20 PUSH1 0x4 DUP3 ADD MSTORE PUSH1 0x17 PUSH1 0x24 DUP3 ADD MSTORE PUSH32 0x496E76616C696420746F6B656E206C6971756964697479000000000000000000 PUSH1 0x44 DUP3 ADD MSTORE PUSH1 0x64 ADD PUSH2 0x9FD JUMP JUMPDEST PUSH1 0x1 PUSH1 0x1 PUSH1 0xA0 SHL SUB DUP2 AND PUSH2 0x220C JUMPI PUSH1 0x40 MLOAD PUSH3 0x461BCD PUSH1 0xE5 SHL DUP2 MSTORE PUSH1 0x20 PUSH1 0x4 DUP3 ADD MSTORE PUSH1 0x12 PUSH1 0x24 DUP3 ADD MSTORE PUSH18 0x125B9D985B1A59081A5B9D995CDD1B595B9D PUSH1 0x72 SHL PUSH1 0x44 DUP3 ADD MSTORE PUSH1 0x64 ADD PUSH2 0x9FD JUMP JUMPDEST PUSH1 0x2 DUP1 SLOAD PUSH1 0x1 PUSH1 0x1 PUSH1 0xA0 SHL SUB SWAP6 DUP7 AND PUSH2 0x100 MUL PUSH2 0x100 PUSH1 0x1 PUSH1 0xA8 SHL SUB NOT SWAP1 SWAP2 AND OR SWAP1 SSTORE PUSH1 0x3 DUP1 SLOAD SWAP4 DUP6 AND PUSH1 0x1 PUSH1 0x1 PUSH1 0xA0 SHL SUB NOT SWAP5 DUP6 AND OR SWAP1 SSTORE PUSH1 0x4 DUP1 SLOAD SWAP3 DUP6 AND SWAP3 DUP5 AND SWAP3 SWAP1 SWAP3 OR SWAP1 SWAP2 SSTORE PUSH1 0x5 DUP1 SLOAD SWAP2 SWAP1 SWAP4 AND SWAP2 AND OR SWAP1 SSTORE JUMP JUMPDEST PUSH2 0x226D PUSH2 0x33FD JUMP JUMPDEST PUSH1 0x0 DUP7 DUP2 MSTORE PUSH1 0x10 PUSH1 0x20 MSTORE PUSH1 0x40 SWAP1 KECCAK256 PUSH1 0x6 ADD SLOAD PUSH1 0xFF AND ISZERO PUSH2 0x22C5 JUMPI PUSH1 0x40 MLOAD PUSH3 0x461BCD PUSH1 0xE5 SHL DUP2 MSTORE PUSH1 0x20 PUSH1 0x4 DUP3 ADD MSTORE PUSH1 0x13 PUSH1 0x24 DUP3 ADD MSTORE PUSH19 0x4361726420616C726561647920657869737473 PUSH1 0x68 SHL PUSH1 0x44 DUP3 ADD MSTORE PUSH1 0x64 ADD PUSH2 0x9FD JUMP JUMPDEST PUSH1 0x40 DUP1 MLOAD PUSH1 0xE0 DUP2 ADD DUP3 MSTORE DUP7 DUP2 MSTORE PUSH1 0x20 DUP1 DUP3 ADD DUP8 SWAP1 MSTORE DUP2 DUP4 ADD DUP7 SWAP1 MSTORE PUSH1 0x60 DUP3 ADD DUP6 SWAP1 MSTORE PUSH1 0x80 DUP3 ADD DUP6 SWAP1 MSTORE PUSH1 0xA0 DUP3 ADD DUP5 SWAP1 MSTORE PUSH1 0x1 PUSH1 0xC0 DUP4 ADD MSTORE PUSH1 0x0 DUP10 DUP2 MSTORE PUSH1 0x10 SWAP1 SWAP2 MSTORE SWAP2 SWAP1 SWAP2 KECCAK256 DUP2 MLOAD DUP2 SWAP1 PUSH2 0x2318 SWAP1 DUP3 PUSH2 0x42DD JUMP JUMPDEST POP PUSH1 0x20 DUP3 ADD MLOAD PUSH1 0x1 DUP3 ADD SWAP1 PUSH2 0x232D SWAP1 DUP3 PUSH2 0x42DD JUMP JUMPDEST POP PUSH1 0x40 DUP3 ADD MLOAD PUSH1 0x2 DUP3 ADD SSTORE PUSH1 0x60 DUP3 ADD MLOAD PUSH1 0x3 DUP3 ADD SSTORE PUSH1 0x80 DUP3 ADD MLOAD PUSH1 0x4 DUP3 ADD SSTORE PUSH1 0xA0 DUP3 ADD MLOAD PUSH1 0x5 DUP3 ADD SSTORE PUSH1 0xC0 SWAP1 SWAP2 ADD MLOAD PUSH1 0x6 SWAP1 SWAP2 ADD DUP1 SLOAD PUSH1 0xFF NOT AND SWAP2 ISZERO ISZERO SWAP2 SWAP1 SWAP2 OR SWAP1 SSTORE POP POP POP POP POP POP JUMP JUMPDEST PUSH2 0x2380 PUSH2 0x3457 JUMP JUMPDEST PUSH2 0x2388 PUSH2 0x34B0 JUMP JUMPDEST PUSH1 0x1 PUSH1 0x1 PUSH1 0xA0 SHL SUB DUP4 AND PUSH1 0x0 SWAP1 DUP2 MSTORE PUSH1 0xD PUSH1 0x20 MSTORE PUSH1 0x40 SWAP1 KECCAK256 SLOAD PUSH1 0xFF AND PUSH2 0x23C0 JUMPI PUSH1 0x40 MLOAD PUSH3 0x461BCD PUSH1 0xE5 SHL DUP2 MSTORE PUSH1 0x4 ADD PUSH2 0x9FD SWAP1 PUSH2 0x43DB JUMP JUMPDEST PUSH1 0x0 DUP3 DUP2 MSTORE PUSH1 0x10 PUSH1 0x20 MSTORE PUSH1 0x40 SWAP1 KECCAK256 PUSH1 0x6 ADD SLOAD PUSH1 0xFF AND PUSH2 0x23F1 JUMPI PUSH1 0x40 MLOAD PUSH3 0x461BCD PUSH1 0xE5 SHL DUP2 MSTORE PUSH1 0x4 ADD PUSH2 0x9FD SWAP1 PUSH2 0x41C7 JUMP JUMPDEST PUSH1 0x0 DUP2 GT PUSH2 0x2436 JUMPI PUSH1 0x40 MLOAD PUSH3 0x461BCD PUSH1 0xE5 SHL DUP2 MSTORE PUSH1 0x20 PUSH1 0x4 DUP3 ADD MSTORE PUSH1 0x12 PUSH1 0x24 DUP3 ADD MSTORE PUSH18 0x536861726573206D757374206265203E203 PUSH1 0x74 SHL PUSH1 0x44 DUP3 ADD MSTORE PUSH1 0x64 ADD PUSH2 0x9FD JUMP JUMPDEST PUSH1 0x0 DUP3 DUP2 MSTORE PUSH1 0x10 PUSH1 0x20 MSTORE PUSH1 0x40 SWAP1 KECCAK256 PUSH1 0x4 ADD SLOAD DUP2 GT ISZERO PUSH2 0x2497 JUMPI PUSH1 0x40 MLOAD PUSH3 0x461BCD PUSH1 0xE5 SHL DUP2 MSTORE PUSH1 0x20 PUSH1 0x4 DUP3 ADD MSTORE PUSH1 0x1B PUSH1 0x24 DUP3 ADD MSTORE PUSH32 0x4E6F7420656E6F7567682073686172657320617661696C61626C650000000000 PUSH1 0x44 DUP3 ADD MSTORE PUSH1 0x64 ADD PUSH2 0x9FD JUMP JUMPDEST PUSH1 0x0 DUP3 DUP2 MSTORE PUSH1 0x10 PUSH1 0x20 MSTORE PUSH1 0x40 DUP2 KECCAK256 PUSH1 0x3 DUP2 ADD SLOAD PUSH1 0x2 DUP3 ADD SLOAD SWAP2 SWAP3 SWAP2 PUSH2 0x24BC SWAP2 SWAP1 PUSH2 0x4192 JUMP JUMPDEST SWAP1 POP PUSH1 0x0 PUSH2 0x24CA DUP3 DUP6 PUSH2 0x417B JUMP JUMPDEST SWAP1 POP DUP6 PUSH2 0x24E2 PUSH1 0x1 PUSH1 0x1 PUSH1 0xA0 SHL SUB DUP3 AND CALLER ADDRESS DUP6 PUSH2 0x34F6 JUMP JUMPDEST PUSH1 0x0 DUP7 DUP2 MSTORE PUSH1 0x11 PUSH1 0x20 SWAP1 DUP2 MSTORE PUSH1 0x40 DUP1 DUP4 KECCAK256 CALLER DUP5 MSTORE SWAP1 SWAP2 MSTORE DUP2 KECCAK256 DUP1 SLOAD DUP8 SWAP3 SWAP1 PUSH2 0x250B SWAP1 DUP5 SWAP1 PUSH2 0x41F0 JUMP JUMPDEST SWAP1 SWAP2 SSTORE POP POP PUSH1 0x0 DUP7 DUP2 MSTORE PUSH1 0x11 PUSH1 0x20 SWAP1 DUP2 MSTORE PUSH1 0x40 DUP1 DUP4 KECCAK256 CALLER DUP5 MSTORE SWAP1 SWAP2 MSTORE DUP2 KECCAK256 TIMESTAMP PUSH1 0x1 SWAP1 SWAP2 ADD SSTORE PUSH1 0x4 DUP6 ADD DUP1 SLOAD DUP8 SWAP3 SWAP1 PUSH2 0x2544 SWAP1 DUP5 SWAP1 PUSH2 0x41B4 JUMP JUMPDEST SWAP1 SWAP2 SSTORE POP POP PUSH1 0x3 SLOAD PUSH2 0x2563 SWAP1 PUSH1 0x1 PUSH1 0x1 PUSH1 0xA0 SHL SUB DUP4 DUP2 AND SWAP2 AND DUP5 PUSH2 0x3646 JUMP JUMPDEST PUSH1 0x40 DUP1 MLOAD DUP7 DUP2 MSTORE PUSH1 0x20 DUP2 ADD DUP5 SWAP1 MSTORE DUP8 SWAP2 CALLER SWAP2 PUSH32 0xEC7A90F2DEFDAA104C0F263369120EE24CBA82876EF97C2EAF6E4E7150EC9C75 SWAP2 ADD PUSH1 0x40 MLOAD DUP1 SWAP2 SUB SWAP1 LOG3 POP POP POP POP PUSH2 0x25AD PUSH1 0x1 DUP1 SSTORE JUMP JUMPDEST POP POP POP JUMP JUMPDEST PUSH1 0x7 PUSH1 0x20 MSTORE PUSH1 0x0 SWAP1 DUP2 MSTORE PUSH1 0x40 SWAP1 KECCAK256 DUP1 SLOAD DUP2 SWAP1 PUSH2 0x25CD SWAP1 PUSH2 0x4203 JUMP JUMPDEST DUP1 PUSH1 0x1F ADD PUSH1 0x20 DUP1 SWAP2 DIV MUL PUSH1 0x20 ADD PUSH1 0x40 MLOAD SWAP1 DUP2 ADD PUSH1 0x40 MSTORE DUP1 SWAP3 SWAP2 SWAP1 DUP2 DUP2 MSTORE PUSH1 0x20 ADD DUP3 DUP1 SLOAD PUSH2 0x25F9 SWAP1 PUSH2 0x4203 JUMP JUMPDEST DUP1 ISZERO PUSH2 0x2646 JUMPI DUP1 PUSH1 0x1F LT PUSH2 0x261B JUMPI PUSH2 0x100 DUP1 DUP4 SLOAD DIV MUL DUP4 MSTORE SWAP2 PUSH1 0x20 ADD SWAP2 PUSH2 0x2646 JUMP JUMPDEST DUP3 ADD SWAP2 SWAP1 PUSH1 0x0 MSTORE PUSH1 0x20 PUSH1 0x0 KECCAK256 SWAP1 JUMPDEST DUP2 SLOAD DUP2 MSTORE SWAP1 PUSH1 0x1 ADD SWAP1 PUSH1 0x20 ADD DUP1 DUP4 GT PUSH2 0x2629 JUMPI DUP3 SWAP1 SUB PUSH1 0x1F AND DUP3 ADD SWAP2 JUMPDEST POP POP POP POP POP SWAP1 DUP1 PUSH1 0x1 ADD DUP1 SLOAD PUSH2 0x265B SWAP1 PUSH2 0x4203 JUMP JUMPDEST DUP1 PUSH1 0x1F ADD PUSH1 0x20 DUP1 SWAP2 DIV MUL PUSH1 0x20 ADD PUSH1 0x40 MLOAD SWAP1 DUP2 ADD PUSH1 0x40 MSTORE DUP1 SWAP3 SWAP2 SWAP1 DUP2 DUP2 MSTORE PUSH1 0x20 ADD DUP3 DUP1 SLOAD PUSH2 0x2687 SWAP1 PUSH2 0x4203 JUMP JUMPDEST DUP1 ISZERO PUSH2 0x26D4 JUMPI DUP1 PUSH1 0x1F LT PUSH2 0x26A9 JUMPI PUSH2 0x100 DUP1 DUP4 SLOAD DIV MUL DUP4 MSTORE SWAP2 PUSH1 0x20 ADD SWAP2 PUSH2 0x26D4 JUMP JUMPDEST DUP3 ADD SWAP2 SWAP1 PUSH1 0x0 MSTORE PUSH1 0x20 PUSH1 0x0 KECCAK256 SWAP1 JUMPDEST DUP2 SLOAD DUP2 MSTORE SWAP1 PUSH1 0x1 ADD SWAP1 PUSH1 0x20 ADD DUP1 DUP4 GT PUSH2 0x26B7 JUMPI DUP3 SWAP1 SUB PUSH1 0x1F AND DUP3 ADD SWAP2 JUMPDEST POP POP POP POP PUSH1 0x2 DUP4 ADD SLOAD PUSH1 0x3 DUP5 ADD SLOAD PUSH1 0x4 DUP6 ADD SLOAD PUSH1 0x5 DUP7 ADD SLOAD PUSH1 0x6 DUP8 ADD SLOAD PUSH1 0x7 DUP9 ADD SLOAD PUSH1 0x8 DUP10 ADD SLOAD PUSH1 0x9 SWAP1 SWAP10 ADD SLOAD SWAP8 SWAP9 SWAP6 SWAP8 SWAP5 SWAP7 POP SWAP3 SWAP5 SWAP2 SWAP4 SWAP1 SWAP3 PUSH1 0x1 PUSH1 0x1 PUSH1 0xA0 SHL SUB AND SWAP2 SWAP1 PUSH1 0xFF DUP1 DUP3 AND SWAP2 PUSH2 0x100 DUP2 DIV DUP3 AND SWAP2 PUSH3 0x10000 SWAP1 SWAP2 DIV AND DUP13 JUMP JUMPDEST PUSH2 0x273A PUSH2 0x3457 JUMP JUMPDEST PUSH2 0x2742 PUSH2 0x34B0 JUMP JUMPDEST PUSH1 0x0 DUP3 DUP2 MSTORE PUSH1 0x12 PUSH1 0x20 MSTORE PUSH1 0x40 SWAP1 KECCAK256 DUP1 SLOAD DUP4 EQ PUSH2 0x2795 JUMPI PUSH1 0x40 MLOAD PUSH3 0x461BCD PUSH1 0xE5 SHL DUP2 MSTORE PUSH1 0x20 PUSH1 0x4 DUP3 ADD MSTORE PUSH1 0x12 PUSH1 0x24 DUP3 ADD MSTORE PUSH18 0x139BC81858DD1A5D99481C1C9BDC1BDCD85B PUSH1 0x72 SHL PUSH1 0x44 DUP3 ADD MSTORE PUSH1 0x64 ADD PUSH2 0x9FD JUMP JUMPDEST DUP1 PUSH1 0x4 ADD SLOAD TIMESTAMP LT PUSH2 0x27DE JUMPI PUSH1 0x40 MLOAD PUSH3 0x461BCD PUSH1 0xE5 SHL DUP2 MSTORE PUSH1 0x20 PUSH1 0x4 DUP3 ADD MSTORE PUSH1 0x13 PUSH1 0x24 DUP3 ADD MSTORE PUSH19 0x159BDD1A5B99C81C195C9A5BD908195B991959 PUSH1 0x6A SHL PUSH1 0x44 DUP3 ADD MSTORE PUSH1 0x64 ADD PUSH2 0x9FD JUMP JUMPDEST PUSH1 0x5 DUP2 ADD SLOAD PUSH1 0xFF AND ISZERO PUSH2 0x2826 JUMPI PUSH1 0x40 MLOAD PUSH3 0x461BCD PUSH1 0xE5 SHL DUP2 MSTORE PUSH1 0x20 PUSH1 0x4 DUP3 ADD MSTORE PUSH1 0x10 PUSH1 0x24 DUP3 ADD MSTORE PUSH16 0x105B1C9958591E48195E1958DD5D1959 PUSH1 0x82 SHL PUSH1 0x44 DUP3 ADD MSTORE PUSH1 0x64 ADD PUSH2 0x9FD JUMP JUMPDEST CALLER PUSH1 0x0 SWAP1 DUP2 MSTORE PUSH1 0x6 DUP3 ADD PUSH1 0x20 MSTORE PUSH1 0x40 SWAP1 KECCAK256 SLOAD PUSH1 0xFF AND ISZERO PUSH2 0x2878 JUMPI PUSH1 0x40 MLOAD PUSH3 0x461BCD PUSH1 0xE5 SHL DUP2 MSTORE PUSH1 0x20 PUSH1 0x4 DUP3 ADD MSTORE PUSH1 0xD PUSH1 0x24 DUP3 ADD MSTORE PUSH13 0x105B1C9958591E481D9BDD1959 PUSH1 0x9A SHL PUSH1 0x44 DUP3 ADD MSTORE PUSH1 0x64 ADD PUSH2 0x9FD JUMP JUMPDEST PUSH1 0x0 DUP4 DUP2 MSTORE PUSH1 0x11 PUSH1 0x20 SWAP1 DUP2 MSTORE PUSH1 0x40 DUP1 DUP4 KECCAK256 CALLER DUP5 MSTORE SWAP1 SWAP2 MSTORE SWAP1 KECCAK256 SLOAD DUP1 PUSH2 0x28CE JUMPI PUSH1 0x40 MLOAD PUSH3 0x461BCD PUSH1 0xE5 SHL DUP2 MSTORE PUSH1 0x20 PUSH1 0x4 DUP3 ADD MSTORE PUSH1 0xC PUSH1 0x24 DUP3 ADD MSTORE PUSH12 0x4E6F206F776E65727368697 PUSH1 0xA4 SHL PUSH1 0x44 DUP3 ADD MSTORE PUSH1 0x64 ADD PUSH2 0x9FD JUMP JUMPDEST CALLER PUSH1 0x0 SWAP1 DUP2 MSTORE PUSH1 0x6 DUP4 ADD PUSH1 0x20 MSTORE PUSH1 0x40 SWAP1 KECCAK256 DUP1 SLOAD PUSH1 0xFF NOT AND PUSH1 0x1 OR SWAP1 SSTORE DUP3 ISZERO PUSH2 0x290F JUMPI DUP1 DUP3 PUSH1 0x2 ADD PUSH1 0x0 DUP3 DUP3 SLOAD PUSH2 0x2904 SWAP2 SWAP1 PUSH2 0x41F0 JUMP JUMPDEST SWAP1 SWAP2 SSTORE POP PUSH2 0x2929 SWAP1 POP JUMP JUMPDEST DUP1 DUP3 PUSH1 0x3 ADD PUSH1 0x0 DUP3 DUP3 SLOAD PUSH2 0x2923 SWAP2 SWAP1 PUSH2 0x41F0 JUMP JUMPDEST SWAP1 SWAP2 SSTORE POP POP JUMPDEST PUSH1 0x40 DUP1 MLOAD DUP5 ISZERO ISZERO DUP2 MSTORE PUSH1 0x20 DUP2 ADD DUP4 SWAP1 MSTORE CALLER SWAP2 DUP7 SWAP2 PUSH32 0x3517C80EA2EF27BC391276F878760D7DE484621A186D22892E639DDB485ECF7 SWAP2 ADD PUSH1 0x40 MLOAD DUP1 SWAP2 SUB SWAP1 LOG3 PUSH1 0x0 DUP3 PUSH1 0x3 ADD SLOAD DUP4 PUSH1 0x2 ADD SLOAD PUSH2 0x297E SWAP2 SWAP1 PUSH2 0x41F0 JUMP JUMPDEST PUSH1 0x0 DUP7 DUP2 MSTORE PUSH1 0x10 PUSH1 0x20 MSTORE PUSH1 0x40 SWAP1 KECCAK256 PUSH1 0x3 ADD SLOAD PUSH1 0x2 DUP6 ADD SLOAD SWAP2 SWAP3 POP PUSH1 0x33 SWAP2 PUSH2 0x29A6 SWAP1 PUSH1 0x64 PUSH2 0x417B JUMP JUMPDEST PUSH2 0x29B0 SWAP2 SWAP1 PUSH2 0x4192 JUMP JUMPDEST LT PUSH2 0x29BE JUMPI PUSH2 0x29BE DUP6 PUSH2 0x37AC JUMP JUMPDEST POP POP POP PUSH2 0xE92 PUSH1 0x1 DUP1 SSTORE JUMP JUMPDEST PUSH2 0x29D2 PUSH2 0x33FD JUMP JUMPDEST PUSH1 0x0 DUP3 DUP2 MSTORE PUSH1 0x7 PUSH1 0x20 MSTORE PUSH1 0x40 SWAP1 KECCAK256 PUSH1 0x9 DUP2 ADD SLOAD PUSH2 0x100 SWAP1 DIV PUSH1 0xFF AND ISZERO PUSH2 0x2A3A JUMPI PUSH1 0x40 MLOAD PUSH3 0x461BCD PUSH1 0xE5 SHL DUP2 MSTORE PUSH1 0x20 PUSH1 0x4 DUP3 ADD MSTORE PUSH1 0x1C PUSH1 0x24 DUP3 ADD MSTORE PUSH32 0x416C7265616479206C697665202D2063616E6E6F742063616E63656C00000000 PUSH1 0x44 DUP3 ADD MSTORE PUSH1 0x64 ADD PUSH2 0x9FD JUMP JUMPDEST PUSH1 0x9 DUP2 ADD SLOAD PUSH3 0x10000 SWAP1 DIV PUSH1 0xFF AND ISZERO PUSH2 0x2A89 JUMPI PUSH1 0x40 MLOAD PUSH3 0x461BCD PUSH1 0xE5 SHL DUP2 MSTORE PUSH1 0x20 PUSH1 0x4 DUP3 ADD MSTORE PUSH1 0x11 PUSH1 0x24 DUP3 ADD MSTORE PUSH17 0x105B1C9958591E4818D85B98D95B1B1959 PUSH1 0x7A SHL PUSH1 0x44 DUP3 ADD MSTORE PUSH1 0x64 ADD PUSH2 0x9FD JUMP JUMPDEST PUSH1 0x9 DUP2 ADD DUP1 SLOAD PUSH3 0xFF0000 NOT AND PUSH3 0x10000 OR SWAP1 SSTORE PUSH1 0x40 MLOAD DUP4 SWAP1 PUSH32 0x7938A8C5A147366BD3298D75F213FBE6F9AED9118224B5B2A49D3A678B229375 SWAP1 PUSH2 0x20C2 SWAP1 DUP6 SWAP1 PUSH2 0x447C JUMP JUMPDEST PUSH2 0x2AD6 PUSH2 0x3457 JUMP JUMPDEST PUSH2 0x2ADE PUSH2 0x34B0 JUMP JUMPDEST PUSH1 0x0 DUP3 DUP2 MSTORE PUSH1 0x7 PUSH1 0x20 MSTORE PUSH1 0x40 SWAP1 KECCAK256 PUSH1 0x9 DUP2 ADD SLOAD PUSH3 0x10000 SWAP1 DIV PUSH1 0xFF AND ISZERO PUSH2 0x2B17 JUMPI PUSH1 0x40 MLOAD PUSH3 0x461BCD PUSH1 0xE5 SHL DUP2 MSTORE PUSH1 0x4 ADD PUSH2 0x9FD SWAP1 PUSH2 0x426B JUMP JUMPDEST PUSH1 0x9 DUP2 ADD SLOAD PUSH2 0x100 SWAP1 DIV PUSH1 0xFF AND ISZERO PUSH2 0x2B69 JUMPI PUSH1 0x40 MLOAD PUSH3 0x461BCD PUSH1 0xE5 SHL DUP2 MSTORE PUSH1 0x20 PUSH1 0x4 DUP3 ADD MSTORE PUSH1 0x15 PUSH1 0x24 DUP3 ADD MSTORE PUSH21 0x5072652D73616C6520616C7265616479206C697665 PUSH1 0x58 SHL PUSH1 0x44 DUP3 ADD MSTORE PUSH1 0x64 ADD PUSH2 0x9FD JUMP JUMPDEST DUP1 PUSH1 0x8 ADD SLOAD TIMESTAMP LT PUSH2 0x2BAD JUMPI PUSH1 0x40 MLOAD PUSH3 0x461BCD PUSH1 0xE5 SHL DUP2 MSTORE PUSH1 0x20 PUSH1 0x4 DUP3 ADD MSTORE PUSH1 0xE PUSH1 0x24 DUP3 ADD MSTORE PUSH14 0x141C994B5CD85B1948195B991959 PUSH1 0x92 SHL PUSH1 0x44 DUP3 ADD MSTORE PUSH1 0x64 ADD PUSH2 0x9FD JUMP JUMPDEST PUSH1 0x0 DUP3 GT PUSH2 0x2BCD JUMPI PUSH1 0x40 MLOAD PUSH3 0x461BCD PUSH1 0xE5 SHL DUP2 MSTORE PUSH1 0x4 ADD PUSH2 0x9FD SWAP1 PUSH2 0x423D JUMP JUMPDEST DUP1 PUSH1 0x3 ADD SLOAD DUP2 PUSH1 0x2 ADD SLOAD PUSH2 0x2BE1 SWAP2 SWAP1 PUSH2 0x41B4 JUMP JUMPDEST DUP3 GT ISZERO PUSH2 0x2C30 JUMPI PUSH1 0x40 MLOAD PUSH3 0x461BCD PUSH1 0xE5 SHL DUP2 MSTORE PUSH1 0x20 PUSH1 0x4 DUP3 ADD MSTORE PUSH1 0x1A PUSH1 0x24 DUP3 ADD MSTORE PUSH32 0x4E6F7420656E6F756768207061636B7320617661696C61626C65000000000000 PUSH1 0x44 DUP3 ADD MSTORE PUSH1 0x64 ADD PUSH2 0x9FD JUMP JUMPDEST PUSH1 0x0 DUP2 PUSH1 0x4 ADD SLOAD DUP4 PUSH2 0x2C42 SWAP2 SWAP1 PUSH2 0x417B JUMP JUMPDEST PUSH1 0x7 DUP4 ADD SLOAD PUSH1 0x9 SLOAD SWAP2 SWAP3 POP PUSH1 0x1 PUSH1 0x1 PUSH1 0xA0 SHL SUB SWAP1 DUP2 AND SWAP2 AND PUSH2 0x2CA1 JUMPI PUSH1 0x40 MLOAD PUSH3 0x461BCD PUSH1 0xE5 SHL DUP2 MSTORE PUSH1 0x20 PUSH1 0x4 DUP3 ADD MSTORE PUSH1 0x18 PUSH1 0x24 DUP3 ADD MSTORE PUSH24 0x125B9D995B9D1BDC9E481DD85B1B195D081B9BDD081CD95D PUSH1 0x42 SHL PUSH1 0x44 DUP3 ADD MSTORE PUSH1 0x64 ADD PUSH2 0x9FD JUMP JUMPDEST PUSH1 0x9 SLOAD PUSH2 0x2CBD SWAP1 PUSH1 0x1 PUSH1 0x1 PUSH1 0xA0 SHL SUB DUP4 DUP2 AND SWAP2 CALLER SWAP2 AND DUP6 PUSH2 0x34F6 JUMP JUMPDEST DUP4 DUP4 PUSH1 0x3 ADD PUSH1 0x0 DUP3 DUP3 SLOAD PUSH2 0x2CD1 SWAP2 SWAP1 PUSH2 0x41F0 JUMP JUMPDEST SWAP3 POP POP DUP2 SWAP1 SSTORE POP DUP2 DUP4 PUSH1 0x6 ADD PUSH1 0x0 DUP3 DUP3 SLOAD PUSH2 0x2CEC SWAP2 SWAP1 PUSH2 0x41F0 JUMP JUMPDEST SWAP1 SWAP2 SSTORE POP POP CALLER PUSH1 0x0 SWAP1 DUP2 MSTORE PUSH1 0xA DUP5 ADD PUSH1 0x20 MSTORE PUSH1 0x40 DUP2 KECCAK256 DUP1 SLOAD DUP7 SWAP3 SWAP1 PUSH2 0x2D12 SWAP1 DUP5 SWAP1 PUSH2 0x41F0 JUMP JUMPDEST SWAP1 SWAP2 SSTORE POP POP PUSH1 0x40 DUP1 MLOAD DUP6 DUP2 MSTORE PUSH1 0x20 DUP2 ADD DUP5 SWAP1 MSTORE DUP7 SWAP2 CALLER SWAP2 PUSH32 0x88E1742B58EA40C9CFA6A086D3107491B2CB0E803838E5C8ED622DCB8C946031 SWAP2 ADD PUSH1 0x40 MLOAD DUP1 SWAP2 SUB SWAP1 LOG3 POP POP POP PUSH2 0xE92 PUSH1 0x1 DUP1 SSTORE JUMP JUMPDEST PUSH2 0x2D68 PUSH2 0x3457 JUMP JUMPDEST PUSH1 0x0 DUP2 DUP2 MSTORE PUSH1 0x7 PUSH1 0x20 MSTORE PUSH1 0x40 SWAP1 KECCAK256 PUSH1 0x9 DUP2 ADD SLOAD PUSH3 0x10000 SWAP1 DIV PUSH1 0xFF AND PUSH2 0x2DC9 JUMPI PUSH1 0x40 MLOAD PUSH3 0x461BCD PUSH1 0xE5 SHL DUP2 MSTORE PUSH1 0x20 PUSH1 0x4 DUP3 ADD MSTORE PUSH1 0x16 PUSH1 0x24 DUP3 ADD MSTORE PUSH22 0x141C994B5CD85B19481B9BDD0818D85B98D95B1B1959 PUSH1 0x52 SHL PUSH1 0x44 DUP3 ADD MSTORE PUSH1 0x64 ADD PUSH2 0x9FD JUMP JUMPDEST CALLER PUSH1 0x0 SWAP1 DUP2 MSTORE PUSH1 0xB DUP3 ADD PUSH1 0x20 MSTORE PUSH1 0x40 SWAP1 KECCAK256 SLOAD PUSH1 0xFF AND ISZERO PUSH2 0x2E1D JUMPI PUSH1 0x40 MLOAD PUSH3 0x461BCD PUSH1 0xE5 SHL DUP2 MSTORE PUSH1 0x20 PUSH1 0x4 DUP3 ADD MSTORE PUSH1 0xF PUSH1 0x24 DUP3 ADD MSTORE PUSH15 0x105B1C9958591E4818DB185A5B5959 PUSH1 0x8A SHL PUSH1 0x44 DUP3 ADD MSTORE PUSH1 0x64 ADD PUSH2 0x9FD JUMP JUMPDEST PUSH1 0x9 DUP2 ADD SLOAD PUSH1 0xFF AND ISZERO PUSH2 0x2E86 JUMPI PUSH1 0x40 MLOAD PUSH3 0x461BCD PUSH1 0xE5 SHL DUP2 MSTORE PUSH1 0x20 PUSH1 0x4 DUP3 ADD MSTORE PUSH1 0x2B PUSH1 0x24 DUP3 ADD MSTORE PUSH32 0x496E76656E746F727920616C726561647920707572636861736564202D206361 PUSH1 0x44 DUP3 ADD MSTORE PUSH11 0x1B9B9BDD081C99599D5B99 PUSH1 0xAA SHL PUSH1 0x64 DUP3 ADD MSTORE PUSH1 0x84 ADD PUSH2 0x9FD JUMP JUMPDEST CALLER PUSH1 0x0 SWAP1 DUP2 MSTORE PUSH1 0xA DUP3 ADD PUSH1 0x20 MSTORE PUSH1 0x40 SWAP1 KECCAK256 SLOAD DUP1 PUSH2 0x2EDD JUMPI PUSH1 0x40 MLOAD PUSH3 0x461BCD PUSH1 0xE5 SHL DUP2 MSTORE PUSH1 0x20 PUSH1 0x4 DUP3 ADD MSTORE PUSH1 0x15 PUSH1 0x24 DUP3 ADD MSTORE PUSH21 0x139BC81C1D5C98DA185CD9481D1BC81C99599D5B99 PUSH1 0x5A SHL PUSH1 0x44 DUP3 ADD MSTORE PUSH1 0x64 ADD PUSH2 0x9FD JUMP JUMPDEST PUSH1 0x0 DUP3 PUSH1 0x4 ADD SLOAD DUP3 PUSH2 0x2EEF SWAP2 SWAP1 PUSH2 0x417B JUMP JUMPDEST CALLER PUSH1 0x0 DUP2 DUP2 MSTORE PUSH1 0xB DUP7 ADD PUSH1 0x20 MSTORE PUSH1 0x40 SWAP1 KECCAK256 DUP1 SLOAD PUSH1 0xFF NOT AND PUSH1 0x1 OR SWAP1 SSTORE PUSH1 0x7 DUP6 ADD SLOAD SWAP2 SWAP3 POP PUSH1 0x1 PUSH1 0x1 PUSH1 0xA0 SHL SUB SWAP2 SWAP1 SWAP2 AND SWAP1 PUSH2 0x2F2C SWAP1 DUP3 SWAP1 DUP5 PUSH2 0x3646 JUMP JUMPDEST PUSH1 0x40 MLOAD DUP3 DUP2 MSTORE DUP6 SWAP1 CALLER SWAP1 PUSH32 0x17C1D890F3FFBA4991A771A0B55802A1EFF3159D0CCE950FB68D1360530393D9 SWAP1 PUSH1 0x20 ADD PUSH1 0x40 MLOAD DUP1 SWAP2 SUB SWAP1 LOG3 POP POP POP POP PUSH2 0x2F70 PUSH1 0x1 DUP1 SSTORE JUMP JUMPDEST POP JUMP JUMPDEST PUSH2 0x2F7B PUSH2 0x3457 JUMP JUMPDEST PUSH2 0x2F83 PUSH2 0x34B0 JUMP JUMPDEST PUSH1 0x1 PUSH1 0x1 PUSH1 0xA0 SHL SUB DUP4 AND PUSH1 0x0 SWAP1 DUP2 MSTORE PUSH1 0xD PUSH1 0x20 MSTORE PUSH1 0x40 SWAP1 KECCAK256 SLOAD PUSH1 0xFF AND PUSH2 0x2FBB JUMPI PUSH1 0x40 MLOAD PUSH3 0x461BCD PUSH1 0xE5 SHL DUP2 MSTORE PUSH1 0x4 ADD PUSH2 0x9FD SWAP1 PUSH2 0x43DB JUMP JUMPDEST PUSH1 0x0 DUP2 GT PUSH2 0x2FDB JUMPI PUSH1 0x40 MLOAD PUSH3 0x461BCD PUSH1 0xE5 SHL DUP2 MSTORE PUSH1 0x4 ADD PUSH2 0x9FD SWAP1 PUSH2 0x423D JUMP JUMPDEST PUSH1 0xC SLOAD DUP3 LT PUSH2 0x2FFC JUMPI PUSH1 0x40 MLOAD PUSH3 0x461BCD PUSH1 0xE5 SHL DUP2 MSTORE PUSH1 0x4 ADD PUSH2 0x9FD SWAP1 PUSH2 0x413B JUMP JUMPDEST PUSH1 0x0 DUP3 DUP2 MSTORE PUSH1 0xB PUSH1 0x20 MSTORE PUSH1 0x40 SWAP1 KECCAK256 PUSH1 0x3 DUP2 ADD SLOAD PUSH1 0xFF AND PUSH2 0x3056 JUMPI PUSH1 0x40 MLOAD PUSH3 0x461BCD PUSH1 0xE5 SHL DUP2 MSTORE PUSH1 0x20 PUSH1 0x4 DUP3 ADD MSTORE PUSH1 0x15 PUSH1 0x24 DUP3 ADD MSTORE PUSH21 0x427265616B2074797065206E6F7420616374697665 PUSH1 0x58 SHL PUSH1 0x44 DUP3 ADD MSTORE PUSH1 0x64 ADD PUSH2 0x9FD JUMP JUMPDEST PUSH1 0x2 DUP2 ADD SLOAD PUSH1 0x1 DUP3 ADD SLOAD DUP6 SWAP2 SWAP1 PUSH1 0x0 PUSH2 0x306F DUP4 DUP8 PUSH2 0x417B JUMP JUMPDEST SWAP1 POP PUSH1 0x0 PUSH2 0x307D DUP4 DUP9 PUSH2 0x417B JUMP JUMPDEST SWAP1 POP PUSH1 0x0 PUSH2 0x308B DUP3 DUP5 PUSH2 0x41B4 JUMP JUMPDEST SWAP1 POP PUSH2 0x30A2 PUSH1 0x1 PUSH1 0x1 PUSH1 0xA0 SHL SUB DUP8 AND CALLER ADDRESS DUP7 PUSH2 0x34F6 JUMP JUMPDEST PUSH1 0x3 SLOAD PUSH2 0x30BC SWAP1 PUSH1 0x1 PUSH1 0x1 PUSH1 0xA0 SHL SUB DUP9 DUP2 AND SWAP2 AND DUP5 PUSH2 0x3646 JUMP JUMPDEST PUSH2 0x30C7 DUP7 DUP3 DUP12 PUSH2 0x3676 JUMP JUMPDEST CALLER PUSH1 0x0 DUP2 DUP2 MSTORE PUSH1 0x13 PUSH1 0x20 SWAP1 DUP2 MSTORE PUSH1 0x40 DUP1 DUP4 KECCAK256 DUP1 SLOAD PUSH1 0x1 DUP2 ADD DUP3 SSTORE SWAP1 DUP5 MSTORE SWAP3 DUP3 SWAP1 KECCAK256 SWAP1 SWAP3 ADD DUP13 SWAP1 SSTORE DUP2 MLOAD DUP12 DUP2 MSTORE SWAP1 DUP2 ADD DUP7 SWAP1 MSTORE SWAP1 DUP2 ADD DUP5 SWAP1 MSTORE PUSH1 0x60 DUP2 ADD DUP4 SWAP1 MSTORE DUP11 SWAP2 SWAP1 PUSH32 0x51C2E969E2549AE7C12274ABEF504843BEE3A73C58DBE871C26EB9FC01D7043B SWAP1 PUSH1 0x80 ADD PUSH1 0x40 MLOAD DUP1 SWAP2 SUB SWAP1 LOG3 POP POP POP POP POP POP POP PUSH2 0x25AD PUSH1 0x1 DUP1 SSTORE JUMP JUMPDEST PUSH2 0x314E PUSH2 0x33FD JUMP JUMPDEST PUSH1 0x1 PUSH1 0x1 PUSH1 0xA0 SHL SUB DUP2 AND PUSH2 0x31B3 JUMPI PUSH1 0x40 MLOAD PUSH3 0x461BCD PUSH1 0xE5 SHL DUP2 MSTORE PUSH1 0x20 PUSH1 0x4 DUP3 ADD MSTORE PUSH1 0x26 PUSH1 0x24 DUP3 ADD MSTORE PUSH32 0x4F776E61626C653A206E6577206F776E657220697320746865207A65726F2061 PUSH1 0x44 DUP3 ADD MSTORE PUSH6 0x646472657373 PUSH1 0xD0 SHL PUSH1 0x64 DUP3 ADD MSTORE PUSH1 0x84 ADD PUSH2 0x9FD JUMP JUMPDEST PUSH2 0x2F70 DUP2 PUSH2 0x35B9 JUMP JUMPDEST PUSH2 0x31C4 PUSH2 0x33FD JUMP JUMPDEST PUSH2 0x7D0 DUP2 GT ISZERO PUSH2 0x3209 JUMPI PUSH1 0x40 MLOAD PUSH3 0x461BCD PUSH1 0xE5 SHL DUP2 MSTORE PUSH1 0x20 PUSH1 0x4 DUP3 ADD MSTORE PUSH1 0x10 PUSH1 0x24 DUP3 ADD MSTORE PUSH16 0x13585E080C8C0948191A5CD8DBDD5B9D PUSH1 0x82 SHL PUSH1 0x44 DUP3 ADD MSTORE PUSH1 0x64 ADD PUSH2 0x9FD JUMP JUMPDEST PUSH1 0xF SSTORE JUMP JUMPDEST PUSH1 0x13 PUSH1 0x20 MSTORE DUP2 PUSH1 0x0 MSTORE PUSH1 0x40 PUSH1 0x0 KECCAK256 DUP2 DUP2 SLOAD DUP2 LT PUSH2 0x322A JUMPI PUSH1 0x0 DUP1 REVERT JUMPDEST SWAP1 PUSH1 0x0 MSTORE PUSH1 0x20 PUSH1 0x0 KECCAK256 ADD PUSH1 0x0 SWAP2 POP SWAP2 POP POP SLOAD DUP2 JUMP JUMPDEST PUSH2 0x3247 PUSH2 0x3457 JUMP JUMPDEST PUSH1 0x0 DUP2 DUP2 MSTORE PUSH1 0x12 PUSH1 0x20 MSTORE PUSH1 0x40 SWAP1 KECCAK256 PUSH1 0x5 ADD SLOAD PUSH1 0xFF AND PUSH2 0x329E JUMPI PUSH1 0x40 MLOAD PUSH3 0x461BCD PUSH1 0xE5 SHL DUP2 MSTORE PUSH1 0x20 PUSH1 0x4 DUP3 ADD MSTORE PUSH1 0x13 PUSH1 0x24 DUP3 ADD MSTORE PUSH19 0x109D5E5BDD5D081B9BDD08195E1958DD5D1959 PUSH1 0x6A SHL PUSH1 0x44 DUP3 ADD MSTORE PUSH1 0x64 ADD PUSH2 0x9FD JUMP JUMPDEST PUSH1 0x0 DUP2 DUP2 MSTORE PUSH1 0x11 PUSH1 0x20 SWAP1 DUP2 MSTORE PUSH1 0x40 DUP1 DUP4 KECCAK256 CALLER DUP5 MSTORE SWAP1 SWAP2 MSTORE SWAP1 KECCAK256 SLOAD DUP1 PUSH2 0x32FA JUMPI PUSH1 0x40 MLOAD PUSH3 0x461BCD PUSH1 0xE5 SHL DUP2 MSTORE PUSH1 0x20 PUSH1 0x4 DUP3 ADD MSTORE PUSH1 0x12 PUSH1 0x24 DUP3 ADD MSTORE PUSH18 0x4E6F2073686172657320746F20636C61696D PUSH1 0x70 SHL PUSH1 0x44 DUP3 ADD MSTORE PUSH1 0x64 ADD PUSH2 0x9FD JUMP JUMPDEST PUSH1 0x0 DUP3 DUP2 MSTORE PUSH1 0x10 PUSH1 0x20 SWAP1 DUP2 MSTORE PUSH1 0x40 DUP1 DUP4 KECCAK256 PUSH1 0x3 ADD SLOAD PUSH1 0x12 SWAP1 SWAP3 MSTORE DUP3 KECCAK256 PUSH1 0x1 ADD SLOAD SWAP1 SWAP2 SWAP1 PUSH2 0x2710 SWAP1 PUSH2 0x332D SWAP1 PUSH1 0xFA SWAP1 PUSH2 0x417B JUMP JUMPDEST PUSH2 0x3337 SWAP2 SWAP1 PUSH2 0x4192 JUMP JUMPDEST PUSH1 0x0 DUP6 DUP2 MSTORE PUSH1 0x12 PUSH1 0x20 MSTORE PUSH1 0x40 SWAP1 KECCAK256 PUSH1 0x1 ADD SLOAD PUSH2 0x3353 SWAP2 SWAP1 PUSH2 0x41B4 JUMP JUMPDEST SWAP1 POP PUSH1 0x0 DUP3 PUSH2 0x3362 DUP6 DUP5 PUSH2 0x417B JUMP JUMPDEST PUSH2 0x336C SWAP2 SWAP1 PUSH2 0x4192 JUMP JUMPDEST PUSH1 0x0 DUP7 DUP2 MSTORE PUSH1 0x11 PUSH1 0x20 SWAP1 DUP2 MSTORE PUSH1 0x40 DUP1 DUP4 KECCAK256 CALLER DUP1 DUP6 MSTORE SWAP1 DUP4 MSTORE DUP2 DUP5 KECCAK256 DUP5 SWAP1 SSTORE DUP10 DUP5 MSTORE PUSH1 0x12 SWAP1 SWAP3 MSTORE SWAP1 SWAP2 KECCAK256 PUSH1 0x5 ADD SLOAD SWAP2 SWAP3 POP PUSH2 0x100 SWAP1 SWAP2 DIV PUSH1 0x1 PUSH1 0x1 PUSH1 0xA0 SHL SUB AND SWAP1 PUSH2 0x33B8 SWAP1 DUP3 SWAP1 DUP5 PUSH2 0x3646 JUMP JUMPDEST PUSH1 0x40 MLOAD DUP3 DUP2 MSTORE CALLER SWAP1 DUP8 SWAP1 PUSH32 0x829A492B098E906D67AFCC4C67889AC97486DF205CD59C8749F8F61D78220382 SWAP1 PUSH1 0x20 ADD PUSH1 0x40 MLOAD DUP1 SWAP2 SUB SWAP1 LOG3 POP POP POP POP POP PUSH2 0x2F70 PUSH1 0x1 DUP1 SSTORE JUMP JUMPDEST PUSH1 0x0 SLOAD PUSH1 0x1 PUSH1 0x1 PUSH1 0xA0 SHL SUB AND CALLER EQ PUSH2 0x1357 JUMPI PUSH1 0x40 MLOAD PUSH3 0x461BCD PUSH1 0xE5 SHL DUP2 MSTORE PUSH1 0x20 PUSH1 0x4 DUP3 ADD DUP2 SWAP1 MSTORE PUSH1 0x24 DUP3 ADD MSTORE PUSH32 0x4F776E61626C653A2063616C6C6572206973206E6F7420746865206F776E6572 PUSH1 0x44 DUP3 ADD MSTORE PUSH1 0x64 ADD PUSH2 0x9FD JUMP JUMPDEST PUSH1 0x2 PUSH1 0x1 SLOAD SUB PUSH2 0x34A9 JUMPI PUSH1 0x40 MLOAD PUSH3 0x461BCD PUSH1 0xE5 SHL DUP2 MSTORE PUSH1 0x20 PUSH1 0x4 DUP3 ADD MSTORE PUSH1 0x1F PUSH1 0x24 DUP3 ADD MSTORE PUSH32 0x5265656E7472616E637947756172643A207265656E7472616E742063616C6C00 PUSH1 0x44 DUP3 ADD MSTORE PUSH1 0x64 ADD PUSH2 0x9FD JUMP JUMPDEST PUSH1 0x2 PUSH1 0x1 SSTORE JUMP JUMPDEST PUSH1 0x2 SLOAD PUSH1 0xFF AND ISZERO PUSH2 0x1357 JUMPI PUSH1 0x40 MLOAD PUSH3 0x461BCD PUSH1 0xE5 SHL DUP2 MSTORE PUSH1 0x20 PUSH1 0x4 DUP3 ADD MSTORE PUSH1 0x10 PUSH1 0x24 DUP3 ADD MSTORE PUSH16 0x14185D5CD8589B194E881C185D5CD959 PUSH1 0x82 SHL PUSH1 0x44 DUP3 ADD MSTORE PUSH1 0x64 ADD PUSH2 0x9FD JUMP JUMPDEST PUSH1 0x40 MLOAD PUSH1 0x1 PUSH1 0x1 PUSH1 0xA0 SHL SUB DUP1 DUP6 AND PUSH1 0x24 DUP4 ADD MSTORE DUP4 AND PUSH1 0x44 DUP3 ADD MSTORE PUSH1 0x64 DUP2 ADD DUP3 SWAP1 MSTORE PUSH2 0x3561 SWAP1 DUP6 SWAP1 PUSH4 0x23B872DD PUSH1 0xE0 SHL SWAP1 PUSH1 0x84 ADD JUMPDEST PUSH1 0x40 DUP1 MLOAD PUSH1 0x1F NOT DUP2 DUP5 SUB ADD DUP2 MSTORE SWAP2 SWAP1 MSTORE PUSH1 0x20 DUP2 ADD DUP1 MLOAD PUSH1 0x1 PUSH1 0x1 PUSH1 0xE0 SHL SUB AND PUSH1 0x1 PUSH1 0x1 PUSH1 0xE0 SHL SUB NOT SWAP1 SWAP4 AND SWAP3 SWAP1 SWAP3 OR SWAP1 SWAP2 MSTORE PUSH2 0x38A8 JUMP JUMPDEST POP POP POP POP JUMP JUMPDEST PUSH2 0x356F PUSH2 0x397D JUMP JUMPDEST PUSH1 0x2 DUP1 SLOAD PUSH1 0xFF NOT AND SWAP1 SSTORE PUSH32 0x5DB9EE0A495BF2E6FF9C91A7834C1BA4FDD244A5E8AA4E537BD38AEAE4B073AA CALLER JUMPDEST PUSH1 0x40 MLOAD PUSH1 0x1 PUSH1 0x1 PUSH1 0xA0 SHL SUB SWAP1 SWAP2 AND DUP2 MSTORE PUSH1 0x20 ADD PUSH1 0x40 MLOAD DUP1 SWAP2 SUB SWAP1 LOG1 JUMP JUMPDEST PUSH1 0x0 DUP1 SLOAD PUSH1 0x1 PUSH1 0x1 PUSH1 0xA0 SHL SUB DUP4 DUP2 AND PUSH1 0x1 PUSH1 0x1 PUSH1 0xA0 SHL SUB NOT DUP4 AND DUP2 OR DUP5 SSTORE PUSH1 0x40 MLOAD SWAP2 SWAP1 SWAP3 AND SWAP3 DUP4 SWAP2 PUSH32 0x8BE0079C531659141344CD1FD0A4F28419497F9722A3DAAFE3B4186F6B6457E0 SWAP2 SWAP1 LOG3 POP POP JUMP JUMPDEST PUSH2 0x3611 PUSH2 0x34B0 JUMP JUMPDEST PUSH1 0x2 DUP1 SLOAD PUSH1 0xFF NOT AND PUSH1 0x1 OR SWAP1 SSTORE PUSH32 0x62E78CEA01BEE320CD4E420270B5EA74000D11B0C9F74754EBDBFC544B05A258 PUSH2 0x359C CALLER SWAP1 JUMP JUMPDEST PUSH1 0x40 MLOAD PUSH1 0x1 PUSH1 0x1 PUSH1 0xA0 SHL SUB DUP4 AND PUSH1 0x24 DUP3 ADD MSTORE PUSH1 0x44 DUP2 ADD DUP3 SWAP1 MSTORE PUSH2 0x25AD SWAP1 DUP5 SWAP1 PUSH4 0xA9059CBB PUSH1 0xE0 SHL SWAP1 PUSH1 0x64 ADD PUSH2 0x352A JUMP JUMPDEST PUSH1 0x0 PUSH1 0x64 PUSH2 0x3685 PUSH1 0x32 DUP6 PUSH2 0x417B JUMP JUMPDEST PUSH2 0x368F SWAP2 SWAP1 PUSH2 0x4192 JUMP JUMPDEST SWAP1 POP PUSH1 0x0 PUSH1 0x64 PUSH2 0x36A0 PUSH1 0x14 DUP7 PUSH2 0x417B JUMP JUMPDEST PUSH2 0x36AA SWAP2 SWAP1 PUSH2 0x4192 JUMP JUMPDEST SWAP1 POP PUSH1 0x0 PUSH1 0x64 PUSH2 0x36BB PUSH1 0x14 DUP8 PUSH2 0x417B JUMP JUMPDEST PUSH2 0x36C5 SWAP2 SWAP1 PUSH2 0x4192 JUMP JUMPDEST SWAP1 POP PUSH1 0x0 DUP2 DUP4 PUSH2 0x36D5 DUP7 DUP10 PUSH2 0x41B4 JUMP JUMPDEST PUSH2 0x36DF SWAP2 SWAP1 PUSH2 0x41B4 JUMP JUMPDEST PUSH2 0x36E9 SWAP2 SWAP1 PUSH2 0x41B4 JUMP JUMPDEST PUSH1 0x2 SLOAD SWAP1 SWAP2 POP PUSH2 0x370B SWAP1 PUSH1 0x1 PUSH1 0x1 PUSH1 0xA0 SHL SUB DUP10 DUP2 AND SWAP2 PUSH2 0x100 SWAP1 DIV AND DUP7 PUSH2 0x3646 JUMP JUMPDEST PUSH1 0x3 SLOAD PUSH2 0x3725 SWAP1 PUSH1 0x1 PUSH1 0x1 PUSH1 0xA0 SHL SUB DUP10 DUP2 AND SWAP2 AND DUP6 PUSH2 0x3646 JUMP JUMPDEST PUSH1 0x4 SLOAD PUSH2 0x373F SWAP1 PUSH1 0x1 PUSH1 0x1 PUSH1 0xA0 SHL SUB DUP10 DUP2 AND SWAP2 AND DUP5 PUSH2 0x3646 JUMP JUMPDEST PUSH1 0x5 SLOAD PUSH2 0x3759 SWAP1 PUSH1 0x1 PUSH1 0x1 PUSH1 0xA0 SHL SUB DUP10 DUP2 AND SWAP2 AND DUP4 PUSH2 0x3646 JUMP JUMPDEST PUSH1 0x40 DUP1 MLOAD DUP6 DUP2 MSTORE PUSH1 0x20 DUP2 ADD DUP6 SWAP1 MSTORE SWAP1 DUP2 ADD DUP4 SWAP1 MSTORE PUSH1 0x60 DUP2 ADD DUP3 SWAP1 MSTORE DUP6 SWAP1 PUSH32 0xE17236F5DCCCEF76CCCAD15F0166F36D9333AA7D06E532F9EA301A301DE068FC SWAP1 PUSH1 0x80 ADD PUSH1 0x40 MLOAD DUP1 SWAP2 SUB SWAP1 LOG2 POP POP POP POP POP POP POP JUMP JUMPDEST PUSH1 0x0 DUP2 DUP2 MSTORE PUSH1 0x12 PUSH1 0x20 MSTORE PUSH1 0x40 SWAP1 KECCAK256 PUSH1 0x5 DUP2 ADD SLOAD PUSH1 0xFF AND ISZERO PUSH2 0x3802 JUMPI PUSH1 0x40 MLOAD PUSH3 0x461BCD PUSH1 0xE5 SHL DUP2 MSTORE PUSH1 0x20 PUSH1 0x4 DUP3 ADD MSTORE PUSH1 0x10 PUSH1 0x24 DUP3 ADD MSTORE PUSH16 0x105B1C9958591E48195E1958DD5D1959 PUSH1 0x82 SHL PUSH1 0x44 DUP3 ADD MSTORE PUSH1 0x64 ADD PUSH2 0x9FD JUMP JUMPDEST PUSH1 0x0 DUP3 DUP2 MSTORE PUSH1 0x10 PUSH1 0x20 MSTORE PUSH1 0x40 DUP2 KECCAK256 PUSH1 0x1 DUP4 ADD SLOAD SWAP1 SWAP2 PUSH2 0x2710 PUSH2 0x3825 PUSH1 0xFA DUP5 PUSH2 0x417B JUMP JUMPDEST PUSH2 0x382F SWAP2 SWAP1 PUSH2 0x4192 JUMP JUMPDEST SWAP1 POP PUSH1 0x0 PUSH2 0x383D DUP3 DUP5 PUSH2 0x41B4 JUMP JUMPDEST SWAP1 POP PUSH2 0x3848 DUP3 PUSH2 0x39C6 JUMP JUMPDEST PUSH1 0x5 DUP6 ADD DUP1 SLOAD PUSH1 0x1 PUSH1 0xFF NOT SWAP2 DUP3 AND OR SWAP1 SWAP2 SSTORE PUSH1 0x6 DUP6 ADD DUP1 SLOAD SWAP1 SWAP2 AND SWAP1 SSTORE PUSH1 0x40 DUP1 MLOAD DUP3 DUP2 MSTORE PUSH1 0x20 DUP2 ADD DUP5 SWAP1 MSTORE DUP8 SWAP2 PUSH32 0xBB742E35CDABEF7C22457D8AC19120B6E8C14C6FB565042C587E5409ECB503DF SWAP2 ADD PUSH1 0x40 MLOAD DUP1 SWAP2 SUB SWAP1 LOG2 POP POP POP POP POP POP JUMP JUMPDEST PUSH1 0x0 PUSH2 0x38FD DUP3 PUSH1 0x40 MLOAD DUP1 PUSH1 0x40 ADD PUSH1 0x40 MSTORE DUP1 PUSH1 0x20 DUP2 MSTORE PUSH1 0x20 ADD PUSH32 0x5361666545524332303A206C6F772D6C6576656C2063616C6C206661696C6564 DUP2 MSTORE POP DUP6 PUSH1 0x1 PUSH1 0x1 PUSH1 0xA0 SHL SUB AND PUSH2 0x3A41 SWAP1 SWAP3 SWAP2 SWAP1 PUSH4 0xFFFFFFFF AND JUMP JUMPDEST SWAP1 POP DUP1 MLOAD PUSH1 0x0 EQ DUP1 PUSH2 0x391E JUMPI POP DUP1 DUP1 PUSH1 0x20 ADD SWAP1 MLOAD DUP2 ADD SWAP1 PUSH2 0x391E SWAP2 SWAP1 PUSH2 0x448F JUMP JUMPDEST PUSH2 0x25AD JUMPI PUSH1 0x40 MLOAD PUSH3 0x461BCD PUSH1 0xE5 SHL DUP2 MSTORE PUSH1 0x20 PUSH1 0x4 DUP3 ADD MSTORE PUSH1 0x2A PUSH1 0x24 DUP3 ADD MSTORE PUSH32 0x5361666545524332303A204552433230206F7065726174696F6E20646964206E PUSH1 0x44 DUP3 ADD MSTORE PUSH10 0x1BDD081CDD58D8D95959 PUSH1 0xB2 SHL PUSH1 0x64 DUP3 ADD MSTORE PUSH1 0x84 ADD PUSH2 0x9FD JUMP JUMPDEST PUSH1 0x2 SLOAD PUSH1 0xFF AND PUSH2 0x1357 JUMPI PUSH1 0x40 MLOAD PUSH3 0x461BCD PUSH1 0xE5 SHL DUP2 MSTORE PUSH1 0x20 PUSH1 0x4 DUP3 ADD MSTORE PUSH1 0x14 PUSH1 0x24 DUP3 ADD MSTORE PUSH20 0x14185D5CD8589B194E881B9BDD081C185D5CD959 PUSH1 0x62 SHL PUSH1 0x44 DUP3 ADD MSTORE PUSH1 0x64 ADD PUSH2 0x9FD JUMP JUMPDEST PUSH1 0x0 PUSH1 0x64 PUSH2 0x39D5 PUSH1 0x32 DUP5 PUSH2 0x417B JUMP JUMPDEST PUSH2 0x39DF SWAP2 SWAP1 PUSH2 0x4192 JUMP JUMPDEST SWAP1 POP PUSH1 0x0 PUSH1 0x64 PUSH2 0x39F0 PUSH1 0x14 DUP6 PUSH2 0x417B JUMP JUMPDEST PUSH2 0x39FA SWAP2 SWAP1 PUSH2 0x4192 JUMP JUMPDEST SWAP1 POP PUSH1 0x0 PUSH1 0x64 PUSH2 0x3A0B PUSH1 0x14 DUP7 PUSH2 0x417B JUMP JUMPDEST PUSH2 0x3A15 SWAP2 SWAP1 PUSH2 0x4192 JUMP JUMPDEST SWAP1 POP PUSH1 0x0 DUP2 DUP4 PUSH2 0x3A25 DUP7 DUP9 PUSH2 0x41B4 JUMP JUMPDEST PUSH2 0x3A2F SWAP2 SWAP1 PUSH2 0x41B4 JUMP JUMPDEST PUSH2 0x3A39 SWAP2 SWAP1 PUSH2 0x41B4 JUMP JUMPDEST POP POP POP POP POP POP JUMP JUMPDEST PUSH1 0x60 PUSH2 0x1F46 DUP5 DUP5 PUSH1 0x0 DUP6 DUP6 PUSH1 0x0 DUP1 DUP7 PUSH1 0x1 PUSH1 0x1 PUSH1 0xA0 SHL SUB AND DUP6 DUP8 PUSH1 0x40 MLOAD PUSH2 0x3A68 SWAP2 SWAP1 PUSH2 0x44AC JUMP JUMPDEST PUSH1 0x0 PUSH1 0x40 MLOAD DUP1 DUP4 SUB DUP2 DUP6 DUP8 GAS CALL SWAP3 POP POP POP RETURNDATASIZE DUP1 PUSH1 0x0 DUP2 EQ PUSH2 0x3AA5 JUMPI PUSH1 0x40 MLOAD SWAP2 POP PUSH1 0x1F NOT PUSH1 0x3F RETURNDATASIZE ADD AND DUP3 ADD PUSH1 0x40 MSTORE RETURNDATASIZE DUP3 MSTORE RETURNDATASIZE PUSH1 0x0 PUSH1 0x20 DUP5 ADD RETURNDATACOPY PUSH2 0x3AAA JUMP JUMPDEST PUSH1 0x60 SWAP2 POP JUMPDEST POP SWAP2 POP SWAP2 POP PUSH2 0x3ABB DUP8 DUP4 DUP4 DUP8 PUSH2 0x3AC6 JUMP JUMPDEST SWAP8 SWAP7 POP POP POP POP POP POP POP JUMP JUMPDEST PUSH1 0x60 DUP4 ISZERO PUSH2 0x3B35 JUMPI DUP3 MLOAD PUSH1 0x0 SUB PUSH2 0x3B2E JUMPI PUSH1 0x1 PUSH1 0x1 PUSH1 0xA0 SHL SUB DUP6 AND EXTCODESIZE PUSH2 0x3B2E JUMPI PUSH1 0x40 MLOAD PUSH3 0x461BCD PUSH1 0xE5 SHL DUP2 MSTORE PUSH1 0x20 PUSH1 0x4 DUP3 ADD MSTORE PUSH1 0x1D PUSH1 0x24 DUP3 ADD MSTORE PUSH32 0x416464726573733A2063616C6C20746F206E6F6E2D636F6E7472616374000000 PUSH1 0x44 DUP3 ADD MSTORE PUSH1 0x64 ADD PUSH2 0x9FD JUMP JUMPDEST POP DUP2 PUSH2 0x1F46 JUMP JUMPDEST PUSH2 0x1F46 DUP4 DUP4 DUP2 MLOAD ISZERO PUSH2 0x3B4A JUMPI DUP2 MLOAD DUP1 DUP4 PUSH1 0x20 ADD REVERT JUMPDEST DUP1 PUSH1 0x40 MLOAD PUSH3 0x461BCD PUSH1 0xE5 SHL DUP2 MSTORE PUSH1 0x4 ADD PUSH2 0x9FD SWAP2 SWAP1 PUSH2 0x447C JUMP JUMPDEST DUP1 ISZERO ISZERO DUP2 EQ PUSH2 0x2F70 JUMPI PUSH1 0x0 DUP1 REVERT JUMPDEST PUSH1 0x0 DUP1 PUSH1 0x0 DUP1 PUSH1 0x80 DUP6 DUP8 SUB SLT ISZERO PUSH2 0x3B88 JUMPI PUSH1 0x0 DUP1 REVERT JUMPDEST DUP5 CALLDATALOAD SWAP4 POP PUSH1 0x20 DUP6 ADD CALLDATALOAD SWAP3 POP PUSH1 0x40 DUP6 ADD CALLDATALOAD SWAP2 POP PUSH1 0x60 DUP6 ADD CALLDATALOAD PUSH2 0x3BA8 DUP2 PUSH2 0x3B64 JUMP JUMPDEST SWAP4 SWAP7 SWAP3 SWAP6 POP SWAP1 SWAP4 POP POP JUMP JUMPDEST DUP1 CALLDATALOAD PUSH1 0x1 PUSH1 0x1 PUSH1 0xA0 SHL SUB DUP2 AND DUP2 EQ PUSH2 0x3BCA JUMPI PUSH1 0x0 DUP1 REVERT JUMPDEST SWAP2 SWAP1 POP JUMP JUMPDEST PUSH1 0x0 DUP1 PUSH1 0x40 DUP4 DUP6 SUB SLT ISZERO PUSH2 0x3BE2 JUMPI PUSH1 0x0 DUP1 REVERT JUMPDEST DUP3 CALLDATALOAD SWAP2 POP PUSH2 0x3BF2 PUSH1 0x20 DUP5 ADD PUSH2 0x3BB3 JUMP JUMPDEST SWAP1 POP SWAP3 POP SWAP3 SWAP1 POP JUMP JUMPDEST PUSH1 0x0 DUP1 PUSH1 0x40 DUP4 DUP6 SUB SLT ISZERO PUSH2 0x3C0E JUMPI PUSH1 0x0 DUP1 REVERT JUMPDEST POP POP DUP1 CALLDATALOAD SWAP3 PUSH1 0x20 SWAP1 SWAP2 ADD CALLDATALOAD SWAP2 POP JUMP JUMPDEST PUSH1 0x0 PUSH1 0x20 DUP3 DUP5 SUB SLT ISZERO PUSH2 0x3C2F JUMPI PUSH1 0x0 DUP1 REVERT JUMPDEST POP CALLDATALOAD SWAP2 SWAP1 POP JUMP JUMPDEST PUSH1 0x0 JUMPDEST DUP4 DUP2 LT ISZERO PUSH2 0x3C51 JUMPI DUP2 DUP2 ADD MLOAD DUP4 DUP3 ADD MSTORE PUSH1 0x20 ADD PUSH2 0x3C39 JUMP JUMPDEST POP POP PUSH1 0x0 SWAP2 ADD MSTORE JUMP JUMPDEST PUSH1 0x0 DUP2 MLOAD DUP1 DUP5 MSTORE PUSH2 0x3C72 DUP2 PUSH1 0x20 DUP7 ADD PUSH1 0x20 DUP7 ADD PUSH2 0x3C36 JUMP JUMPDEST PUSH1 0x1F ADD PUSH1 0x1F NOT AND SWAP3 SWAP1 SWAP3 ADD PUSH1 0x20 ADD SWAP3 SWAP2 POP POP JUMP JUMPDEST PUSH1 0x80 DUP2 MSTORE PUSH1 0x0 PUSH2 0x3C99 PUSH1 0x80 DUP4 ADD DUP8 PUSH2 0x3C5A JUMP JUMPDEST PUSH1 0x20 DUP4 ADD SWAP6 SWAP1 SWAP6 MSTORE POP PUSH1 0x40 DUP2 ADD SWAP3 SWAP1 SWAP3 MSTORE ISZERO ISZERO PUSH1 0x60 SWAP1 SWAP2 ADD MSTORE SWAP2 SWAP1 POP JUMP JUMPDEST PUSH4 0x4E487B71 PUSH1 0xE0 SHL PUSH1 0x0 MSTORE PUSH1 0x41 PUSH1 0x4 MSTORE PUSH1 0x24 PUSH1 0x0 REVERT JUMPDEST PUSH1 0x0 DUP3 PUSH1 0x1F DUP4 ADD SLT PUSH2 0x3CDE JUMPI PUSH1 0x0 DUP1 REVERT JUMPDEST DUP2 CALLDATALOAD PUSH8 0xFFFFFFFFFFFFFFFF DUP1 DUP3 GT ISZERO PUSH2 0x3CF9 JUMPI PUSH2 0x3CF9 PUSH2 0x3CB7 JUMP JUMPDEST PUSH1 0x40 MLOAD PUSH1 0x1F DUP4 ADD PUSH1 0x1F NOT SWAP1 DUP2 AND PUSH1 0x3F ADD AND DUP2 ADD SWAP1 DUP3 DUP3 GT DUP2 DUP4 LT OR ISZERO PUSH2 0x3D21 JUMPI PUSH2 0x3D21 PUSH2 0x3CB7 JUMP JUMPDEST DUP2 PUSH1 0x40 MSTORE DUP4 DUP2 MSTORE DUP7 PUSH1 0x20 DUP6 DUP9 ADD ADD GT ISZERO PUSH2 0x3D3A JUMPI PUSH1 0x0 DUP1 REVERT JUMPDEST DUP4 PUSH1 0x20 DUP8 ADD PUSH1 0x20 DUP4 ADD CALLDATACOPY PUSH1 0x0 PUSH1 0x20 DUP6 DUP4 ADD ADD MSTORE DUP1 SWAP5 POP POP POP POP POP SWAP3 SWAP2 POP POP JUMP JUMPDEST PUSH1 0x0 DUP1 PUSH1 0x0 PUSH1 0x60 DUP5 DUP7 SUB SLT ISZERO PUSH2 0x3D6F JUMPI PUSH1 0x0 DUP1 REVERT JUMPDEST DUP4 CALLDATALOAD PUSH8 0xFFFFFFFFFFFFFFFF DUP2 GT ISZERO PUSH2 0x3D86 JUMPI PUSH1 0x0 DUP1 REVERT JUMPDEST PUSH2 0x3D92 DUP7 DUP3 DUP8 ADD PUSH2 0x3CCD JUMP JUMPDEST SWAP7 PUSH1 0x20 DUP7 ADD CALLDATALOAD SWAP7 POP PUSH1 0x40 SWAP1 SWAP6 ADD CALLDATALOAD SWAP5 SWAP4 POP POP POP POP JUMP JUMPDEST PUSH1 0x0 PUSH1 0x20 DUP3 DUP5 SUB SLT ISZERO PUSH2 0x3DBA JUMPI PUSH1 0x0 DUP1 REVERT JUMPDEST PUSH2 0x3DC3 DUP3 PUSH2 0x3BB3 JUMP JUMPDEST SWAP4 SWAP3 POP POP POP JUMP JUMPDEST PUSH1 0x0 DUP1 PUSH1 0x0 DUP1 PUSH1 0x0 DUP1 PUSH1 0x0 PUSH1 0xE0 DUP9 DUP11 SUB SLT ISZERO PUSH2 0x3DE5 JUMPI PUSH1 0x0 DUP1 REVERT JUMPDEST DUP8 CALLDATALOAD PUSH8 0xFFFFFFFFFFFFFFFF DUP1 DUP3 GT ISZERO PUSH2 0x3DFD JUMPI PUSH1 0x0 DUP1 REVERT JUMPDEST PUSH2 0x3E09 DUP12 DUP4 DUP13 ADD PUSH2 0x3CCD JUMP JUMPDEST SWAP9 POP PUSH1 0x20 DUP11 ADD CALLDATALOAD SWAP2 POP DUP1 DUP3 GT ISZERO PUSH2 0x3E1F JUMPI PUSH1 0x0 DUP1 REVERT JUMPDEST POP PUSH2 0x3E2C DUP11 DUP3 DUP12 ADD PUSH2 0x3CCD JUMP JUMPDEST SWAP7 POP POP PUSH1 0x40 DUP9 ADD CALLDATALOAD SWAP5 POP PUSH1 0x60 DUP9 ADD CALLDATALOAD SWAP4 POP PUSH1 0x80 DUP9 ADD CALLDATALOAD SWAP3 POP PUSH2 0x3E50 PUSH1 0xA0 DUP10 ADD PUSH2 0x3BB3 JUMP JUMPDEST SWAP2 POP PUSH1 0xC0 DUP9 ADD CALLDATALOAD SWAP1 POP SWAP3 SWAP6 SWAP9 SWAP2 SWAP5 SWAP8 POP SWAP3 SWAP6 POP JUMP JUMPDEST PUSH1 0x0 DUP1 PUSH1 0x40 DUP4 DUP6 SUB SLT ISZERO PUSH2 0x3E78 JUMPI PUSH1 0x0 DUP1 REVERT JUMPDEST PUSH2 0x3E81 DUP4 PUSH2 0x3BB3 JUMP JUMPDEST SWAP5 PUSH1 0x20 SWAP4 SWAP1 SWAP4 ADD CALLDATALOAD SWAP4 POP POP POP JUMP JUMPDEST PUSH1 0x20 DUP1 DUP3 MSTORE DUP3 MLOAD DUP3 DUP3 ADD DUP2 SWAP1 MSTORE PUSH1 0x0 SWAP2 SWAP1 DUP5 DUP3 ADD SWAP1 PUSH1 0x40 DUP6 ADD SWAP1 DUP5 JUMPDEST DUP2 DUP2 LT ISZERO PUSH2 0x3EC7 JUMPI DUP4 MLOAD DUP4 MSTORE SWAP3 DUP5 ADD SWAP3 SWAP2 DUP5 ADD SWAP2 PUSH1 0x1 ADD PUSH2 0x3EAB JUMP JUMPDEST POP SWAP1 SWAP7 SWAP6 POP POP POP POP POP POP JUMP JUMPDEST PUSH1 0xE0 DUP2 MSTORE PUSH1 0x0 PUSH2 0x3EE6 PUSH1 0xE0 DUP4 ADD DUP11 PUSH2 0x3C5A JUMP JUMPDEST DUP3 DUP2 SUB PUSH1 0x20 DUP5 ADD MSTORE PUSH2 0x3EF8 DUP2 DUP11 PUSH2 0x3C5A JUMP JUMPDEST PUSH1 0x40 DUP5 ADD SWAP9 SWAP1 SWAP9 MSTORE POP POP PUSH1 0x60 DUP2 ADD SWAP5 SWAP1 SWAP5 MSTORE PUSH1 0x80 DUP5 ADD SWAP3 SWAP1 SWAP3 MSTORE PUSH1 0xA0 DUP4 ADD MSTORE ISZERO ISZERO PUSH1 0xC0 SWAP1 SWAP2 ADD MSTORE SWAP3 SWAP2 POP POP JUMP JUMPDEST PUSH2 0x180 DUP2 MSTORE PUSH1 0x0 PUSH2 0x3F3A PUSH2 0x180 DUP4 ADD DUP16 PUSH2 0x3C5A JUMP JUMPDEST DUP3 DUP2 SUB PUSH1 0x20 DUP5 ADD MSTORE PUSH2 0x3F4C DUP2 DUP16 PUSH2 0x3C5A JUMP JUMPDEST SWAP2 POP POP DUP12 PUSH1 0x40 DUP4 ADD MSTORE DUP11 PUSH1 0x60 DUP4 ADD MSTORE DUP10 PUSH1 0x80 DUP4 ADD MSTORE DUP9 PUSH1 0xA0 DUP4 ADD MSTORE DUP8 PUSH1 0xC0 DUP4 ADD MSTORE PUSH1 0x1 DUP1 PUSH1 0xA0 SHL SUB DUP8 AND PUSH1 0xE0 DUP4 ADD MSTORE DUP6 PUSH2 0x100 DUP4 ADD MSTORE DUP5 ISZERO ISZERO PUSH2 0x120 DUP4 ADD MSTORE DUP4 ISZERO ISZERO PUSH2 0x140 DUP4 ADD MSTORE PUSH2 0x3FA3 PUSH2 0x160 DUP4 ADD DUP5 ISZERO ISZERO SWAP1 MSTORE JUMP JUMPDEST SWAP14 SWAP13 POP POP POP POP POP POP POP POP POP POP POP POP POP JUMP JUMPDEST PUSH1 0x0 DUP1 PUSH1 0x0 DUP1 PUSH1 0x80 DUP6 DUP8 SUB SLT ISZERO PUSH2 0x3FCA JUMPI PUSH1 0x0 DUP1 REVERT JUMPDEST PUSH2 0x3FD3 DUP6 PUSH2 0x3BB3 JUMP JUMPDEST SWAP4 POP PUSH2 0x3FE1 PUSH1 0x20 DUP7 ADD PUSH2 0x3BB3 JUMP JUMPDEST SWAP3 POP PUSH2 0x3FEF PUSH1 0x40 DUP7 ADD PUSH2 0x3BB3 JUMP JUMPDEST SWAP2 POP PUSH2 0x3FFD PUSH1 0x60 DUP7 ADD PUSH2 0x3BB3 JUMP JUMPDEST SWAP1 POP SWAP3 SWAP6 SWAP2 SWAP5 POP SWAP3 POP JUMP JUMPDEST PUSH1 0x0 DUP1 PUSH1 0x0 DUP1 PUSH1 0x0 DUP1 PUSH1 0xC0 DUP8 DUP10 SUB SLT ISZERO PUSH2 0x4021 JUMPI PUSH1 0x0 DUP1 REVERT JUMPDEST DUP7 CALLDATALOAD SWAP6 POP PUSH1 0x20 DUP8 ADD CALLDATALOAD PUSH8 0xFFFFFFFFFFFFFFFF DUP1 DUP3 GT ISZERO PUSH2 0x4040 JUMPI PUSH1 0x0 DUP1 REVERT JUMPDEST PUSH2 0x404C DUP11 DUP4 DUP12 ADD PUSH2 0x3CCD JUMP JUMPDEST SWAP7 POP PUSH1 0x40 DUP10 ADD CALLDATALOAD SWAP2 POP DUP1 DUP3 GT ISZERO PUSH2 0x4062 JUMPI PUSH1 0x0 DUP1 REVERT JUMPDEST POP PUSH2 0x406F DUP10 DUP3 DUP11 ADD PUSH2 0x3CCD JUMP JUMPDEST SWAP5 POP POP PUSH1 0x60 DUP8 ADD CALLDATALOAD SWAP3 POP PUSH1 0x80 DUP8 ADD CALLDATALOAD SWAP2 POP PUSH1 0xA0 DUP8 ADD CALLDATALOAD SWAP1 POP SWAP3 SWAP6 POP SWAP3 SWAP6 POP SWAP3 SWAP6 JUMP JUMPDEST PUSH1 0x0 DUP1 PUSH1 0x0 PUSH1 0x60 DUP5 DUP7 SUB SLT ISZERO PUSH2 0x40A6 JUMPI PUSH1 0x0 DUP1 REVERT JUMPDEST PUSH2 0x40AF DUP5 PUSH2 0x3BB3 JUMP JUMPDEST SWAP6 PUSH1 0x20 DUP6 ADD CALLDATALOAD SWAP6 POP PUSH1 0x40 SWAP1 SWAP5 ADD CALLDATALOAD SWAP4 SWAP3 POP POP POP JUMP JUMPDEST PUSH1 0x0 DUP1 PUSH1 0x40 DUP4 DUP6 SUB SLT ISZERO PUSH2 0x40D7 JUMPI PUSH1 0x0 DUP1 REVERT JUMPDEST DUP3 CALLDATALOAD SWAP2 POP PUSH1 0x20 DUP4 ADD CALLDATALOAD PUSH2 0x40E9 DUP2 PUSH2 0x3B64 JUMP JUMPDEST DUP1 SWAP2 POP POP SWAP3 POP SWAP3 SWAP1 POP JUMP JUMPDEST PUSH1 0x0 DUP1 PUSH1 0x40 DUP4 DUP6 SUB SLT ISZERO PUSH2 0x4107 JUMPI PUSH1 0x0 DUP1 REVERT JUMPDEST DUP3 CALLDATALOAD SWAP2 POP PUSH1 0x20 DUP4 ADD CALLDATALOAD PUSH8 0xFFFFFFFFFFFFFFFF DUP2 GT ISZERO PUSH2 0x4125 JUMPI PUSH1 0x0 DUP1 REVERT JUMPDEST PUSH2 0x4131 DUP6 DUP3 DUP7 ADD PUSH2 0x3CCD JUMP JUMPDEST SWAP2 POP POP SWAP3 POP SWAP3 SWAP1 POP JUMP JUMPDEST PUSH1 0x20 DUP1 DUP3 MSTORE PUSH1 0x10 SWAP1 DUP3 ADD MSTORE PUSH16 0x125B9D985B1A5908189C99585AC81251 PUSH1 0x82 SHL PUSH1 0x40 DUP3 ADD MSTORE PUSH1 0x60 ADD SWAP1 JUMP JUMPDEST PUSH4 0x4E487B71 PUSH1 0xE0 SHL PUSH1 0x0 MSTORE PUSH1 0x11 PUSH1 0x4 MSTORE PUSH1 0x24 PUSH1 0x0 REVERT JUMPDEST DUP1 DUP3 MUL DUP2 ISZERO DUP3 DUP3 DIV DUP5 EQ OR PUSH2 0xBD5 JUMPI PUSH2 0xBD5 PUSH2 0x4165 JUMP JUMPDEST PUSH1 0x0 DUP3 PUSH2 0x41AF JUMPI PUSH4 0x4E487B71 PUSH1 0xE0 SHL PUSH1 0x0 MSTORE PUSH1 0x12 PUSH1 0x4 MSTORE PUSH1 0x24 PUSH1 0x0 REVERT JUMPDEST POP DIV SWAP1 JUMP JUMPDEST DUP2 DUP2 SUB DUP2 DUP2 GT ISZERO PUSH2 0xBD5 JUMPI PUSH2 0xBD5 PUSH2 0x4165 JUMP JUMPDEST PUSH1 0x20 DUP1 DUP3 MSTORE PUSH1 0xF SWAP1 DUP3 ADD MSTORE PUSH15 0x43617264206E6F7420616374697665 PUSH1 0x88 SHL PUSH1 0x40 DUP3 ADD MSTORE PUSH1 0x60 ADD SWAP1 JUMP JUMPDEST DUP1 DUP3 ADD DUP1 DUP3 GT ISZERO PUSH2 0xBD5 JUMPI PUSH2 0xBD5 PUSH2 0x4165 JUMP JUMPDEST PUSH1 0x1 DUP2 DUP2 SHR SWAP1 DUP3 AND DUP1 PUSH2 0x4217 JUMPI PUSH1 0x7F DUP3 AND SWAP2 POP JUMPDEST PUSH1 0x20 DUP3 LT DUP2 SUB PUSH2 0x4237 JUMPI PUSH4 0x4E487B71 PUSH1 0xE0 SHL PUSH1 0x0 MSTORE PUSH1 0x22 PUSH1 0x4 MSTORE PUSH1 0x24 PUSH1 0x0 REVERT JUMPDEST POP SWAP2 SWAP1 POP JUMP JUMPDEST PUSH1 0x20 DUP1 DUP3 MSTORE PUSH1 0x14 SWAP1 DUP3 ADD MSTORE PUSH20 0x5175616E74697479206D757374206265203E203 PUSH1 0x64 SHL PUSH1 0x40 DUP3 ADD MSTORE PUSH1 0x60 ADD SWAP1 JUMP JUMPDEST PUSH1 0x20 DUP1 DUP3 MSTORE PUSH1 0x12 SWAP1 DUP3 ADD MSTORE PUSH18 0x141C994B5CD85B194818D85B98D95B1B1959 PUSH1 0x72 SHL PUSH1 0x40 DUP3 ADD MSTORE PUSH1 0x60 ADD SWAP1 JUMP JUMPDEST PUSH1 0x1F DUP3 GT ISZERO PUSH2 0x25AD JUMPI PUSH1 0x0 DUP2 DUP2 MSTORE PUSH1 0x20 DUP2 KECCAK256 PUSH1 0x1F DUP6 ADD PUSH1 0x5 SHR DUP2 ADD PUSH1 0x20 DUP7 LT ISZERO PUSH2 0x42BE JUMPI POP DUP1 JUMPDEST PUSH1 0x1F DUP6 ADD PUSH1 0x5 SHR DUP3 ADD SWAP2 POP JUMPDEST DUP2 DUP2 LT ISZERO PUSH2 0x3A39 JUMPI DUP3 DUP2 SSTORE PUSH1 0x1 ADD PUSH2 0x42CA JUMP JUMPDEST DUP2 MLOAD PUSH8 0xFFFFFFFFFFFFFFFF DUP2 GT ISZERO PUSH2 0x42F7 JUMPI PUSH2 0x42F7 PUSH2 0x3CB7 JUMP JUMPDEST PUSH2 0x430B DUP2 PUSH2 0x4305 DUP5 SLOAD PUSH2 0x4203 JUMP JUMPDEST DUP5 PUSH2 0x4297 JUMP JUMPDEST PUSH1 0x20 DUP1 PUSH1 0x1F DUP4 GT PUSH1 0x1 DUP2 EQ PUSH2 0x4340 JUMPI PUSH1 0x0 DUP5 ISZERO PUSH2 0x4328 JUMPI POP DUP6 DUP4 ADD MLOAD JUMPDEST PUSH1 0x0 NOT PUSH1 0x3 DUP7 SWAP1 SHL SHR NOT AND PUSH1 0x1 DUP6 SWAP1 SHL OR DUP6 SSTORE PUSH2 0x3A39 JUMP JUMPDEST PUSH1 0x0 DUP6 DUP2 MSTORE PUSH1 0x20 DUP2 KECCAK256 PUSH1 0x1F NOT DUP7 AND SWAP2 JUMPDEST DUP3 DUP2 LT ISZERO PUSH2 0x436F JUMPI DUP9 DUP7 ADD MLOAD DUP3 SSTORE SWAP5 DUP5 ADD SWAP5 PUSH1 0x1 SWAP1 SWAP2 ADD SWAP1 DUP5 ADD PUSH2 0x4350 JUMP JUMPDEST POP DUP6 DUP3 LT ISZERO PUSH2 0x438D JUMPI DUP8 DUP6 ADD MLOAD PUSH1 0x0 NOT PUSH1 0x3 DUP9 SWAP1 SHL PUSH1 0xF8 AND SHR NOT AND DUP2 SSTORE JUMPDEST POP POP POP POP POP PUSH1 0x1 SWAP1 DUP2 SHL ADD SWAP1 SSTORE POP JUMP JUMPDEST PUSH1 0x0 PUSH1 0x1 DUP3 ADD PUSH2 0x43AF JUMPI PUSH2 0x43AF PUSH2 0x4165 JUMP JUMPDEST POP PUSH1 0x1 ADD SWAP1 JUMP JUMPDEST PUSH1 0x60 DUP2 MSTORE PUSH1 0x0 PUSH2 0x43C9 PUSH1 0x60 DUP4 ADD DUP7 PUSH2 0x3C5A JUMP JUMPDEST PUSH1 0x20 DUP4 ADD SWAP5 SWAP1 SWAP5 MSTORE POP PUSH1 0x40 ADD MSTORE SWAP2 SWAP1 POP JUMP JUMPDEST PUSH1 0x20 DUP1 DUP3 MSTORE PUSH1 0x13 SWAP1 DUP3 ADD MSTORE PUSH19 0x151BDAD95B881B9BDD081CDD5C1C1BDC9D1959 PUSH1 0x6A SHL PUSH1 0x40 DUP3 ADD MSTORE PUSH1 0x60 ADD SWAP1 JUMP JUMPDEST PUSH1 0xC0 DUP2 MSTORE PUSH1 0x0 PUSH2 0x441B PUSH1 0xC0 DUP4 ADD DUP10 PUSH2 0x3C5A JUMP JUMPDEST DUP3 DUP2 SUB PUSH1 0x20 DUP5 ADD MSTORE PUSH2 0x442D DUP2 DUP10 PUSH2 0x3C5A JUMP JUMPDEST SWAP2 POP POP DUP6 PUSH1 0x40 DUP4 ADD MSTORE DUP5 PUSH1 0x60 DUP4 ADD MSTORE DUP4 PUSH1 0x80 DUP4 ADD MSTORE DUP3 PUSH1 0xA0 DUP4 ADD MSTORE SWAP8 SWAP7 POP POP POP POP POP POP POP JUMP JUMPDEST PUSH1 0x20 DUP1 DUP3 MSTORE PUSH1 0xF SWAP1 DUP3 ADD MSTORE PUSH15 0x496E76616C69642061646472657373 PUSH1 0x88 SHL PUSH1 0x40 DUP3 ADD MSTORE PUSH1 0x60 ADD SWAP1 JUMP JUMPDEST PUSH1 0x20 DUP2 MSTORE PUSH1 0x0 PUSH2 0x3DC3 PUSH1 0x20 DUP4 ADD DUP5 PUSH2 0x3C5A JUMP JUMPDEST PUSH1 0x0 PUSH1 0x20 DUP3 DUP5 SUB SLT ISZERO PUSH2 0x44A1 JUMPI PUSH1 0x0 DUP1 REVERT JUMPDEST DUP2 MLOAD PUSH2 0x3DC3 DUP2 PUSH2 0x3B64 JUMP JUMPDEST PUSH1 0x0 DUP3 MLOAD PUSH2 0x44BE DUP2 DUP5 PUSH1 0x20 DUP8 ADD PUSH2 0x3C36 JUMP JUMPDEST SWAP2 SWAP1 SWAP2 ADD SWAP3 SWAP2 POP POP JUMP INVALID LOG2 PUSH5 0x6970667358 0x22 SLT KECCAK256 0xE1 DUP12 CREATE2 0xF9 KECCAK256 TIMESTAMP SWAP4 PUSH28 0x3565411171778D7EDEBECE7214F31EBA06D7B3B9BE82A62164736F6C PUSH4 0x43000813 STOP CALLER "},"methodIdentifiers":{"BPS_DENOMINATOR()":"e1a45218","BUYOUT_FEE_BPS()":"d701b6c0","INVESTMENT_SHARE()":"2ed748ad","MAX_PRE_SALE_DURATION()":"fbd51682","OPERATIONS_SHARE()":"d191d7f4","REFUND_WINDOW()":"1153b5f3","TOKEN_LIQUIDITY_SHARE()":"bb6692e3","TREASURY_SHARE()":"32696174","acquireInventory(uint256,uint256)":"356221b8","activatePreSale(uint256,uint256)":"c07deb33","addBreakType(string,uint256,uint256)":"3fbfabb0","addCard(uint256,string,string,uint256,uint256,uint256)":"c73bfe6e","addSupportedToken(address)":"6d69fcaf","breakTypeCount()":"25c26786","breakTypes(uint256)":"244cfd98","buyoutProposals(uint256)":"7c7116ea","calculateBuyoutPayout(uint256,address)":"1c6f902c","cancelPreSale(uint256,string)":"ea801f5e","cards(uint256)":"8dc10768","claimBuyoutPayout(uint256)":"fe98b8ce","claimPreSaleRefund(uint256)":"eca34258","createPreSale(string,string,uint256,uint256,uint256,address,uint256)":"6eda90d0","defaultPackCost()":"fbafa979","eVAULTDiscountBps()":"3a0d727c","eVAULTToken()":"75abe3ef","emergencyWithdraw(address,uint256)":"95ccea67","getBuyoutProposal(uint256)":"9046306d","getPreSale(uint256)":"9cacdf70","getUserBreakPurchases(address)":"85d85966","getUserOwnershipPercent(uint256,address)":"a207b5bb","getUserPreSalePurchase(uint256,address)":"8dd51e2a","inventoryFundWallet()":"ad1609cb","investmentWallet()":"b6fa37bc","operationsWallet()":"fd72e22a","owner()":"8da5cb5b","pause()":"8456cb59","paused()":"5c975abb","preSaleCount()":"de0ec164","preSales(uint256)":"d9589c5f","proposeBuyout(address,uint256)":"843de999","purchaseBreakPacks(address,uint256,uint256)":"f236afdf","purchaseBreakPacksWithEVAULT(uint256,uint256)":"31db2489","purchaseFractions(address,uint256,uint256)":"d4d766e6","purchaseFractionsWithEVAULT(uint256,uint256)":"23fd530d","purchasePreSale(uint256,uint256)":"eba9c7ff","removeSupportedToken(address)":"76319190","renounceOwnership()":"715018a6","rewardsPool()":"0359fea9","setEVAULTDiscount(uint256)":"f3e7ba9f","setEVAULTToken(address)":"7e0c4c89","setInventoryFundWallet(address)":"9be95ff2","setPackCost(uint256)":"553cb0de","setRewardsPool(address)":"7c000293","supportedTokens(address)":"68c4ac26","tokenLiquidityWallet()":"ae135136","transferOwnership(address)":"f2fde38b","treasuryWallet()":"4626402b","unpause()":"3f4ba83a","updateBreakType(uint256,uint256,uint256,bool)":"0c40ed3e","updateCardAvailability(uint256,uint256)":"676c4631","updateRevenueWallets(address,address,address,address)":"c4b532ab","userBreakPurchases(address,uint256)":"fd29f2b3","userOwnership(uint256,address)":"5571251e","voteOnBuyout(uint256,bool)":"e2aa1294"}}}}}